{
  "transactions": [
    {
      "hash": "0x0ec0cd3f91540cfcb55c0b577233b96c660d95dc6ccb146454c0037656dc6a8f",
      "transactionType": "CALL",
      "contractName": null,
      "contractAddress": "0x34a99057232cc4a7eb21398fd0052474f4b5bcc5",
      "function": "createContractor(string,uint256,uint256,string,string,string)",
      "arguments": [
        "Company 1",
        "10001",
        "20001",
        "Address 1",
        "QmHash1",
        "QmHash2"
      ],
      "transaction": {
        "from": "0x86e74256bec87d5f542bc9214b708a9de78e3998",
        "to": "0x34a99057232cc4a7eb21398fd0052474f4b5bcc5",
        "gas": "0x409c7",
        "value": "0x0",
        "input": "0x807c032800000000000000000000000000000000000000000000000000000000000000c000000000000000000000000000000000000000000000000000000000000027110000000000000000000000000000000000000000000000000000000000004e210000000000000000000000000000000000000000000000000000000000000100000000000000000000000000000000000000000000000000000000000000014000000000000000000000000000000000000000000000000000000000000001800000000000000000000000000000000000000000000000000000000000000009436f6d70616e7920310000000000000000000000000000000000000000000000000000000000000000000000000000000000000000000000000000000000000941646472657373203100000000000000000000000000000000000000000000000000000000000000000000000000000000000000000000000000000000000007516d4861736831000000000000000000000000000000000000000000000000000000000000000000000000000000000000000000000000000000000000000007516d486173683200000000000000000000000000000000000000000000000000",
        "nonce": "0xad",
        "chainId": "0xa4ec"
      },
      "additionalContracts": [],
      "isFixedGasLimit": false
    },
    {
      "hash": "0x7173c9a5913509f1b96a84cd48c40a7d6849dfca4c936065e57700bf6cd28a28",
      "transactionType": "CALL",
      "contractName": null,
      "contractAddress": "0x34a99057232cc4a7eb21398fd0052474f4b5bcc5",
      "function": "createContractor(string,uint256,uint256,string,string,string)",
      "arguments": [
        "Company 2",
        "10002",
        "20002",
        "Address 2",
        "QmHash1",
        "QmHash2"
      ],
      "transaction": {
        "from": "0x86e74256bec87d5f542bc9214b708a9de78e3998",
        "to": "0x34a99057232cc4a7eb21398fd0052474f4b5bcc5",
        "gas": "0x409c7",
        "value": "0x0",
        "input": "0x807c032800000000000000000000000000000000000000000000000000000000000000c000000000000000000000000000000000000000000000000000000000000027120000000000000000000000000000000000000000000000000000000000004e220000000000000000000000000000000000000000000000000000000000000100000000000000000000000000000000000000000000000000000000000000014000000000000000000000000000000000000000000000000000000000000001800000000000000000000000000000000000000000000000000000000000000009436f6d70616e7920320000000000000000000000000000000000000000000000000000000000000000000000000000000000000000000000000000000000000941646472657373203200000000000000000000000000000000000000000000000000000000000000000000000000000000000000000000000000000000000007516d4861736831000000000000000000000000000000000000000000000000000000000000000000000000000000000000000000000000000000000000000007516d486173683200000000000000000000000000000000000000000000000000",
        "nonce": "0xae",
        "chainId": "0xa4ec"
      },
      "additionalContracts": [],
      "isFixedGasLimit": false
    },
    {
      "hash": "0x6b0b8eb803a9a6b40bbebd426436ca3984de01ffa96514c6d6fa46df26214461",
      "transactionType": "CALL",
      "contractName": null,
      "contractAddress": "0x34a99057232cc4a7eb21398fd0052474f4b5bcc5",
      "function": "createContractor(string,uint256,uint256,string,string,string)",
      "arguments": [
        "Company 3",
        "10003",
        "20003",
        "Address 3",
        "QmHash1",
        "QmHash2"
      ],
      "transaction": {
        "from": "0x86e74256bec87d5f542bc9214b708a9de78e3998",
        "to": "0x34a99057232cc4a7eb21398fd0052474f4b5bcc5",
        "gas": "0x409c7",
        "value": "0x0",
        "input": "0x807c032800000000000000000000000000000000000000000000000000000000000000c000000000000000000000000000000000000000000000000000000000000027130000000000000000000000000000000000000000000000000000000000004e230000000000000000000000000000000000000000000000000000000000000100000000000000000000000000000000000000000000000000000000000000014000000000000000000000000000000000000000000000000000000000000001800000000000000000000000000000000000000000000000000000000000000009436f6d70616e7920330000000000000000000000000000000000000000000000000000000000000000000000000000000000000000000000000000000000000941646472657373203300000000000000000000000000000000000000000000000000000000000000000000000000000000000000000000000000000000000007516d4861736831000000000000000000000000000000000000000000000000000000000000000000000000000000000000000000000000000000000000000007516d486173683200000000000000000000000000000000000000000000000000",
        "nonce": "0xaf",
        "chainId": "0xa4ec"
      },
      "additionalContracts": [],
      "isFixedGasLimit": false
    },
    {
      "hash": "0x2471b38ed88d3218a4c1d04b135e9fd56bc3ae2d325e4bc5db4c94d4248d6cf1",
      "transactionType": "CALL",
      "contractName": null,
      "contractAddress": "0x34a99057232cc4a7eb21398fd0052474f4b5bcc5",
      "function": "createContractor(string,uint256,uint256,string,string,string)",
      "arguments": [
        "Company 4",
        "10004",
        "20004",
        "Address 4",
        "QmHash1",
        "QmHash2"
      ],
      "transaction": {
        "from": "0x86e74256bec87d5f542bc9214b708a9de78e3998",
        "to": "0x34a99057232cc4a7eb21398fd0052474f4b5bcc5",
        "gas": "0x409c7",
        "value": "0x0",
        "input": "0x807c032800000000000000000000000000000000000000000000000000000000000000c000000000000000000000000000000000000000000000000000000000000027140000000000000000000000000000000000000000000000000000000000004e240000000000000000000000000000000000000000000000000000000000000100000000000000000000000000000000000000000000000000000000000000014000000000000000000000000000000000000000000000000000000000000001800000000000000000000000000000000000000000000000000000000000000009436f6d70616e7920340000000000000000000000000000000000000000000000000000000000000000000000000000000000000000000000000000000000000941646472657373203400000000000000000000000000000000000000000000000000000000000000000000000000000000000000000000000000000000000007516d4861736831000000000000000000000000000000000000000000000000000000000000000000000000000000000000000000000000000000000000000007516d486173683200000000000000000000000000000000000000000000000000",
        "nonce": "0xb0",
        "chainId": "0xa4ec"
      },
      "additionalContracts": [],
      "isFixedGasLimit": false
    },
    {
      "hash": "0x1f266d841fb4135021f530ea14383629108aaf025fff7cae025327548992ab77",
      "transactionType": "CALL",
      "contractName": null,
      "contractAddress": "0x34a99057232cc4a7eb21398fd0052474f4b5bcc5",
      "function": "createContractor(string,uint256,uint256,string,string,string)",
      "arguments": [
        "Company 5",
        "10005",
        "20005",
        "Address 5",
        "QmHash1",
        "QmHash2"
      ],
      "transaction": {
        "from": "0x86e74256bec87d5f542bc9214b708a9de78e3998",
        "to": "0x34a99057232cc4a7eb21398fd0052474f4b5bcc5",
        "gas": "0x409c7",
        "value": "0x0",
        "input": "0x807c032800000000000000000000000000000000000000000000000000000000000000c000000000000000000000000000000000000000000000000000000000000027150000000000000000000000000000000000000000000000000000000000004e250000000000000000000000000000000000000000000000000000000000000100000000000000000000000000000000000000000000000000000000000000014000000000000000000000000000000000000000000000000000000000000001800000000000000000000000000000000000000000000000000000000000000009436f6d70616e7920350000000000000000000000000000000000000000000000000000000000000000000000000000000000000000000000000000000000000941646472657373203500000000000000000000000000000000000000000000000000000000000000000000000000000000000000000000000000000000000007516d4861736831000000000000000000000000000000000000000000000000000000000000000000000000000000000000000000000000000000000000000007516d486173683200000000000000000000000000000000000000000000000000",
        "nonce": "0xb1",
        "chainId": "0xa4ec"
      },
      "additionalContracts": [],
      "isFixedGasLimit": false
    },
    {
      "hash": "0xbaec43c6a0482c1fee1f1572e85a72636df69c0f04e58c059dd95cf699f27b3f",
      "transactionType": "CALL",
      "contractName": null,
      "contractAddress": "0x34a99057232cc4a7eb21398fd0052474f4b5bcc5",
      "function": "createContractor(string,uint256,uint256,string,string,string)",
      "arguments": [
        "Company 6",
        "10006",
        "20006",
        "Address 6",
        "QmHash1",
        "QmHash2"
      ],
      "transaction": {
        "from": "0x86e74256bec87d5f542bc9214b708a9de78e3998",
        "to": "0x34a99057232cc4a7eb21398fd0052474f4b5bcc5",
        "gas": "0x409c7",
        "value": "0x0",
        "input": "0x807c032800000000000000000000000000000000000000000000000000000000000000c000000000000000000000000000000000000000000000000000000000000027160000000000000000000000000000000000000000000000000000000000004e260000000000000000000000000000000000000000000000000000000000000100000000000000000000000000000000000000000000000000000000000000014000000000000000000000000000000000000000000000000000000000000001800000000000000000000000000000000000000000000000000000000000000009436f6d70616e7920360000000000000000000000000000000000000000000000000000000000000000000000000000000000000000000000000000000000000941646472657373203600000000000000000000000000000000000000000000000000000000000000000000000000000000000000000000000000000000000007516d4861736831000000000000000000000000000000000000000000000000000000000000000000000000000000000000000000000000000000000000000007516d486173683200000000000000000000000000000000000000000000000000",
        "nonce": "0xb2",
        "chainId": "0xa4ec"
      },
      "additionalContracts": [],
      "isFixedGasLimit": false
    },
    {
      "hash": "0x32632c32b725dd089f0ef46ac986d2528fbe7f37164e7c848be1048f1a64fda3",
      "transactionType": "CALL",
      "contractName": null,
      "contractAddress": "0x34a99057232cc4a7eb21398fd0052474f4b5bcc5",
      "function": "createContractor(string,uint256,uint256,string,string,string)",
      "arguments": [
        "Company 7",
        "10007",
        "20007",
        "Address 7",
        "QmHash1",
        "QmHash2"
      ],
      "transaction": {
        "from": "0x86e74256bec87d5f542bc9214b708a9de78e3998",
        "to": "0x34a99057232cc4a7eb21398fd0052474f4b5bcc5",
        "gas": "0x409c7",
        "value": "0x0",
        "input": "0x807c032800000000000000000000000000000000000000000000000000000000000000c000000000000000000000000000000000000000000000000000000000000027170000000000000000000000000000000000000000000000000000000000004e270000000000000000000000000000000000000000000000000000000000000100000000000000000000000000000000000000000000000000000000000000014000000000000000000000000000000000000000000000000000000000000001800000000000000000000000000000000000000000000000000000000000000009436f6d70616e7920370000000000000000000000000000000000000000000000000000000000000000000000000000000000000000000000000000000000000941646472657373203700000000000000000000000000000000000000000000000000000000000000000000000000000000000000000000000000000000000007516d4861736831000000000000000000000000000000000000000000000000000000000000000000000000000000000000000000000000000000000000000007516d486173683200000000000000000000000000000000000000000000000000",
        "nonce": "0xb3",
        "chainId": "0xa4ec"
      },
      "additionalContracts": [],
      "isFixedGasLimit": false
    },
    {
      "hash": "0x109c534fa50178cd3d19d2cc14c25402bdc0cb9864b37b38858a8e08d82d3c40",
      "transactionType": "CALL",
      "contractName": null,
      "contractAddress": "0x34a99057232cc4a7eb21398fd0052474f4b5bcc5",
      "function": "createContractor(string,uint256,uint256,string,string,string)",
      "arguments": [
        "Company 8",
        "10008",
        "20008",
        "Address 8",
        "QmHash1",
        "QmHash2"
      ],
      "transaction": {
        "from": "0x86e74256bec87d5f542bc9214b708a9de78e3998",
        "to": "0x34a99057232cc4a7eb21398fd0052474f4b5bcc5",
        "gas": "0x409c7",
        "value": "0x0",
        "input": "0x807c032800000000000000000000000000000000000000000000000000000000000000c000000000000000000000000000000000000000000000000000000000000027180000000000000000000000000000000000000000000000000000000000004e280000000000000000000000000000000000000000000000000000000000000100000000000000000000000000000000000000000000000000000000000000014000000000000000000000000000000000000000000000000000000000000001800000000000000000000000000000000000000000000000000000000000000009436f6d70616e7920380000000000000000000000000000000000000000000000000000000000000000000000000000000000000000000000000000000000000941646472657373203800000000000000000000000000000000000000000000000000000000000000000000000000000000000000000000000000000000000007516d4861736831000000000000000000000000000000000000000000000000000000000000000000000000000000000000000000000000000000000000000007516d486173683200000000000000000000000000000000000000000000000000",
        "nonce": "0xb4",
        "chainId": "0xa4ec"
      },
      "additionalContracts": [],
      "isFixedGasLimit": false
    },
    {
      "hash": "0x019bcbae38a394e0a0b7e4ee2a6d025266fafa44b91474e9c24cc79f6eec1f18",
      "transactionType": "CALL",
      "contractName": null,
      "contractAddress": "0x34a99057232cc4a7eb21398fd0052474f4b5bcc5",
      "function": "createContractor(string,uint256,uint256,string,string,string)",
      "arguments": [
        "Company 9",
        "10009",
        "20009",
        "Address 9",
        "QmHash1",
        "QmHash2"
      ],
      "transaction": {
        "from": "0x86e74256bec87d5f542bc9214b708a9de78e3998",
        "to": "0x34a99057232cc4a7eb21398fd0052474f4b5bcc5",
        "gas": "0x409c7",
        "value": "0x0",
        "input": "0x807c032800000000000000000000000000000000000000000000000000000000000000c000000000000000000000000000000000000000000000000000000000000027190000000000000000000000000000000000000000000000000000000000004e290000000000000000000000000000000000000000000000000000000000000100000000000000000000000000000000000000000000000000000000000000014000000000000000000000000000000000000000000000000000000000000001800000000000000000000000000000000000000000000000000000000000000009436f6d70616e7920390000000000000000000000000000000000000000000000000000000000000000000000000000000000000000000000000000000000000941646472657373203900000000000000000000000000000000000000000000000000000000000000000000000000000000000000000000000000000000000007516d4861736831000000000000000000000000000000000000000000000000000000000000000000000000000000000000000000000000000000000000000007516d486173683200000000000000000000000000000000000000000000000000",
        "nonce": "0xb5",
        "chainId": "0xa4ec"
      },
      "additionalContracts": [],
      "isFixedGasLimit": false
    },
    {
      "hash": "0x964b01c43959912a6a2c48e495ab24b69fce645f63b6c0b036c4890bd703baa3",
      "transactionType": "CALL",
      "contractName": null,
      "contractAddress": "0x34a99057232cc4a7eb21398fd0052474f4b5bcc5",
      "function": "createContractor(string,uint256,uint256,string,string,string)",
      "arguments": [
        "Company 10",
        "10010",
        "20010",
        "Address 10",
        "QmHash1",
        "QmHash2"
      ],
      "transaction": {
        "from": "0x86e74256bec87d5f542bc9214b708a9de78e3998",
        "to": "0x34a99057232cc4a7eb21398fd0052474f4b5bcc5",
        "gas": "0x409e8",
        "value": "0x0",
        "input": "0x807c032800000000000000000000000000000000000000000000000000000000000000c0000000000000000000000000000000000000000000000000000000000000271a0000000000000000000000000000000000000000000000000000000000004e2a000000000000000000000000000000000000000000000000000000000000010000000000000000000000000000000000000000000000000000000000000001400000000000000000000000000000000000000000000000000000000000000180000000000000000000000000000000000000000000000000000000000000000a436f6d70616e7920313000000000000000000000000000000000000000000000000000000000000000000000000000000000000000000000000000000000000a41646472657373203130000000000000000000000000000000000000000000000000000000000000000000000000000000000000000000000000000000000007516d4861736831000000000000000000000000000000000000000000000000000000000000000000000000000000000000000000000000000000000000000007516d486173683200000000000000000000000000000000000000000000000000",
        "nonce": "0xb6",
        "chainId": "0xa4ec"
      },
      "additionalContracts": [],
      "isFixedGasLimit": false
    },
    {
      "hash": "0xd476c1fe0973be5126081d60e85d128770c192c2a7d9d28b3ba74cbaa8129866",
      "transactionType": "CALL",
      "contractName": null,
      "contractAddress": "0x34a99057232cc4a7eb21398fd0052474f4b5bcc5",
      "function": "SubmitProject(uint256,string,string)",
      "arguments": [
        "1",
        "Submitted 1",
        "QmHash"
      ],
      "transaction": {
        "from": "0x86e74256bec87d5f542bc9214b708a9de78e3998",
        "to": "0x34a99057232cc4a7eb21398fd0052474f4b5bcc5",
        "gas": "0x1c0c6",
        "value": "0x0",
        "input": "0xe7c701510000000000000000000000000000000000000000000000000000000000000001000000000000000000000000000000000000000000000000000000000000006000000000000000000000000000000000000000000000000000000000000000a0000000000000000000000000000000000000000000000000000000000000000b5375626d697474656420310000000000000000000000000000000000000000000000000000000000000000000000000000000000000000000000000000000006516d486173680000000000000000000000000000000000000000000000000000",
        "nonce": "0xb7",
        "chainId": "0xa4ec"
      },
      "additionalContracts": [],
      "isFixedGasLimit": false
    },
    {
      "hash": "0x5d2b5b40cabd85b873285ba579cbbf28d311907466ca1cbd9f089e726c437da6",
      "transactionType": "CALL",
      "contractName": null,
      "contractAddress": "0x34a99057232cc4a7eb21398fd0052474f4b5bcc5",
      "function": "SubmitProject(uint256,string,string)",
      "arguments": [
        "2",
        "Submitted 2",
        "QmHash"
      ],
      "transaction": {
        "from": "0x86e74256bec87d5f542bc9214b708a9de78e3998",
        "to": "0x34a99057232cc4a7eb21398fd0052474f4b5bcc5",
        "gas": "0x14b93",
        "value": "0x0",
        "input": "0xe7c701510000000000000000000000000000000000000000000000000000000000000002000000000000000000000000000000000000000000000000000000000000006000000000000000000000000000000000000000000000000000000000000000a0000000000000000000000000000000000000000000000000000000000000000b5375626d697474656420320000000000000000000000000000000000000000000000000000000000000000000000000000000000000000000000000000000006516d486173680000000000000000000000000000000000000000000000000000",
        "nonce": "0xb8",
        "chainId": "0xa4ec"
      },
      "additionalContracts": [],
      "isFixedGasLimit": false
    },
    {
      "hash": "0x7a1b4f56bdb5ac8ee65feea412228a9a4f8e3222c0598631d9e66baade022cad",
      "transactionType": "CALL",
      "contractName": null,
      "contractAddress": "0x34a99057232cc4a7eb21398fd0052474f4b5bcc5",
      "function": "SubmitProject(uint256,string,string)",
      "arguments": [
        "3",
        "Submitted 3",
        "QmHash"
      ],
      "transaction": {
        "from": "0x86e74256bec87d5f542bc9214b708a9de78e3998",
        "to": "0x34a99057232cc4a7eb21398fd0052474f4b5bcc5",
        "gas": "0x14b93",
        "value": "0x0",
        "input": "0xe7c701510000000000000000000000000000000000000000000000000000000000000003000000000000000000000000000000000000000000000000000000000000006000000000000000000000000000000000000000000000000000000000000000a0000000000000000000000000000000000000000000000000000000000000000b5375626d697474656420330000000000000000000000000000000000000000000000000000000000000000000000000000000000000000000000000000000006516d486173680000000000000000000000000000000000000000000000000000",
        "nonce": "0xb9",
        "chainId": "0xa4ec"
      },
      "additionalContracts": [],
      "isFixedGasLimit": false
    },
    {
      "hash": "0x2619f01b0fc6adfedcd7895f2f7e58402d1bed2dc8e5c00f3723df5eee6aaf83",
      "transactionType": "CALL",
      "contractName": null,
      "contractAddress": "0x34a99057232cc4a7eb21398fd0052474f4b5bcc5",
      "function": "SubmitProject(uint256,string,string)",
      "arguments": [
        "4",
        "Submitted 4",
        "QmHash"
      ],
      "transaction": {
        "from": "0x86e74256bec87d5f542bc9214b708a9de78e3998",
        "to": "0x34a99057232cc4a7eb21398fd0052474f4b5bcc5",
        "gas": "0x14b93",
        "value": "0x0",
        "input": "0xe7c701510000000000000000000000000000000000000000000000000000000000000004000000000000000000000000000000000000000000000000000000000000006000000000000000000000000000000000000000000000000000000000000000a0000000000000000000000000000000000000000000000000000000000000000b5375626d697474656420340000000000000000000000000000000000000000000000000000000000000000000000000000000000000000000000000000000006516d486173680000000000000000000000000000000000000000000000000000",
        "nonce": "0xba",
        "chainId": "0xa4ec"
      },
      "additionalContracts": [],
      "isFixedGasLimit": false
    },
    {
      "hash": "0x08ca83f2c3bf0cd826ba0ec01038f7e065cd090810575a2defb961c1f1f759db",
      "transactionType": "CALL",
      "contractName": null,
      "contractAddress": "0x34a99057232cc4a7eb21398fd0052474f4b5bcc5",
      "function": "SubmitProject(uint256,string,string)",
      "arguments": [
        "5",
        "Submitted 5",
        "QmHash"
      ],
      "transaction": {
        "from": "0x86e74256bec87d5f542bc9214b708a9de78e3998",
        "to": "0x34a99057232cc4a7eb21398fd0052474f4b5bcc5",
        "gas": "0x14b93",
        "value": "0x0",
        "input": "0xe7c701510000000000000000000000000000000000000000000000000000000000000005000000000000000000000000000000000000000000000000000000000000006000000000000000000000000000000000000000000000000000000000000000a0000000000000000000000000000000000000000000000000000000000000000b5375626d697474656420350000000000000000000000000000000000000000000000000000000000000000000000000000000000000000000000000000000006516d486173680000000000000000000000000000000000000000000000000000",
        "nonce": "0xbb",
        "chainId": "0xa4ec"
      },
      "additionalContracts": [],
      "isFixedGasLimit": false
    },
    {
      "hash": "0xd31891c3ebf56837df3bd8751f950149a1fd1cd308780c42ba167c92cf73a9f6",
      "transactionType": "CALL",
      "contractName": null,
      "contractAddress": "0x34a99057232cc4a7eb21398fd0052474f4b5bcc5",
      "function": "SubmitProject(uint256,string,string)",
      "arguments": [
        "6",
        "Submitted 6",
        "QmHash"
      ],
      "transaction": {
        "from": "0x86e74256bec87d5f542bc9214b708a9de78e3998",
        "to": "0x34a99057232cc4a7eb21398fd0052474f4b5bcc5",
        "gas": "0x14b93",
        "value": "0x0",
        "input": "0xe7c701510000000000000000000000000000000000000000000000000000000000000006000000000000000000000000000000000000000000000000000000000000006000000000000000000000000000000000000000000000000000000000000000a0000000000000000000000000000000000000000000000000000000000000000b5375626d697474656420360000000000000000000000000000000000000000000000000000000000000000000000000000000000000000000000000000000006516d486173680000000000000000000000000000000000000000000000000000",
        "nonce": "0xbc",
        "chainId": "0xa4ec"
      },
      "additionalContracts": [],
      "isFixedGasLimit": false
    },
    {
      "hash": "0x65c5667184436e62a9ffd37c11cd3789a1f1dcedb0e0a2586aa08418104834f9",
      "transactionType": "CALL",
      "contractName": null,
      "contractAddress": "0x34a99057232cc4a7eb21398fd0052474f4b5bcc5",
      "function": "SubmitProject(uint256,string,string)",
      "arguments": [
        "7",
        "Submitted 7",
        "QmHash"
      ],
      "transaction": {
        "from": "0x86e74256bec87d5f542bc9214b708a9de78e3998",
        "to": "0x34a99057232cc4a7eb21398fd0052474f4b5bcc5",
        "gas": "0x14b93",
        "value": "0x0",
        "input": "0xe7c701510000000000000000000000000000000000000000000000000000000000000007000000000000000000000000000000000000000000000000000000000000006000000000000000000000000000000000000000000000000000000000000000a0000000000000000000000000000000000000000000000000000000000000000b5375626d697474656420370000000000000000000000000000000000000000000000000000000000000000000000000000000000000000000000000000000006516d486173680000000000000000000000000000000000000000000000000000",
        "nonce": "0xbd",
        "chainId": "0xa4ec"
      },
      "additionalContracts": [],
      "isFixedGasLimit": false
    },
    {
      "hash": "0x0812bece133d3a18f0b79a3d8530d0c03c5f79b6b954ba0136c1dc583dbfca0b",
      "transactionType": "CALL",
      "contractName": null,
      "contractAddress": "0x34a99057232cc4a7eb21398fd0052474f4b5bcc5",
      "function": "SubmitProject(uint256,string,string)",
      "arguments": [
        "8",
        "Submitted 8",
        "QmHash"
      ],
      "transaction": {
        "from": "0x86e74256bec87d5f542bc9214b708a9de78e3998",
        "to": "0x34a99057232cc4a7eb21398fd0052474f4b5bcc5",
        "gas": "0x14b93",
        "value": "0x0",
        "input": "0xe7c701510000000000000000000000000000000000000000000000000000000000000008000000000000000000000000000000000000000000000000000000000000006000000000000000000000000000000000000000000000000000000000000000a0000000000000000000000000000000000000000000000000000000000000000b5375626d697474656420380000000000000000000000000000000000000000000000000000000000000000000000000000000000000000000000000000000006516d486173680000000000000000000000000000000000000000000000000000",
        "nonce": "0xbe",
        "chainId": "0xa4ec"
      },
      "additionalContracts": [],
      "isFixedGasLimit": false
    },
    {
      "hash": "0xcf20c8cfafc2bbd8f21bf7f2c29bb9f2811d53711c755cec15ee4043b26385b0",
      "transactionType": "CALL",
      "contractName": null,
      "contractAddress": "0x34a99057232cc4a7eb21398fd0052474f4b5bcc5",
      "function": "SubmitProject(uint256,string,string)",
      "arguments": [
        "9",
        "Submitted 9",
        "QmHash"
      ],
      "transaction": {
        "from": "0x86e74256bec87d5f542bc9214b708a9de78e3998",
        "to": "0x34a99057232cc4a7eb21398fd0052474f4b5bcc5",
        "gas": "0x14b93",
        "value": "0x0",
        "input": "0xe7c701510000000000000000000000000000000000000000000000000000000000000009000000000000000000000000000000000000000000000000000000000000006000000000000000000000000000000000000000000000000000000000000000a0000000000000000000000000000000000000000000000000000000000000000b5375626d697474656420390000000000000000000000000000000000000000000000000000000000000000000000000000000000000000000000000000000006516d486173680000000000000000000000000000000000000000000000000000",
        "nonce": "0xbf",
        "chainId": "0xa4ec"
      },
      "additionalContracts": [],
      "isFixedGasLimit": false
    },
    {
      "hash": "0x496cb02fa4e8cee1ab78e7fb0e4b2c8efa6d9b35c5f4bae8f4b4db244f23bdaa",
      "transactionType": "CALL",
      "contractName": null,
      "contractAddress": "0x34a99057232cc4a7eb21398fd0052474f4b5bcc5",
      "function": "SubmitProject(uint256,string,string)",
      "arguments": [
        "10",
        "Submitted 10",
        "QmHash"
      ],
      "transaction": {
        "from": "0x86e74256bec87d5f542bc9214b708a9de78e3998",
        "to": "0x34a99057232cc4a7eb21398fd0052474f4b5bcc5",
        "gas": "0x15f27",
        "value": "0x0",
        "input": "0xe7c70151000000000000000000000000000000000000000000000000000000000000000a000000000000000000000000000000000000000000000000000000000000006000000000000000000000000000000000000000000000000000000000000000a0000000000000000000000000000000000000000000000000000000000000000c5375626d697474656420313000000000000000000000000000000000000000000000000000000000000000000000000000000000000000000000000000000006516d486173680000000000000000000000000000000000000000000000000000",
        "nonce": "0xc0",
        "chainId": "0xa4ec"
      },
      "additionalContracts": [],
      "isFixedGasLimit": false
    }
  ],
  "receipts": [
    {
      "status": "0x1",
      "cumulativeGasUsed": "0x2ab303",
      "logs": [
        {
          "address": "0x34a99057232cc4a7eb21398fd0052474f4b5bcc5",
          "topics": [
            "0x1a2329f37ef34ee1917f3b35f441382c68224401dd616d88ff4e8938f2b1dd3d"
          ],
          "data": "0x000000000000000000000000000000000000000000000000000000000000006000000000000000000000000086e74256bec87d5f542bc9214b708a9de78e399800000000000000000000000000000000000000000000000000000000000027110000000000000000000000000000000000000000000000000000000000000009436f6d70616e7920310000000000000000000000000000000000000000000000",
          "blockHash": "0x06e77b0d75d77c141b03a0b013933237586b8a8eb4c5c993e3f286fe0136c52f",
          "blockNumber": "0x32828b5",
          "transactionHash": "0x0ec0cd3f91540cfcb55c0b577233b96c660d95dc6ccb146454c0037656dc6a8f",
          "transactionIndex": "0xe",
          "logIndex": "0xe1",
          "removed": false
        }
      ],
      "logsBloom": "0x00000000000000404000000000000000000000000000000000000000000000000000000000000000000000000000000000000000000000000000000000000000000000000000000000000000000000000000000000000000000000000000000000000000000000000000000000000000000000000000000000000000000000000000000000000000000000000000000000000000000000000000000000000000000000000000010000000000000000000000000000000000000000000000000001000000000000000000020000000000000000000000000000000000000000004000000000000000000000000000000000000000000000000000000000000000",
      "type": "0x0",
      "transactionHash": "0x0ec0cd3f91540cfcb55c0b577233b96c660d95dc6ccb146454c0037656dc6a8f",
      "transactionIndex": "0xe",
      "blockHash": "0x06e77b0d75d77c141b03a0b013933237586b8a8eb4c5c993e3f286fe0136c52f",
      "blockNumber": "0x32828b5",
      "gasUsed": "0x2ec70",
      "effectiveGasPrice": "0x5d22cfc40",
      "from": "0x86e74256bec87d5f542bc9214b708a9de78e3998",
      "to": "0x34a99057232cc4a7eb21398fd0052474f4b5bcc5",
      "contractAddress": null,
      "l1BaseFeeScalar": "0x0",
      "l1BlobBaseFee": "0xe388197",
      "l1BlobBaseFeeScalar": "0x0",
      "l1Fee": "0x0",
      "l1GasPrice": "0x3b5048a",
      "l1GasUsed": "0x85e"
    },
    {
      "status": "0x1",
      "cumulativeGasUsed": "0x2e059b",
      "logs": [
        {
          "address": "0x34a99057232cc4a7eb21398fd0052474f4b5bcc5",
          "topics": [
            "0x1a2329f37ef34ee1917f3b35f441382c68224401dd616d88ff4e8938f2b1dd3d"
          ],
          "data": "0x000000000000000000000000000000000000000000000000000000000000006000000000000000000000000086e74256bec87d5f542bc9214b708a9de78e399800000000000000000000000000000000000000000000000000000000000027120000000000000000000000000000000000000000000000000000000000000009436f6d70616e7920320000000000000000000000000000000000000000000000",
          "blockHash": "0x78ffb379893a351456a011e44efab99283990686cfb7d5323738d7e5f974c905",
          "blockNumber": "0x32828b6",
          "transactionHash": "0x7173c9a5913509f1b96a84cd48c40a7d6849dfca4c936065e57700bf6cd28a28",
          "transactionIndex": "0x17",
          "logIndex": "0x3f",
          "removed": false
        }
      ],
      "logsBloom": "0x00000000000000404000000000000000000000000000000000000000000000000000000000000000000000000000000000000000000000000000000000000000000000000000000000000000000000000000000000000000000000000000000000000000000000000000000000000000000000000000000000000000000000000000000000000000000000000000000000000000000000000000000000000000000000000000010000000000000000000000000000000000000000000000000001000000000000000000020000000000000000000000000000000000000000004000000000000000000000000000000000000000000000000000000000000000",
      "type": "0x0",
      "transactionHash": "0x7173c9a5913509f1b96a84cd48c40a7d6849dfca4c936065e57700bf6cd28a28",
      "transactionIndex": "0x17",
      "blockHash": "0x78ffb379893a351456a011e44efab99283990686cfb7d5323738d7e5f974c905",
      "blockNumber": "0x32828b6",
      "gasUsed": "0x2ec70",
      "effectiveGasPrice": "0x5d22cfc40",
      "from": "0x86e74256bec87d5f542bc9214b708a9de78e3998",
      "to": "0x34a99057232cc4a7eb21398fd0052474f4b5bcc5",
      "contractAddress": null,
      "l1BaseFeeScalar": "0x0",
      "l1BlobBaseFee": "0xe388197",
      "l1BlobBaseFeeScalar": "0x0",
      "l1Fee": "0x0",
      "l1GasPrice": "0x3b5048a",
      "l1GasUsed": "0x843"
    },
    {
      "status": "0x1",
      "cumulativeGasUsed": "0x30f20b",
      "logs": [
        {
          "address": "0x34a99057232cc4a7eb21398fd0052474f4b5bcc5",
          "topics": [
            "0x1a2329f37ef34ee1917f3b35f441382c68224401dd616d88ff4e8938f2b1dd3d"
          ],
          "data": "0x000000000000000000000000000000000000000000000000000000000000006000000000000000000000000086e74256bec87d5f542bc9214b708a9de78e399800000000000000000000000000000000000000000000000000000000000027130000000000000000000000000000000000000000000000000000000000000009436f6d70616e7920330000000000000000000000000000000000000000000000",
          "blockHash": "0x78ffb379893a351456a011e44efab99283990686cfb7d5323738d7e5f974c905",
          "blockNumber": "0x32828b6",
          "transactionHash": "0x6b0b8eb803a9a6b40bbebd426436ca3984de01ffa96514c6d6fa46df26214461",
          "transactionIndex": "0x18",
          "logIndex": "0x40",
          "removed": false
        }
      ],
      "logsBloom": "0x00000000000000404000000000000000000000000000000000000000000000000000000000000000000000000000000000000000000000000000000000000000000000000000000000000000000000000000000000000000000000000000000000000000000000000000000000000000000000000000000000000000000000000000000000000000000000000000000000000000000000000000000000000000000000000000010000000000000000000000000000000000000000000000000001000000000000000000020000000000000000000000000000000000000000004000000000000000000000000000000000000000000000000000000000000000",
      "type": "0x0",
      "transactionHash": "0x6b0b8eb803a9a6b40bbebd426436ca3984de01ffa96514c6d6fa46df26214461",
      "transactionIndex": "0x18",
      "blockHash": "0x78ffb379893a351456a011e44efab99283990686cfb7d5323738d7e5f974c905",
      "blockNumber": "0x32828b6",
      "gasUsed": "0x2ec70",
      "effectiveGasPrice": "0x5d22cfc40",
      "from": "0x86e74256bec87d5f542bc9214b708a9de78e3998",
      "to": "0x34a99057232cc4a7eb21398fd0052474f4b5bcc5",
      "contractAddress": null,
      "l1BaseFeeScalar": "0x0",
      "l1BlobBaseFee": "0xe388197",
      "l1BlobBaseFeeScalar": "0x0",
      "l1Fee": "0x0",
      "l1GasPrice": "0x3b5048a",
      "l1GasUsed": "0x879"
    },
    {
      "status": "0x1",
      "cumulativeGasUsed": "0x33de7b",
      "logs": [
        {
          "address": "0x34a99057232cc4a7eb21398fd0052474f4b5bcc5",
          "topics": [
            "0x1a2329f37ef34ee1917f3b35f441382c68224401dd616d88ff4e8938f2b1dd3d"
          ],
          "data": "0x000000000000000000000000000000000000000000000000000000000000006000000000000000000000000086e74256bec87d5f542bc9214b708a9de78e399800000000000000000000000000000000000000000000000000000000000027140000000000000000000000000000000000000000000000000000000000000009436f6d70616e7920340000000000000000000000000000000000000000000000",
          "blockHash": "0x78ffb379893a351456a011e44efab99283990686cfb7d5323738d7e5f974c905",
          "blockNumber": "0x32828b6",
          "transactionHash": "0x2471b38ed88d3218a4c1d04b135e9fd56bc3ae2d325e4bc5db4c94d4248d6cf1",
          "transactionIndex": "0x19",
          "logIndex": "0x41",
          "removed": false
        }
      ],
      "logsBloom": "0x00000000000000404000000000000000000000000000000000000000000000000000000000000000000000000000000000000000000000000000000000000000000000000000000000000000000000000000000000000000000000000000000000000000000000000000000000000000000000000000000000000000000000000000000000000000000000000000000000000000000000000000000000000000000000000000010000000000000000000000000000000000000000000000000001000000000000000000020000000000000000000000000000000000000000004000000000000000000000000000000000000000000000000000000000000000",
      "type": "0x0",
      "transactionHash": "0x2471b38ed88d3218a4c1d04b135e9fd56bc3ae2d325e4bc5db4c94d4248d6cf1",
      "transactionIndex": "0x19",
      "blockHash": "0x78ffb379893a351456a011e44efab99283990686cfb7d5323738d7e5f974c905",
      "blockNumber": "0x32828b6",
      "gasUsed": "0x2ec70",
      "effectiveGasPrice": "0x5d22cfc40",
      "from": "0x86e74256bec87d5f542bc9214b708a9de78e3998",
      "to": "0x34a99057232cc4a7eb21398fd0052474f4b5bcc5",
      "contractAddress": null,
      "l1BaseFeeScalar": "0x0",
      "l1BlobBaseFee": "0xe388197",
      "l1BlobBaseFeeScalar": "0x0",
      "l1Fee": "0x0",
      "l1GasPrice": "0x3b5048a",
      "l1GasUsed": "0x879"
    },
    {
      "status": "0x1",
      "cumulativeGasUsed": "0x36caeb",
      "logs": [
        {
          "address": "0x34a99057232cc4a7eb21398fd0052474f4b5bcc5",
          "topics": [
            "0x1a2329f37ef34ee1917f3b35f441382c68224401dd616d88ff4e8938f2b1dd3d"
          ],
          "data": "0x000000000000000000000000000000000000000000000000000000000000006000000000000000000000000086e74256bec87d5f542bc9214b708a9de78e399800000000000000000000000000000000000000000000000000000000000027150000000000000000000000000000000000000000000000000000000000000009436f6d70616e7920350000000000000000000000000000000000000000000000",
          "blockHash": "0x78ffb379893a351456a011e44efab99283990686cfb7d5323738d7e5f974c905",
          "blockNumber": "0x32828b6",
          "transactionHash": "0x1f266d841fb4135021f530ea14383629108aaf025fff7cae025327548992ab77",
          "transactionIndex": "0x1a",
          "logIndex": "0x42",
          "removed": false
        }
      ],
      "logsBloom": "0x00000000000000404000000000000000000000000000000000000000000000000000000000000000000000000000000000000000000000000000000000000000000000000000000000000000000000000000000000000000000000000000000000000000000000000000000000000000000000000000000000000000000000000000000000000000000000000000000000000000000000000000000000000000000000000000010000000000000000000000000000000000000000000000000001000000000000000000020000000000000000000000000000000000000000004000000000000000000000000000000000000000000000000000000000000000",
      "type": "0x0",
      "transactionHash": "0x1f266d841fb4135021f530ea14383629108aaf025fff7cae025327548992ab77",
      "transactionIndex": "0x1a",
      "blockHash": "0x78ffb379893a351456a011e44efab99283990686cfb7d5323738d7e5f974c905",
      "blockNumber": "0x32828b6",
      "gasUsed": "0x2ec70",
      "effectiveGasPrice": "0x5d22cfc40",
      "from": "0x86e74256bec87d5f542bc9214b708a9de78e3998",
      "to": "0x34a99057232cc4a7eb21398fd0052474f4b5bcc5",
      "contractAddress": null,
      "l1BaseFeeScalar": "0x0",
      "l1BlobBaseFee": "0xe388197",
      "l1BlobBaseFeeScalar": "0x0",
      "l1Fee": "0x0",
      "l1GasPrice": "0x3b5048a",
      "l1GasUsed": "0x879"
    },
    {
      "status": "0x1",
      "cumulativeGasUsed": "0x39b75b",
      "logs": [
        {
          "address": "0x34a99057232cc4a7eb21398fd0052474f4b5bcc5",
          "topics": [
            "0x1a2329f37ef34ee1917f3b35f441382c68224401dd616d88ff4e8938f2b1dd3d"
          ],
          "data": "0x000000000000000000000000000000000000000000000000000000000000006000000000000000000000000086e74256bec87d5f542bc9214b708a9de78e399800000000000000000000000000000000000000000000000000000000000027160000000000000000000000000000000000000000000000000000000000000009436f6d70616e7920360000000000000000000000000000000000000000000000",
          "blockHash": "0x78ffb379893a351456a011e44efab99283990686cfb7d5323738d7e5f974c905",
          "blockNumber": "0x32828b6",
          "transactionHash": "0xbaec43c6a0482c1fee1f1572e85a72636df69c0f04e58c059dd95cf699f27b3f",
          "transactionIndex": "0x1b",
          "logIndex": "0x43",
          "removed": false
        }
      ],
      "logsBloom": "0x00000000000000404000000000000000000000000000000000000000000000000000000000000000000000000000000000000000000000000000000000000000000000000000000000000000000000000000000000000000000000000000000000000000000000000000000000000000000000000000000000000000000000000000000000000000000000000000000000000000000000000000000000000000000000000000010000000000000000000000000000000000000000000000000001000000000000000000020000000000000000000000000000000000000000004000000000000000000000000000000000000000000000000000000000000000",
      "type": "0x0",
      "transactionHash": "0xbaec43c6a0482c1fee1f1572e85a72636df69c0f04e58c059dd95cf699f27b3f",
      "transactionIndex": "0x1b",
      "blockHash": "0x78ffb379893a351456a011e44efab99283990686cfb7d5323738d7e5f974c905",
      "blockNumber": "0x32828b6",
      "gasUsed": "0x2ec70",
      "effectiveGasPrice": "0x5d22cfc40",
      "from": "0x86e74256bec87d5f542bc9214b708a9de78e3998",
      "to": "0x34a99057232cc4a7eb21398fd0052474f4b5bcc5",
      "contractAddress": null,
      "l1BaseFeeScalar": "0x0",
      "l1BlobBaseFee": "0xe388197",
      "l1BlobBaseFeeScalar": "0x0",
      "l1Fee": "0x0",
      "l1GasPrice": "0x3b5048a",
      "l1GasUsed": "0x879"
    },
    {
      "status": "0x1",
      "cumulativeGasUsed": "0x3ca3cb",
      "logs": [
        {
          "address": "0x34a99057232cc4a7eb21398fd0052474f4b5bcc5",
          "topics": [
            "0x1a2329f37ef34ee1917f3b35f441382c68224401dd616d88ff4e8938f2b1dd3d"
          ],
          "data": "0x000000000000000000000000000000000000000000000000000000000000006000000000000000000000000086e74256bec87d5f542bc9214b708a9de78e399800000000000000000000000000000000000000000000000000000000000027170000000000000000000000000000000000000000000000000000000000000009436f6d70616e7920370000000000000000000000000000000000000000000000",
          "blockHash": "0x78ffb379893a351456a011e44efab99283990686cfb7d5323738d7e5f974c905",
          "blockNumber": "0x32828b6",
          "transactionHash": "0x32632c32b725dd089f0ef46ac986d2528fbe7f37164e7c848be1048f1a64fda3",
          "transactionIndex": "0x1c",
          "logIndex": "0x44",
          "removed": false
        }
      ],
      "logsBloom": "0x00000000000000404000000000000000000000000000000000000000000000000000000000000000000000000000000000000000000000000000000000000000000000000000000000000000000000000000000000000000000000000000000000000000000000000000000000000000000000000000000000000000000000000000000000000000000000000000000000000000000000000000000000000000000000000000010000000000000000000000000000000000000000000000000001000000000000000000020000000000000000000000000000000000000000004000000000000000000000000000000000000000000000000000000000000000",
      "type": "0x0",
      "transactionHash": "0x32632c32b725dd089f0ef46ac986d2528fbe7f37164e7c848be1048f1a64fda3",
      "transactionIndex": "0x1c",
      "blockHash": "0x78ffb379893a351456a011e44efab99283990686cfb7d5323738d7e5f974c905",
      "blockNumber": "0x32828b6",
      "gasUsed": "0x2ec70",
      "effectiveGasPrice": "0x5d22cfc40",
      "from": "0x86e74256bec87d5f542bc9214b708a9de78e3998",
      "to": "0x34a99057232cc4a7eb21398fd0052474f4b5bcc5",
      "contractAddress": null,
      "l1BaseFeeScalar": "0x0",
      "l1BlobBaseFee": "0xe388197",
      "l1BlobBaseFeeScalar": "0x0",
      "l1Fee": "0x0",
      "l1GasPrice": "0x3b5048a",
      "l1GasUsed": "0x879"
    },
    {
      "status": "0x1",
      "cumulativeGasUsed": "0x3f903b",
      "logs": [
        {
          "address": "0x34a99057232cc4a7eb21398fd0052474f4b5bcc5",
          "topics": [
            "0x1a2329f37ef34ee1917f3b35f441382c68224401dd616d88ff4e8938f2b1dd3d"
          ],
          "data": "0x000000000000000000000000000000000000000000000000000000000000006000000000000000000000000086e74256bec87d5f542bc9214b708a9de78e399800000000000000000000000000000000000000000000000000000000000027180000000000000000000000000000000000000000000000000000000000000009436f6d70616e7920380000000000000000000000000000000000000000000000",
          "blockHash": "0x78ffb379893a351456a011e44efab99283990686cfb7d5323738d7e5f974c905",
          "blockNumber": "0x32828b6",
          "transactionHash": "0x109c534fa50178cd3d19d2cc14c25402bdc0cb9864b37b38858a8e08d82d3c40",
          "transactionIndex": "0x1d",
          "logIndex": "0x45",
          "removed": false
        }
      ],
      "logsBloom": "0x00000000000000404000000000000000000000000000000000000000000000000000000000000000000000000000000000000000000000000000000000000000000000000000000000000000000000000000000000000000000000000000000000000000000000000000000000000000000000000000000000000000000000000000000000000000000000000000000000000000000000000000000000000000000000000000010000000000000000000000000000000000000000000000000001000000000000000000020000000000000000000000000000000000000000004000000000000000000000000000000000000000000000000000000000000000",
      "type": "0x0",
      "transactionHash": "0x109c534fa50178cd3d19d2cc14c25402bdc0cb9864b37b38858a8e08d82d3c40",
      "transactionIndex": "0x1d",
      "blockHash": "0x78ffb379893a351456a011e44efab99283990686cfb7d5323738d7e5f974c905",
      "blockNumber": "0x32828b6",
      "gasUsed": "0x2ec70",
      "effectiveGasPrice": "0x5d22cfc40",
      "from": "0x86e74256bec87d5f542bc9214b708a9de78e3998",
      "to": "0x34a99057232cc4a7eb21398fd0052474f4b5bcc5",
      "contractAddress": null,
      "l1BaseFeeScalar": "0x0",
      "l1BlobBaseFee": "0xe388197",
      "l1BlobBaseFeeScalar": "0x0",
      "l1Fee": "0x0",
      "l1GasPrice": "0x3b5048a",
      "l1GasUsed": "0x86c"
    },
    {
      "status": "0x1",
      "cumulativeGasUsed": "0x427cab",
      "logs": [
        {
          "address": "0x34a99057232cc4a7eb21398fd0052474f4b5bcc5",
          "topics": [
            "0x1a2329f37ef34ee1917f3b35f441382c68224401dd616d88ff4e8938f2b1dd3d"
          ],
          "data": "0x000000000000000000000000000000000000000000000000000000000000006000000000000000000000000086e74256bec87d5f542bc9214b708a9de78e399800000000000000000000000000000000000000000000000000000000000027190000000000000000000000000000000000000000000000000000000000000009436f6d70616e7920390000000000000000000000000000000000000000000000",
          "blockHash": "0x78ffb379893a351456a011e44efab99283990686cfb7d5323738d7e5f974c905",
          "blockNumber": "0x32828b6",
          "transactionHash": "0x019bcbae38a394e0a0b7e4ee2a6d025266fafa44b91474e9c24cc79f6eec1f18",
          "transactionIndex": "0x1e",
          "logIndex": "0x46",
          "removed": false
        }
      ],
      "logsBloom": "0x00000000000000404000000000000000000000000000000000000000000000000000000000000000000000000000000000000000000000000000000000000000000000000000000000000000000000000000000000000000000000000000000000000000000000000000000000000000000000000000000000000000000000000000000000000000000000000000000000000000000000000000000000000000000000000000010000000000000000000000000000000000000000000000000001000000000000000000020000000000000000000000000000000000000000004000000000000000000000000000000000000000000000000000000000000000",
      "type": "0x0",
      "transactionHash": "0x019bcbae38a394e0a0b7e4ee2a6d025266fafa44b91474e9c24cc79f6eec1f18",
      "transactionIndex": "0x1e",
      "blockHash": "0x78ffb379893a351456a011e44efab99283990686cfb7d5323738d7e5f974c905",
      "blockNumber": "0x32828b6",
      "gasUsed": "0x2ec70",
      "effectiveGasPrice": "0x5d22cfc40",
      "from": "0x86e74256bec87d5f542bc9214b708a9de78e3998",
      "to": "0x34a99057232cc4a7eb21398fd0052474f4b5bcc5",
      "contractAddress": null,
      "l1BaseFeeScalar": "0x0",
      "l1BlobBaseFee": "0xe388197",
      "l1BlobBaseFeeScalar": "0x0",
      "l1Fee": "0x0",
      "l1GasPrice": "0x3b5048a",
      "l1GasUsed": "0x879"
    },
    {
      "status": "0x1",
      "cumulativeGasUsed": "0x4c03c2",
      "logs": [
        {
          "address": "0x34a99057232cc4a7eb21398fd0052474f4b5bcc5",
          "topics": [
            "0x1a2329f37ef34ee1917f3b35f441382c68224401dd616d88ff4e8938f2b1dd3d"
          ],
          "data": "0x000000000000000000000000000000000000000000000000000000000000006000000000000000000000000086e74256bec87d5f542bc9214b708a9de78e3998000000000000000000000000000000000000000000000000000000000000271a000000000000000000000000000000000000000000000000000000000000000a436f6d70616e7920313000000000000000000000000000000000000000000000",
          "blockHash": "0xa0f06988a015d458792d9e726dafe1c7b71315ebcf4946cbdc96f8ddb507bb0a",
          "blockNumber": "0x32828b7",
          "transactionHash": "0x964b01c43959912a6a2c48e495ab24b69fce645f63b6c0b036c4890bd703baa3",
          "transactionIndex": "0x1d",
          "logIndex": "0x51",
          "removed": false
        }
      ],
      "logsBloom": "0x00000000000000404000000000000000000000000000000000000000000000000000000000000000000000000000000000000000000000000000000000000000000000000000000000000000000000000000000000000000000000000000000000000000000000000000000000000000000000000000000000000000000000000000000000000000000000000000000000000000000000000000000000000000000000000000010000000000000000000000000000000000000000000000000001000000000000000000020000000000000000000000000000000000000000004000000000000000000000000000000000000000000000000000000000000000",
      "type": "0x0",
      "transactionHash": "0x964b01c43959912a6a2c48e495ab24b69fce645f63b6c0b036c4890bd703baa3",
      "transactionIndex": "0x1d",
      "blockHash": "0xa0f06988a015d458792d9e726dafe1c7b71315ebcf4946cbdc96f8ddb507bb0a",
      "blockNumber": "0x32828b7",
      "gasUsed": "0x2ec88",
      "effectiveGasPrice": "0x5d22cfc40",
      "from": "0x86e74256bec87d5f542bc9214b708a9de78e3998",
      "to": "0x34a99057232cc4a7eb21398fd0052474f4b5bcc5",
      "contractAddress": null,
      "l1BaseFeeScalar": "0x0",
      "l1BlobBaseFee": "0xe388197",
      "l1BlobBaseFeeScalar": "0x0",
      "l1Fee": "0x0",
      "l1GasPrice": "0x3b5048a",
      "l1GasUsed": "0x886"
    },
    {
      "status": "0x1",
      "cumulativeGasUsed": "0x4d369d",
      "logs": [
        {
          "address": "0x34a99057232cc4a7eb21398fd0052474f4b5bcc5",
          "topics": [
            "0xdd21516e8d64b364bd7a9c1607150492404c8502f6b066727a4e4b1f6b12c963"
          ],
          "data": "0x0000000000000000000000000000000000000000000000000000000000000001000000000000000000000000000000000000000000000000000000000000008000000000000000000000000000000000000000000000000000000000000000c000000000000000000000000086e74256bec87d5f542bc9214b708a9de78e3998000000000000000000000000000000000000000000000000000000000000000b5375626d697474656420310000000000000000000000000000000000000000000000000000000000000000000000000000000000000000000000000000000006516d486173680000000000000000000000000000000000000000000000000000",
          "blockHash": "0xa0f06988a015d458792d9e726dafe1c7b71315ebcf4946cbdc96f8ddb507bb0a",
          "blockNumber": "0x32828b7",
          "transactionHash": "0xd476c1fe0973be5126081d60e85d128770c192c2a7d9d28b3ba74cbaa8129866",
          "transactionIndex": "0x1e",
          "logIndex": "0x52",
          "removed": false
        }
      ],
      "logsBloom": "0x00000000000000004000000000000000000000000000000000000000000000000000000000000000000000000000000000000000000000000000000000000000000000400000001000000000000000000000000000000000000000000000000000000000000000000000000000000000000000000000000000000000000000000000000000000000000000000000000000000000000000000000000000000000000000000000010000000000000000000000000000000000000000000000000000000000000000000000020000000000000000000000000000000000000000000000000000000000000000000004000000000000000000000000000000000000",
      "type": "0x0",
      "transactionHash": "0xd476c1fe0973be5126081d60e85d128770c192c2a7d9d28b3ba74cbaa8129866",
      "transactionIndex": "0x1e",
      "blockHash": "0xa0f06988a015d458792d9e726dafe1c7b71315ebcf4946cbdc96f8ddb507bb0a",
      "blockNumber": "0x32828b7",
      "gasUsed": "0x132db",
      "effectiveGasPrice": "0x5d22cfc40",
      "from": "0x86e74256bec87d5f542bc9214b708a9de78e3998",
      "to": "0x34a99057232cc4a7eb21398fd0052474f4b5bcc5",
      "contractAddress": null,
      "l1BaseFeeScalar": "0x0",
      "l1BlobBaseFee": "0xe388197",
      "l1BlobBaseFeeScalar": "0x0",
      "l1Fee": "0x0",
      "l1GasPrice": "0x3b5048a",
      "l1GasUsed": "0x647"
    },
    {
      "status": "0x1",
      "cumulativeGasUsed": "0x4e26ac",
      "logs": [
        {
          "address": "0x34a99057232cc4a7eb21398fd0052474f4b5bcc5",
          "topics": [
            "0xdd21516e8d64b364bd7a9c1607150492404c8502f6b066727a4e4b1f6b12c963"
          ],
          "data": "0x0000000000000000000000000000000000000000000000000000000000000001000000000000000000000000000000000000000000000000000000000000008000000000000000000000000000000000000000000000000000000000000000c000000000000000000000000086e74256bec87d5f542bc9214b708a9de78e3998000000000000000000000000000000000000000000000000000000000000000b5375626d697474656420320000000000000000000000000000000000000000000000000000000000000000000000000000000000000000000000000000000006516d486173680000000000000000000000000000000000000000000000000000",
          "blockHash": "0xa0f06988a015d458792d9e726dafe1c7b71315ebcf4946cbdc96f8ddb507bb0a",
          "blockNumber": "0x32828b7",
          "transactionHash": "0x5d2b5b40cabd85b873285ba579cbbf28d311907466ca1cbd9f089e726c437da6",
          "transactionIndex": "0x1f",
          "logIndex": "0x53",
          "removed": false
        }
      ],
      "logsBloom": "0x00000000000000004000000000000000000000000000000000000000000000000000000000000000000000000000000000000000000000000000000000000000000000400000001000000000000000000000000000000000000000000000000000000000000000000000000000000000000000000000000000000000000000000000000000000000000000000000000000000000000000000000000000000000000000000000010000000000000000000000000000000000000000000000000000000000000000000000020000000000000000000000000000000000000000000000000000000000000000000004000000000000000000000000000000000000",
      "type": "0x0",
      "transactionHash": "0x5d2b5b40cabd85b873285ba579cbbf28d311907466ca1cbd9f089e726c437da6",
      "transactionIndex": "0x1f",
      "blockHash": "0xa0f06988a015d458792d9e726dafe1c7b71315ebcf4946cbdc96f8ddb507bb0a",
      "blockNumber": "0x32828b7",
      "gasUsed": "0xf00f",
      "effectiveGasPrice": "0x5d22cfc40",
      "from": "0x86e74256bec87d5f542bc9214b708a9de78e3998",
      "to": "0x34a99057232cc4a7eb21398fd0052474f4b5bcc5",
      "contractAddress": null,
      "l1BaseFeeScalar": "0x0",
      "l1BlobBaseFee": "0xe388197",
      "l1BlobBaseFeeScalar": "0x0",
      "l1Fee": "0x0",
      "l1GasPrice": "0x3b5048a",
      "l1GasUsed": "0x647"
    },
    {
      "status": "0x1",
      "cumulativeGasUsed": "0x4f16bb",
      "logs": [
        {
          "address": "0x34a99057232cc4a7eb21398fd0052474f4b5bcc5",
          "topics": [
            "0xdd21516e8d64b364bd7a9c1607150492404c8502f6b066727a4e4b1f6b12c963"
          ],
          "data": "0x0000000000000000000000000000000000000000000000000000000000000001000000000000000000000000000000000000000000000000000000000000008000000000000000000000000000000000000000000000000000000000000000c000000000000000000000000086e74256bec87d5f542bc9214b708a9de78e3998000000000000000000000000000000000000000000000000000000000000000b5375626d697474656420330000000000000000000000000000000000000000000000000000000000000000000000000000000000000000000000000000000006516d486173680000000000000000000000000000000000000000000000000000",
          "blockHash": "0xa0f06988a015d458792d9e726dafe1c7b71315ebcf4946cbdc96f8ddb507bb0a",
          "blockNumber": "0x32828b7",
          "transactionHash": "0x7a1b4f56bdb5ac8ee65feea412228a9a4f8e3222c0598631d9e66baade022cad",
          "transactionIndex": "0x20",
          "logIndex": "0x54",
          "removed": false
        }
      ],
      "logsBloom": "0x00000000000000004000000000000000000000000000000000000000000000000000000000000000000000000000000000000000000000000000000000000000000000400000001000000000000000000000000000000000000000000000000000000000000000000000000000000000000000000000000000000000000000000000000000000000000000000000000000000000000000000000000000000000000000000000010000000000000000000000000000000000000000000000000000000000000000000000020000000000000000000000000000000000000000000000000000000000000000000004000000000000000000000000000000000000",
      "type": "0x0",
      "transactionHash": "0x7a1b4f56bdb5ac8ee65feea412228a9a4f8e3222c0598631d9e66baade022cad",
      "transactionIndex": "0x20",
      "blockHash": "0xa0f06988a015d458792d9e726dafe1c7b71315ebcf4946cbdc96f8ddb507bb0a",
      "blockNumber": "0x32828b7",
      "gasUsed": "0xf00f",
      "effectiveGasPrice": "0x5d22cfc40",
      "from": "0x86e74256bec87d5f542bc9214b708a9de78e3998",
      "to": "0x34a99057232cc4a7eb21398fd0052474f4b5bcc5",
      "contractAddress": null,
      "l1BaseFeeScalar": "0x0",
      "l1BlobBaseFee": "0xe388197",
      "l1BlobBaseFeeScalar": "0x0",
      "l1Fee": "0x0",
      "l1GasPrice": "0x3b5048a",
      "l1GasUsed": "0x647"
    },
    {
      "status": "0x1",
      "cumulativeGasUsed": "0x5006ca",
      "logs": [
        {
          "address": "0x34a99057232cc4a7eb21398fd0052474f4b5bcc5",
          "topics": [
            "0xdd21516e8d64b364bd7a9c1607150492404c8502f6b066727a4e4b1f6b12c963"
          ],
          "data": "0x0000000000000000000000000000000000000000000000000000000000000001000000000000000000000000000000000000000000000000000000000000008000000000000000000000000000000000000000000000000000000000000000c000000000000000000000000086e74256bec87d5f542bc9214b708a9de78e3998000000000000000000000000000000000000000000000000000000000000000b5375626d697474656420340000000000000000000000000000000000000000000000000000000000000000000000000000000000000000000000000000000006516d486173680000000000000000000000000000000000000000000000000000",
          "blockHash": "0xa0f06988a015d458792d9e726dafe1c7b71315ebcf4946cbdc96f8ddb507bb0a",
          "blockNumber": "0x32828b7",
          "transactionHash": "0x2619f01b0fc6adfedcd7895f2f7e58402d1bed2dc8e5c00f3723df5eee6aaf83",
          "transactionIndex": "0x21",
          "logIndex": "0x55",
          "removed": false
        }
      ],
      "logsBloom": "0x00000000000000004000000000000000000000000000000000000000000000000000000000000000000000000000000000000000000000000000000000000000000000400000001000000000000000000000000000000000000000000000000000000000000000000000000000000000000000000000000000000000000000000000000000000000000000000000000000000000000000000000000000000000000000000000010000000000000000000000000000000000000000000000000000000000000000000000020000000000000000000000000000000000000000000000000000000000000000000004000000000000000000000000000000000000",
      "type": "0x0",
      "transactionHash": "0x2619f01b0fc6adfedcd7895f2f7e58402d1bed2dc8e5c00f3723df5eee6aaf83",
      "transactionIndex": "0x21",
      "blockHash": "0xa0f06988a015d458792d9e726dafe1c7b71315ebcf4946cbdc96f8ddb507bb0a",
      "blockNumber": "0x32828b7",
      "gasUsed": "0xf00f",
      "effectiveGasPrice": "0x5d22cfc40",
      "from": "0x86e74256bec87d5f542bc9214b708a9de78e3998",
      "to": "0x34a99057232cc4a7eb21398fd0052474f4b5bcc5",
      "contractAddress": null,
      "l1BaseFeeScalar": "0x0",
      "l1BlobBaseFee": "0xe388197",
      "l1BlobBaseFeeScalar": "0x0",
      "l1Fee": "0x0",
      "l1GasPrice": "0x3b5048a",
      "l1GasUsed": "0x647"
    },
    {
      "status": "0x1",
      "cumulativeGasUsed": "0x50f6d9",
      "logs": [
        {
          "address": "0x34a99057232cc4a7eb21398fd0052474f4b5bcc5",
          "topics": [
            "0xdd21516e8d64b364bd7a9c1607150492404c8502f6b066727a4e4b1f6b12c963"
          ],
          "data": "0x0000000000000000000000000000000000000000000000000000000000000001000000000000000000000000000000000000000000000000000000000000008000000000000000000000000000000000000000000000000000000000000000c000000000000000000000000086e74256bec87d5f542bc9214b708a9de78e3998000000000000000000000000000000000000000000000000000000000000000b5375626d697474656420350000000000000000000000000000000000000000000000000000000000000000000000000000000000000000000000000000000006516d486173680000000000000000000000000000000000000000000000000000",
          "blockHash": "0xa0f06988a015d458792d9e726dafe1c7b71315ebcf4946cbdc96f8ddb507bb0a",
          "blockNumber": "0x32828b7",
          "transactionHash": "0x08ca83f2c3bf0cd826ba0ec01038f7e065cd090810575a2defb961c1f1f759db",
          "transactionIndex": "0x22",
          "logIndex": "0x56",
          "removed": false
        }
      ],
      "logsBloom": "0x00000000000000004000000000000000000000000000000000000000000000000000000000000000000000000000000000000000000000000000000000000000000000400000001000000000000000000000000000000000000000000000000000000000000000000000000000000000000000000000000000000000000000000000000000000000000000000000000000000000000000000000000000000000000000000000010000000000000000000000000000000000000000000000000000000000000000000000020000000000000000000000000000000000000000000000000000000000000000000004000000000000000000000000000000000000",
      "type": "0x0",
      "transactionHash": "0x08ca83f2c3bf0cd826ba0ec01038f7e065cd090810575a2defb961c1f1f759db",
      "transactionIndex": "0x22",
      "blockHash": "0xa0f06988a015d458792d9e726dafe1c7b71315ebcf4946cbdc96f8ddb507bb0a",
      "blockNumber": "0x32828b7",
      "gasUsed": "0xf00f",
      "effectiveGasPrice": "0x5d22cfc40",
      "from": "0x86e74256bec87d5f542bc9214b708a9de78e3998",
      "to": "0x34a99057232cc4a7eb21398fd0052474f4b5bcc5",
      "contractAddress": null,
      "l1BaseFeeScalar": "0x0",
      "l1BlobBaseFee": "0xe388197",
      "l1BlobBaseFeeScalar": "0x0",
      "l1Fee": "0x0",
      "l1GasPrice": "0x3b5048a",
      "l1GasUsed": "0x647"
    },
    {
      "status": "0x1",
      "cumulativeGasUsed": "0x51e6e8",
      "logs": [
        {
          "address": "0x34a99057232cc4a7eb21398fd0052474f4b5bcc5",
          "topics": [
            "0xdd21516e8d64b364bd7a9c1607150492404c8502f6b066727a4e4b1f6b12c963"
          ],
          "data": "0x0000000000000000000000000000000000000000000000000000000000000001000000000000000000000000000000000000000000000000000000000000008000000000000000000000000000000000000000000000000000000000000000c000000000000000000000000086e74256bec87d5f542bc9214b708a9de78e3998000000000000000000000000000000000000000000000000000000000000000b5375626d697474656420360000000000000000000000000000000000000000000000000000000000000000000000000000000000000000000000000000000006516d486173680000000000000000000000000000000000000000000000000000",
          "blockHash": "0xa0f06988a015d458792d9e726dafe1c7b71315ebcf4946cbdc96f8ddb507bb0a",
          "blockNumber": "0x32828b7",
          "transactionHash": "0xd31891c3ebf56837df3bd8751f950149a1fd1cd308780c42ba167c92cf73a9f6",
          "transactionIndex": "0x23",
          "logIndex": "0x57",
          "removed": false
        }
      ],
      "logsBloom": "0x00000000000000004000000000000000000000000000000000000000000000000000000000000000000000000000000000000000000000000000000000000000000000400000001000000000000000000000000000000000000000000000000000000000000000000000000000000000000000000000000000000000000000000000000000000000000000000000000000000000000000000000000000000000000000000000010000000000000000000000000000000000000000000000000000000000000000000000020000000000000000000000000000000000000000000000000000000000000000000004000000000000000000000000000000000000",
      "type": "0x0",
      "transactionHash": "0xd31891c3ebf56837df3bd8751f950149a1fd1cd308780c42ba167c92cf73a9f6",
      "transactionIndex": "0x23",
      "blockHash": "0xa0f06988a015d458792d9e726dafe1c7b71315ebcf4946cbdc96f8ddb507bb0a",
      "blockNumber": "0x32828b7",
      "gasUsed": "0xf00f",
      "effectiveGasPrice": "0x5d22cfc40",
      "from": "0x86e74256bec87d5f542bc9214b708a9de78e3998",
      "to": "0x34a99057232cc4a7eb21398fd0052474f4b5bcc5",
      "contractAddress": null,
      "l1BaseFeeScalar": "0x0",
      "l1BlobBaseFee": "0xe388197",
      "l1BlobBaseFeeScalar": "0x0",
      "l1Fee": "0x0",
      "l1GasPrice": "0x3b5048a",
      "l1GasUsed": "0x647"
    },
    {
      "status": "0x1",
      "cumulativeGasUsed": "0x43140b",
      "logs": [
        {
          "address": "0x34a99057232cc4a7eb21398fd0052474f4b5bcc5",
          "topics": [
            "0xdd21516e8d64b364bd7a9c1607150492404c8502f6b066727a4e4b1f6b12c963"
          ],
          "data": "0x0000000000000000000000000000000000000000000000000000000000000001000000000000000000000000000000000000000000000000000000000000008000000000000000000000000000000000000000000000000000000000000000c000000000000000000000000086e74256bec87d5f542bc9214b708a9de78e3998000000000000000000000000000000000000000000000000000000000000000b5375626d697474656420370000000000000000000000000000000000000000000000000000000000000000000000000000000000000000000000000000000006516d486173680000000000000000000000000000000000000000000000000000",
          "blockHash": "0xd938529d4c2a045995aa4f72f5f9443d67134dc3c7b4243234eaee781b6c9aca",
          "blockNumber": "0x32828b9",
          "transactionHash": "0x65c5667184436e62a9ffd37c11cd3789a1f1dcedb0e0a2586aa08418104834f9",
          "transactionIndex": "0x18",
          "logIndex": "0x62",
          "removed": false
        }
      ],
      "logsBloom": "0x00000000000000004000000000000000000000000000000000000000000000000000000000000000000000000000000000000000000000000000000000000000000000400000001000000000000000000000000000000000000000000000000000000000000000000000000000000000000000000000000000000000000000000000000000000000000000000000000000000000000000000000000000000000000000000000010000000000000000000000000000000000000000000000000000000000000000000000020000000000000000000000000000000000000000000000000000000000000000000004000000000000000000000000000000000000",
      "type": "0x0",
      "transactionHash": "0x65c5667184436e62a9ffd37c11cd3789a1f1dcedb0e0a2586aa08418104834f9",
      "transactionIndex": "0x18",
      "blockHash": "0xd938529d4c2a045995aa4f72f5f9443d67134dc3c7b4243234eaee781b6c9aca",
      "blockNumber": "0x32828b9",
      "gasUsed": "0xf00f",
      "effectiveGasPrice": "0x5d22cfc40",
      "from": "0x86e74256bec87d5f542bc9214b708a9de78e3998",
      "to": "0x34a99057232cc4a7eb21398fd0052474f4b5bcc5",
      "contractAddress": null,
      "l1BaseFeeScalar": "0x0",
      "l1BlobBaseFee": "0xe388197",
      "l1BlobBaseFeeScalar": "0x0",
      "l1Fee": "0x0",
      "l1GasPrice": "0x3b5048a",
      "l1GasUsed": "0x647"
    },
    {
      "status": "0x1",
      "cumulativeGasUsed": "0x47200e",
      "logs": [
        {
          "address": "0x34a99057232cc4a7eb21398fd0052474f4b5bcc5",
          "topics": [
            "0xdd21516e8d64b364bd7a9c1607150492404c8502f6b066727a4e4b1f6b12c963"
          ],
          "data": "0x0000000000000000000000000000000000000000000000000000000000000001000000000000000000000000000000000000000000000000000000000000008000000000000000000000000000000000000000000000000000000000000000c000000000000000000000000086e74256bec87d5f542bc9214b708a9de78e3998000000000000000000000000000000000000000000000000000000000000000b5375626d697474656420380000000000000000000000000000000000000000000000000000000000000000000000000000000000000000000000000000000006516d486173680000000000000000000000000000000000000000000000000000",
          "blockHash": "0xd938529d4c2a045995aa4f72f5f9443d67134dc3c7b4243234eaee781b6c9aca",
          "blockNumber": "0x32828b9",
          "transactionHash": "0x0812bece133d3a18f0b79a3d8530d0c03c5f79b6b954ba0136c1dc583dbfca0b",
          "transactionIndex": "0x1a",
          "logIndex": "0x69",
          "removed": false
        }
      ],
      "logsBloom": "0x00000000000000004000000000000000000000000000000000000000000000000000000000000000000000000000000000000000000000000000000000000000000000400000001000000000000000000000000000000000000000000000000000000000000000000000000000000000000000000000000000000000000000000000000000000000000000000000000000000000000000000000000000000000000000000000010000000000000000000000000000000000000000000000000000000000000000000000020000000000000000000000000000000000000000000000000000000000000000000004000000000000000000000000000000000000",
      "type": "0x0",
      "transactionHash": "0x0812bece133d3a18f0b79a3d8530d0c03c5f79b6b954ba0136c1dc583dbfca0b",
      "transactionIndex": "0x1a",
      "blockHash": "0xd938529d4c2a045995aa4f72f5f9443d67134dc3c7b4243234eaee781b6c9aca",
      "blockNumber": "0x32828b9",
      "gasUsed": "0xf00f",
      "effectiveGasPrice": "0x5d22cfc40",
      "from": "0x86e74256bec87d5f542bc9214b708a9de78e3998",
      "to": "0x34a99057232cc4a7eb21398fd0052474f4b5bcc5",
      "contractAddress": null,
      "l1BaseFeeScalar": "0x0",
      "l1BlobBaseFee": "0xe388197",
      "l1BlobBaseFeeScalar": "0x0",
      "l1Fee": "0x0",
      "l1GasPrice": "0x3b5048a",
      "l1GasUsed": "0x647"
    },
    {
      "status": "0x1",
      "cumulativeGasUsed": "0x48101d",
      "logs": [
        {
          "address": "0x34a99057232cc4a7eb21398fd0052474f4b5bcc5",
          "topics": [
            "0xdd21516e8d64b364bd7a9c1607150492404c8502f6b066727a4e4b1f6b12c963"
          ],
          "data": "0x0000000000000000000000000000000000000000000000000000000000000001000000000000000000000000000000000000000000000000000000000000008000000000000000000000000000000000000000000000000000000000000000c000000000000000000000000086e74256bec87d5f542bc9214b708a9de78e3998000000000000000000000000000000000000000000000000000000000000000b5375626d697474656420390000000000000000000000000000000000000000000000000000000000000000000000000000000000000000000000000000000006516d486173680000000000000000000000000000000000000000000000000000",
          "blockHash": "0xd938529d4c2a045995aa4f72f5f9443d67134dc3c7b4243234eaee781b6c9aca",
          "blockNumber": "0x32828b9",
          "transactionHash": "0xcf20c8cfafc2bbd8f21bf7f2c29bb9f2811d53711c755cec15ee4043b26385b0",
          "transactionIndex": "0x1b",
          "logIndex": "0x6a",
          "removed": false
        }
      ],
      "logsBloom": "0x00000000000000004000000000000000000000000000000000000000000000000000000000000000000000000000000000000000000000000000000000000000000000400000001000000000000000000000000000000000000000000000000000000000000000000000000000000000000000000000000000000000000000000000000000000000000000000000000000000000000000000000000000000000000000000000010000000000000000000000000000000000000000000000000000000000000000000000020000000000000000000000000000000000000000000000000000000000000000000004000000000000000000000000000000000000",
      "type": "0x0",
      "transactionHash": "0xcf20c8cfafc2bbd8f21bf7f2c29bb9f2811d53711c755cec15ee4043b26385b0",
      "transactionIndex": "0x1b",
      "blockHash": "0xd938529d4c2a045995aa4f72f5f9443d67134dc3c7b4243234eaee781b6c9aca",
      "blockNumber": "0x32828b9",
      "gasUsed": "0xf00f",
      "effectiveGasPrice": "0x5d22cfc40",
      "from": "0x86e74256bec87d5f542bc9214b708a9de78e3998",
      "to": "0x34a99057232cc4a7eb21398fd0052474f4b5bcc5",
      "contractAddress": null,
      "l1BaseFeeScalar": "0x0",
      "l1BlobBaseFee": "0xe388197",
      "l1BlobBaseFeeScalar": "0x0",
      "l1Fee": "0x0",
      "l1GasPrice": "0x3b5048a",
      "l1GasUsed": "0x647"
    },
    {
      "status": "0x1",
      "cumulativeGasUsed": "0x490038",
      "logs": [
        {
          "address": "0x34a99057232cc4a7eb21398fd0052474f4b5bcc5",
          "topics": [
            "0xdd21516e8d64b364bd7a9c1607150492404c8502f6b066727a4e4b1f6b12c963"
          ],
          "data": "0x0000000000000000000000000000000000000000000000000000000000000001000000000000000000000000000000000000000000000000000000000000008000000000000000000000000000000000000000000000000000000000000000c000000000000000000000000086e74256bec87d5f542bc9214b708a9de78e3998000000000000000000000000000000000000000000000000000000000000000c5375626d697474656420313000000000000000000000000000000000000000000000000000000000000000000000000000000000000000000000000000000006516d486173680000000000000000000000000000000000000000000000000000",
          "blockHash": "0xd938529d4c2a045995aa4f72f5f9443d67134dc3c7b4243234eaee781b6c9aca",
          "blockNumber": "0x32828b9",
          "transactionHash": "0x496cb02fa4e8cee1ab78e7fb0e4b2c8efa6d9b35c5f4bae8f4b4db244f23bdaa",
          "transactionIndex": "0x1c",
          "logIndex": "0x6b",
          "removed": false
        }
      ],
      "logsBloom": "0x00000000000000004000000000000000000000000000000000000000000000000000000000000000000000000000000000000000000000000000000000000000000000400000001000000000000000000000000000000000000000000000000000000000000000000000000000000000000000000000000000000000000000000000000000000000000000000000000000000000000000000000000000000000000000000000010000000000000000000000000000000000000000000000000000000000000000000000020000000000000000000000000000000000000000000000000000000000000000000004000000000000000000000000000000000000",
      "type": "0x0",
      "transactionHash": "0x496cb02fa4e8cee1ab78e7fb0e4b2c8efa6d9b35c5f4bae8f4b4db244f23bdaa",
      "transactionIndex": "0x1c",
      "blockHash": "0xd938529d4c2a045995aa4f72f5f9443d67134dc3c7b4243234eaee781b6c9aca",
      "blockNumber": "0x32828b9",
      "gasUsed": "0xf01b",
      "effectiveGasPrice": "0x5d22cfc40",
      "from": "0x86e74256bec87d5f542bc9214b708a9de78e3998",
      "to": "0x34a99057232cc4a7eb21398fd0052474f4b5bcc5",
      "contractAddress": null,
      "l1BaseFeeScalar": "0x0",
      "l1BlobBaseFee": "0xe388197",
      "l1BlobBaseFeeScalar": "0x0",
      "l1Fee": "0x0",
      "l1GasPrice": "0x3b5048a",
      "l1GasUsed": "0x654"
    }
  ],
  "libraries": [],
  "pending": [],
  "returns": {},
  "timestamp": 1764864334,
  "chain": 42220,
  "commit": "59f7136"
}