{
  "transactions": [
    {
      "hash": "0x5b5876d110cd11f268a35d3e22df4ebb259ebf4240339755f4710e001204ecb9",
      "transactionType": "CALL",
      "contractName": null,
      "contractAddress": "0x0cb14143e45130996961814f4a2f3cf17586f484",
      "function": "createContractor(string,uint256,uint256,string,string,string)",
      "arguments": [
        "Company 1",
        "10001",
        "20001",
        "Address 1",
        "QmHash1",
        "QmHash2"
      ],
      "transaction": {
        "from": "0x86e74256bec87d5f542bc9214b708a9de78e3998",
        "to": "0x0cb14143e45130996961814f4a2f3cf17586f484",
        "gas": "0x46609",
        "value": "0x0",
        "input": "0x807c032800000000000000000000000000000000000000000000000000000000000000c000000000000000000000000000000000000000000000000000000000000027110000000000000000000000000000000000000000000000000000000000004e210000000000000000000000000000000000000000000000000000000000000100000000000000000000000000000000000000000000000000000000000000014000000000000000000000000000000000000000000000000000000000000001800000000000000000000000000000000000000000000000000000000000000009436f6d70616e7920310000000000000000000000000000000000000000000000000000000000000000000000000000000000000000000000000000000000000941646472657373203100000000000000000000000000000000000000000000000000000000000000000000000000000000000000000000000000000000000007516d4861736831000000000000000000000000000000000000000000000000000000000000000000000000000000000000000000000000000000000000000007516d486173683200000000000000000000000000000000000000000000000000",
        "nonce": "0xce",
        "chainId": "0xa4ec"
      },
      "additionalContracts": [],
      "isFixedGasLimit": false
    },
    {
      "hash": "0x8c2dfffa40b41d8e89107fc7779868a47c1e936e0b9d1720fef4bcfa6dd7bdd7",
      "transactionType": "CALL",
      "contractName": null,
      "contractAddress": "0x0cb14143e45130996961814f4a2f3cf17586f484",
      "function": "createContractor(string,uint256,uint256,string,string,string)",
      "arguments": [
        "Company 2",
        "10002",
        "20002",
        "Address 2",
        "QmHash1",
        "QmHash2"
      ],
      "transaction": {
        "from": "0x86e74256bec87d5f542bc9214b708a9de78e3998",
        "to": "0x0cb14143e45130996961814f4a2f3cf17586f484",
        "gas": "0x409c7",
        "value": "0x0",
        "input": "0x807c032800000000000000000000000000000000000000000000000000000000000000c000000000000000000000000000000000000000000000000000000000000027120000000000000000000000000000000000000000000000000000000000004e220000000000000000000000000000000000000000000000000000000000000100000000000000000000000000000000000000000000000000000000000000014000000000000000000000000000000000000000000000000000000000000001800000000000000000000000000000000000000000000000000000000000000009436f6d70616e7920320000000000000000000000000000000000000000000000000000000000000000000000000000000000000000000000000000000000000941646472657373203200000000000000000000000000000000000000000000000000000000000000000000000000000000000000000000000000000000000007516d4861736831000000000000000000000000000000000000000000000000000000000000000000000000000000000000000000000000000000000000000007516d486173683200000000000000000000000000000000000000000000000000",
        "nonce": "0xcf",
        "chainId": "0xa4ec"
      },
      "additionalContracts": [],
      "isFixedGasLimit": false
    },
    {
      "hash": "0xbfafaf0a13c777c91ff4ca9c3cee01e22580eb6012a7cf8a78916ae7f49339fb",
      "transactionType": "CALL",
      "contractName": null,
      "contractAddress": "0x0cb14143e45130996961814f4a2f3cf17586f484",
      "function": "createContractor(string,uint256,uint256,string,string,string)",
      "arguments": [
        "Company 3",
        "10003",
        "20003",
        "Address 3",
        "QmHash1",
        "QmHash2"
      ],
      "transaction": {
        "from": "0x86e74256bec87d5f542bc9214b708a9de78e3998",
        "to": "0x0cb14143e45130996961814f4a2f3cf17586f484",
        "gas": "0x409c7",
        "value": "0x0",
        "input": "0x807c032800000000000000000000000000000000000000000000000000000000000000c000000000000000000000000000000000000000000000000000000000000027130000000000000000000000000000000000000000000000000000000000004e230000000000000000000000000000000000000000000000000000000000000100000000000000000000000000000000000000000000000000000000000000014000000000000000000000000000000000000000000000000000000000000001800000000000000000000000000000000000000000000000000000000000000009436f6d70616e7920330000000000000000000000000000000000000000000000000000000000000000000000000000000000000000000000000000000000000941646472657373203300000000000000000000000000000000000000000000000000000000000000000000000000000000000000000000000000000000000007516d4861736831000000000000000000000000000000000000000000000000000000000000000000000000000000000000000000000000000000000000000007516d486173683200000000000000000000000000000000000000000000000000",
        "nonce": "0xd0",
        "chainId": "0xa4ec"
      },
      "additionalContracts": [],
      "isFixedGasLimit": false
    },
    {
      "hash": "0xf5b3e0503d0ce225f43f6f62856df48ce7b0d1e92c3627637d23ea7f14d5e684",
      "transactionType": "CALL",
      "contractName": null,
      "contractAddress": "0x0cb14143e45130996961814f4a2f3cf17586f484",
      "function": "createContractor(string,uint256,uint256,string,string,string)",
      "arguments": [
        "Company 4",
        "10004",
        "20004",
        "Address 4",
        "QmHash1",
        "QmHash2"
      ],
      "transaction": {
        "from": "0x86e74256bec87d5f542bc9214b708a9de78e3998",
        "to": "0x0cb14143e45130996961814f4a2f3cf17586f484",
        "gas": "0x409c7",
        "value": "0x0",
        "input": "0x807c032800000000000000000000000000000000000000000000000000000000000000c000000000000000000000000000000000000000000000000000000000000027140000000000000000000000000000000000000000000000000000000000004e240000000000000000000000000000000000000000000000000000000000000100000000000000000000000000000000000000000000000000000000000000014000000000000000000000000000000000000000000000000000000000000001800000000000000000000000000000000000000000000000000000000000000009436f6d70616e7920340000000000000000000000000000000000000000000000000000000000000000000000000000000000000000000000000000000000000941646472657373203400000000000000000000000000000000000000000000000000000000000000000000000000000000000000000000000000000000000007516d4861736831000000000000000000000000000000000000000000000000000000000000000000000000000000000000000000000000000000000000000007516d486173683200000000000000000000000000000000000000000000000000",
        "nonce": "0xd1",
        "chainId": "0xa4ec"
      },
      "additionalContracts": [],
      "isFixedGasLimit": false
    },
    {
      "hash": "0xb17ffd6a57b216587ae319ec01d6d98ce8e84d294227aa6ef4caf5c7bdb55f12",
      "transactionType": "CALL",
      "contractName": null,
      "contractAddress": "0x0cb14143e45130996961814f4a2f3cf17586f484",
      "function": "createContractor(string,uint256,uint256,string,string,string)",
      "arguments": [
        "Company 5",
        "10005",
        "20005",
        "Address 5",
        "QmHash1",
        "QmHash2"
      ],
      "transaction": {
        "from": "0x86e74256bec87d5f542bc9214b708a9de78e3998",
        "to": "0x0cb14143e45130996961814f4a2f3cf17586f484",
        "gas": "0x409c7",
        "value": "0x0",
        "input": "0x807c032800000000000000000000000000000000000000000000000000000000000000c000000000000000000000000000000000000000000000000000000000000027150000000000000000000000000000000000000000000000000000000000004e250000000000000000000000000000000000000000000000000000000000000100000000000000000000000000000000000000000000000000000000000000014000000000000000000000000000000000000000000000000000000000000001800000000000000000000000000000000000000000000000000000000000000009436f6d70616e7920350000000000000000000000000000000000000000000000000000000000000000000000000000000000000000000000000000000000000941646472657373203500000000000000000000000000000000000000000000000000000000000000000000000000000000000000000000000000000000000007516d4861736831000000000000000000000000000000000000000000000000000000000000000000000000000000000000000000000000000000000000000007516d486173683200000000000000000000000000000000000000000000000000",
        "nonce": "0xd2",
        "chainId": "0xa4ec"
      },
      "additionalContracts": [],
      "isFixedGasLimit": false
    },
    {
      "hash": "0xa76d4af29c9155a1b82101903106eb30beca0c1a666aee986a83f8bcf112ea1f",
      "transactionType": "CALL",
      "contractName": null,
      "contractAddress": "0x0cb14143e45130996961814f4a2f3cf17586f484",
      "function": "createContractor(string,uint256,uint256,string,string,string)",
      "arguments": [
        "Company 6",
        "10006",
        "20006",
        "Address 6",
        "QmHash1",
        "QmHash2"
      ],
      "transaction": {
        "from": "0x86e74256bec87d5f542bc9214b708a9de78e3998",
        "to": "0x0cb14143e45130996961814f4a2f3cf17586f484",
        "gas": "0x409c7",
        "value": "0x0",
        "input": "0x807c032800000000000000000000000000000000000000000000000000000000000000c000000000000000000000000000000000000000000000000000000000000027160000000000000000000000000000000000000000000000000000000000004e260000000000000000000000000000000000000000000000000000000000000100000000000000000000000000000000000000000000000000000000000000014000000000000000000000000000000000000000000000000000000000000001800000000000000000000000000000000000000000000000000000000000000009436f6d70616e7920360000000000000000000000000000000000000000000000000000000000000000000000000000000000000000000000000000000000000941646472657373203600000000000000000000000000000000000000000000000000000000000000000000000000000000000000000000000000000000000007516d4861736831000000000000000000000000000000000000000000000000000000000000000000000000000000000000000000000000000000000000000007516d486173683200000000000000000000000000000000000000000000000000",
        "nonce": "0xd3",
        "chainId": "0xa4ec"
      },
      "additionalContracts": [],
      "isFixedGasLimit": false
    },
    {
      "hash": "0x2eeebf21d2fec025f56530bffc995372e1e969beadb67211968675c6a5616a41",
      "transactionType": "CALL",
      "contractName": null,
      "contractAddress": "0x0cb14143e45130996961814f4a2f3cf17586f484",
      "function": "createContractor(string,uint256,uint256,string,string,string)",
      "arguments": [
        "Company 7",
        "10007",
        "20007",
        "Address 7",
        "QmHash1",
        "QmHash2"
      ],
      "transaction": {
        "from": "0x86e74256bec87d5f542bc9214b708a9de78e3998",
        "to": "0x0cb14143e45130996961814f4a2f3cf17586f484",
        "gas": "0x409c7",
        "value": "0x0",
        "input": "0x807c032800000000000000000000000000000000000000000000000000000000000000c000000000000000000000000000000000000000000000000000000000000027170000000000000000000000000000000000000000000000000000000000004e270000000000000000000000000000000000000000000000000000000000000100000000000000000000000000000000000000000000000000000000000000014000000000000000000000000000000000000000000000000000000000000001800000000000000000000000000000000000000000000000000000000000000009436f6d70616e7920370000000000000000000000000000000000000000000000000000000000000000000000000000000000000000000000000000000000000941646472657373203700000000000000000000000000000000000000000000000000000000000000000000000000000000000000000000000000000000000007516d4861736831000000000000000000000000000000000000000000000000000000000000000000000000000000000000000000000000000000000000000007516d486173683200000000000000000000000000000000000000000000000000",
        "nonce": "0xd4",
        "chainId": "0xa4ec"
      },
      "additionalContracts": [],
      "isFixedGasLimit": false
    },
    {
      "hash": "0x4b6a400c2dbcee4967115460afa1253d26c8da498f067f82c5cc2f8e76bb09f6",
      "transactionType": "CALL",
      "contractName": null,
      "contractAddress": "0x0cb14143e45130996961814f4a2f3cf17586f484",
      "function": "createContractor(string,uint256,uint256,string,string,string)",
      "arguments": [
        "Company 8",
        "10008",
        "20008",
        "Address 8",
        "QmHash1",
        "QmHash2"
      ],
      "transaction": {
        "from": "0x86e74256bec87d5f542bc9214b708a9de78e3998",
        "to": "0x0cb14143e45130996961814f4a2f3cf17586f484",
        "gas": "0x409c7",
        "value": "0x0",
        "input": "0x807c032800000000000000000000000000000000000000000000000000000000000000c000000000000000000000000000000000000000000000000000000000000027180000000000000000000000000000000000000000000000000000000000004e280000000000000000000000000000000000000000000000000000000000000100000000000000000000000000000000000000000000000000000000000000014000000000000000000000000000000000000000000000000000000000000001800000000000000000000000000000000000000000000000000000000000000009436f6d70616e7920380000000000000000000000000000000000000000000000000000000000000000000000000000000000000000000000000000000000000941646472657373203800000000000000000000000000000000000000000000000000000000000000000000000000000000000000000000000000000000000007516d4861736831000000000000000000000000000000000000000000000000000000000000000000000000000000000000000000000000000000000000000007516d486173683200000000000000000000000000000000000000000000000000",
        "nonce": "0xd5",
        "chainId": "0xa4ec"
      },
      "additionalContracts": [],
      "isFixedGasLimit": false
    },
    {
      "hash": "0xd33a2ce77d1d70bee4420df3f28952d72f353255b5945a679adb79b13ea4cb40",
      "transactionType": "CALL",
      "contractName": null,
      "contractAddress": "0x0cb14143e45130996961814f4a2f3cf17586f484",
      "function": "createContractor(string,uint256,uint256,string,string,string)",
      "arguments": [
        "Company 9",
        "10009",
        "20009",
        "Address 9",
        "QmHash1",
        "QmHash2"
      ],
      "transaction": {
        "from": "0x86e74256bec87d5f542bc9214b708a9de78e3998",
        "to": "0x0cb14143e45130996961814f4a2f3cf17586f484",
        "gas": "0x409c7",
        "value": "0x0",
        "input": "0x807c032800000000000000000000000000000000000000000000000000000000000000c000000000000000000000000000000000000000000000000000000000000027190000000000000000000000000000000000000000000000000000000000004e290000000000000000000000000000000000000000000000000000000000000100000000000000000000000000000000000000000000000000000000000000014000000000000000000000000000000000000000000000000000000000000001800000000000000000000000000000000000000000000000000000000000000009436f6d70616e7920390000000000000000000000000000000000000000000000000000000000000000000000000000000000000000000000000000000000000941646472657373203900000000000000000000000000000000000000000000000000000000000000000000000000000000000000000000000000000000000007516d4861736831000000000000000000000000000000000000000000000000000000000000000000000000000000000000000000000000000000000000000007516d486173683200000000000000000000000000000000000000000000000000",
        "nonce": "0xd6",
        "chainId": "0xa4ec"
      },
      "additionalContracts": [],
      "isFixedGasLimit": false
    },
    {
      "hash": "0x5df973ab07173e367a73ef633635daf49b24f8a784554fb4f89e5c36a7937491",
      "transactionType": "CALL",
      "contractName": null,
      "contractAddress": "0x0cb14143e45130996961814f4a2f3cf17586f484",
      "function": "createContractor(string,uint256,uint256,string,string,string)",
      "arguments": [
        "Company 10",
        "10010",
        "20010",
        "Address 10",
        "QmHash1",
        "QmHash2"
      ],
      "transaction": {
        "from": "0x86e74256bec87d5f542bc9214b708a9de78e3998",
        "to": "0x0cb14143e45130996961814f4a2f3cf17586f484",
        "gas": "0x409e8",
        "value": "0x0",
        "input": "0x807c032800000000000000000000000000000000000000000000000000000000000000c0000000000000000000000000000000000000000000000000000000000000271a0000000000000000000000000000000000000000000000000000000000004e2a000000000000000000000000000000000000000000000000000000000000010000000000000000000000000000000000000000000000000000000000000001400000000000000000000000000000000000000000000000000000000000000180000000000000000000000000000000000000000000000000000000000000000a436f6d70616e7920313000000000000000000000000000000000000000000000000000000000000000000000000000000000000000000000000000000000000a41646472657373203130000000000000000000000000000000000000000000000000000000000000000000000000000000000000000000000000000000000007516d4861736831000000000000000000000000000000000000000000000000000000000000000000000000000000000000000000000000000000000000000007516d486173683200000000000000000000000000000000000000000000000000",
        "nonce": "0xd7",
        "chainId": "0xa4ec"
      },
      "additionalContracts": [],
      "isFixedGasLimit": false
    },
    {
      "hash": "0x8a6d8d0848c8aedf1b8833ca58017de14ffa5523f515a7fa0622524c894ba0a0",
      "transactionType": "CALL",
      "contractName": null,
      "contractAddress": "0x0cb14143e45130996961814f4a2f3cf17586f484",
      "function": "SubmitProject(uint256,string,string)",
      "arguments": [
        "1",
        "Submitted 1",
        "QmHash"
      ],
      "transaction": {
        "from": "0x86e74256bec87d5f542bc9214b708a9de78e3998",
        "to": "0x0cb14143e45130996961814f4a2f3cf17586f484",
        "gas": "0x2a425",
        "value": "0x0",
        "input": "0xe7c701510000000000000000000000000000000000000000000000000000000000000001000000000000000000000000000000000000000000000000000000000000006000000000000000000000000000000000000000000000000000000000000000a0000000000000000000000000000000000000000000000000000000000000000b5375626d697474656420310000000000000000000000000000000000000000000000000000000000000000000000000000000000000000000000000000000006516d486173680000000000000000000000000000000000000000000000000000",
        "nonce": "0xd8",
        "chainId": "0xa4ec"
      },
      "additionalContracts": [],
      "isFixedGasLimit": false
    },
    {
      "hash": "0xb35a45a892ca7748b5e8af68bfa7c61ef832478bda626034a1acbfc1c449da73",
      "transactionType": "CALL",
      "contractName": null,
      "contractAddress": "0x0cb14143e45130996961814f4a2f3cf17586f484",
      "function": "SubmitProject(uint256,string,string)",
      "arguments": [
        "2",
        "Submitted 2",
        "QmHash"
      ],
      "transaction": {
        "from": "0x86e74256bec87d5f542bc9214b708a9de78e3998",
        "to": "0x0cb14143e45130996961814f4a2f3cf17586f484",
        "gas": "0x22251",
        "value": "0x0",
        "input": "0xe7c701510000000000000000000000000000000000000000000000000000000000000002000000000000000000000000000000000000000000000000000000000000006000000000000000000000000000000000000000000000000000000000000000a0000000000000000000000000000000000000000000000000000000000000000b5375626d697474656420320000000000000000000000000000000000000000000000000000000000000000000000000000000000000000000000000000000006516d486173680000000000000000000000000000000000000000000000000000",
        "nonce": "0xd9",
        "chainId": "0xa4ec"
      },
      "additionalContracts": [],
      "isFixedGasLimit": false
    },
    {
      "hash": "0xf8ffd75b049dd38f6def9f7e8a6a89c27767c3c549f063e8cb42f5ec569e318c",
      "transactionType": "CALL",
      "contractName": null,
      "contractAddress": "0x0cb14143e45130996961814f4a2f3cf17586f484",
      "function": "SubmitProject(uint256,string,string)",
      "arguments": [
        "3",
        "Submitted 3",
        "QmHash"
      ],
      "transaction": {
        "from": "0x86e74256bec87d5f542bc9214b708a9de78e3998",
        "to": "0x0cb14143e45130996961814f4a2f3cf17586f484",
        "gas": "0x22251",
        "value": "0x0",
        "input": "0xe7c701510000000000000000000000000000000000000000000000000000000000000003000000000000000000000000000000000000000000000000000000000000006000000000000000000000000000000000000000000000000000000000000000a0000000000000000000000000000000000000000000000000000000000000000b5375626d697474656420330000000000000000000000000000000000000000000000000000000000000000000000000000000000000000000000000000000006516d486173680000000000000000000000000000000000000000000000000000",
        "nonce": "0xda",
        "chainId": "0xa4ec"
      },
      "additionalContracts": [],
      "isFixedGasLimit": false
    },
    {
      "hash": "0xae7008c6030e620704963b8b2eee90349ab5cb9e162d48e285b4c4561e58d2ad",
      "transactionType": "CALL",
      "contractName": null,
      "contractAddress": "0x0cb14143e45130996961814f4a2f3cf17586f484",
      "function": "SubmitProject(uint256,string,string)",
      "arguments": [
        "4",
        "Submitted 4",
        "QmHash"
      ],
      "transaction": {
        "from": "0x86e74256bec87d5f542bc9214b708a9de78e3998",
        "to": "0x0cb14143e45130996961814f4a2f3cf17586f484",
        "gas": "0x22251",
        "value": "0x0",
        "input": "0xe7c701510000000000000000000000000000000000000000000000000000000000000004000000000000000000000000000000000000000000000000000000000000006000000000000000000000000000000000000000000000000000000000000000a0000000000000000000000000000000000000000000000000000000000000000b5375626d697474656420340000000000000000000000000000000000000000000000000000000000000000000000000000000000000000000000000000000006516d486173680000000000000000000000000000000000000000000000000000",
        "nonce": "0xdb",
        "chainId": "0xa4ec"
      },
      "additionalContracts": [],
      "isFixedGasLimit": false
    },
    {
      "hash": "0xf3e4cd3d9db7562d3be6fa7daa466c24dc5acaf2f8631bac7bc48d984d51b7fe",
      "transactionType": "CALL",
      "contractName": null,
      "contractAddress": "0x0cb14143e45130996961814f4a2f3cf17586f484",
      "function": "SubmitProject(uint256,string,string)",
      "arguments": [
        "5",
        "Submitted 5",
        "QmHash"
      ],
      "transaction": {
        "from": "0x86e74256bec87d5f542bc9214b708a9de78e3998",
        "to": "0x0cb14143e45130996961814f4a2f3cf17586f484",
        "gas": "0x22251",
        "value": "0x0",
        "input": "0xe7c701510000000000000000000000000000000000000000000000000000000000000005000000000000000000000000000000000000000000000000000000000000006000000000000000000000000000000000000000000000000000000000000000a0000000000000000000000000000000000000000000000000000000000000000b5375626d697474656420350000000000000000000000000000000000000000000000000000000000000000000000000000000000000000000000000000000006516d486173680000000000000000000000000000000000000000000000000000",
        "nonce": "0xdc",
        "chainId": "0xa4ec"
      },
      "additionalContracts": [],
      "isFixedGasLimit": false
    },
    {
      "hash": "0x1763d2358ad22c6113ad27ef734664fc206cfe2e1100ba38f746d629b5d4cbae",
      "transactionType": "CALL",
      "contractName": null,
      "contractAddress": "0x0cb14143e45130996961814f4a2f3cf17586f484",
      "function": "SubmitProject(uint256,string,string)",
      "arguments": [
        "6",
        "Submitted 6",
        "QmHash"
      ],
      "transaction": {
        "from": "0x86e74256bec87d5f542bc9214b708a9de78e3998",
        "to": "0x0cb14143e45130996961814f4a2f3cf17586f484",
        "gas": "0x22251",
        "value": "0x0",
        "input": "0xe7c701510000000000000000000000000000000000000000000000000000000000000006000000000000000000000000000000000000000000000000000000000000006000000000000000000000000000000000000000000000000000000000000000a0000000000000000000000000000000000000000000000000000000000000000b5375626d697474656420360000000000000000000000000000000000000000000000000000000000000000000000000000000000000000000000000000000006516d486173680000000000000000000000000000000000000000000000000000",
        "nonce": "0xdd",
        "chainId": "0xa4ec"
      },
      "additionalContracts": [],
      "isFixedGasLimit": false
    },
    {
      "hash": "0x4db4215bc5f3896741c99d9186b7e4f3889fb572136fb62e9657068d78164a4e",
      "transactionType": "CALL",
      "contractName": null,
      "contractAddress": "0x0cb14143e45130996961814f4a2f3cf17586f484",
      "function": "SubmitProject(uint256,string,string)",
      "arguments": [
        "7",
        "Submitted 7",
        "QmHash"
      ],
      "transaction": {
        "from": "0x86e74256bec87d5f542bc9214b708a9de78e3998",
        "to": "0x0cb14143e45130996961814f4a2f3cf17586f484",
        "gas": "0x22251",
        "value": "0x0",
        "input": "0xe7c701510000000000000000000000000000000000000000000000000000000000000007000000000000000000000000000000000000000000000000000000000000006000000000000000000000000000000000000000000000000000000000000000a0000000000000000000000000000000000000000000000000000000000000000b5375626d697474656420370000000000000000000000000000000000000000000000000000000000000000000000000000000000000000000000000000000006516d486173680000000000000000000000000000000000000000000000000000",
        "nonce": "0xde",
        "chainId": "0xa4ec"
      },
      "additionalContracts": [],
      "isFixedGasLimit": false
    },
    {
      "hash": "0x127774fb2c3c0a5511c97d28ba69697a71453588c33a2f4b9214ba500750db51",
      "transactionType": "CALL",
      "contractName": null,
      "contractAddress": "0x0cb14143e45130996961814f4a2f3cf17586f484",
      "function": "SubmitProject(uint256,string,string)",
      "arguments": [
        "8",
        "Submitted 8",
        "QmHash"
      ],
      "transaction": {
        "from": "0x86e74256bec87d5f542bc9214b708a9de78e3998",
        "to": "0x0cb14143e45130996961814f4a2f3cf17586f484",
        "gas": "0x22251",
        "value": "0x0",
        "input": "0xe7c701510000000000000000000000000000000000000000000000000000000000000008000000000000000000000000000000000000000000000000000000000000006000000000000000000000000000000000000000000000000000000000000000a0000000000000000000000000000000000000000000000000000000000000000b5375626d697474656420380000000000000000000000000000000000000000000000000000000000000000000000000000000000000000000000000000000006516d486173680000000000000000000000000000000000000000000000000000",
        "nonce": "0xdf",
        "chainId": "0xa4ec"
      },
      "additionalContracts": [],
      "isFixedGasLimit": false
    },
    {
      "hash": "0xfc8d1aaaf07ee05ea68bfbcfac88b15ae788cab60155351d846e06d71b74ce1e",
      "transactionType": "CALL",
      "contractName": null,
      "contractAddress": "0x0cb14143e45130996961814f4a2f3cf17586f484",
      "function": "SubmitProject(uint256,string,string)",
      "arguments": [
        "9",
        "Submitted 9",
        "QmHash"
      ],
      "transaction": {
        "from": "0x86e74256bec87d5f542bc9214b708a9de78e3998",
        "to": "0x0cb14143e45130996961814f4a2f3cf17586f484",
        "gas": "0x22251",
        "value": "0x0",
        "input": "0xe7c701510000000000000000000000000000000000000000000000000000000000000009000000000000000000000000000000000000000000000000000000000000006000000000000000000000000000000000000000000000000000000000000000a0000000000000000000000000000000000000000000000000000000000000000b5375626d697474656420390000000000000000000000000000000000000000000000000000000000000000000000000000000000000000000000000000000006516d486173680000000000000000000000000000000000000000000000000000",
        "nonce": "0xe0",
        "chainId": "0xa4ec"
      },
      "additionalContracts": [],
      "isFixedGasLimit": false
    },
    {
      "hash": "0x02b9f0c38b01815a9e091173012c17e433bc92841a6114a0d4d0f739e2311299",
      "transactionType": "CALL",
      "contractName": null,
      "contractAddress": "0x0cb14143e45130996961814f4a2f3cf17586f484",
      "function": "SubmitProject(uint256,string,string)",
      "arguments": [
        "10",
        "Submitted 10",
        "QmHash"
      ],
      "transaction": {
        "from": "0x86e74256bec87d5f542bc9214b708a9de78e3998",
        "to": "0x0cb14143e45130996961814f4a2f3cf17586f484",
        "gas": "0x24286",
        "value": "0x0",
        "input": "0xe7c70151000000000000000000000000000000000000000000000000000000000000000a000000000000000000000000000000000000000000000000000000000000006000000000000000000000000000000000000000000000000000000000000000a0000000000000000000000000000000000000000000000000000000000000000c5375626d697474656420313000000000000000000000000000000000000000000000000000000000000000000000000000000000000000000000000000000006516d486173680000000000000000000000000000000000000000000000000000",
        "nonce": "0xe1",
        "chainId": "0xa4ec"
      },
      "additionalContracts": [],
      "isFixedGasLimit": false
    }
  ],
  "receipts": [
    {
      "status": "0x1",
      "cumulativeGasUsed": "0x15e10a",
      "logs": [
        {
          "address": "0x0cb14143e45130996961814f4a2f3cf17586f484",
          "topics": [
            "0x1a2329f37ef34ee1917f3b35f441382c68224401dd616d88ff4e8938f2b1dd3d"
          ],
          "data": "0x000000000000000000000000000000000000000000000000000000000000006000000000000000000000000086e74256bec87d5f542bc9214b708a9de78e399800000000000000000000000000000000000000000000000000000000000027110000000000000000000000000000000000000000000000000000000000000009436f6d70616e7920310000000000000000000000000000000000000000000000",
          "blockHash": "0x4ef943419ed72622a7b250c60523c1ccbb47f723a76df4bc7ae3e8eede037dd6",
          "blockNumber": "0x32e92fe",
          "transactionHash": "0x5b5876d110cd11f268a35d3e22df4ebb259ebf4240339755f4710e001204ecb9",
          "transactionIndex": "0x9",
          "logIndex": "0x24",
          "removed": false
        }
      ],
      "logsBloom": "0x00000000000000400000000000000000000000000200000000000000000000000000000000000000000000000000000000000000000000000000000000000000000000000000000000000000000000000000000000000000000000000000000000000000000000000000000000000000008000000000000000000000000000000000000000000000000000000000000000000000000000000000000000000000000000000000000000000000000000000000000000000000000000000000000001000000200000000000000000000000000000000000000000000000000000004000000000000000000000000000000000000000000000000000000000000000",
      "type": "0x0",
      "transactionHash": "0x5b5876d110cd11f268a35d3e22df4ebb259ebf4240339755f4710e001204ecb9",
      "transactionIndex": "0x9",
      "blockHash": "0x4ef943419ed72622a7b250c60523c1ccbb47f723a76df4bc7ae3e8eede037dd6",
      "blockNumber": "0x32e92fe",
      "gasUsed": "0x32f3c",
      "effectiveGasPrice": "0x5d22cfc40",
      "from": "0x86e74256bec87d5f542bc9214b708a9de78e3998",
      "to": "0x0cb14143e45130996961814f4a2f3cf17586f484",
      "contractAddress": null,
      "l1BaseFeeScalar": "0x0",
      "l1BlobBaseFee": "0x1753855",
      "l1BlobBaseFeeScalar": "0x0",
      "l1Fee": "0x0",
      "l1GasPrice": "0xd6c1c99",
      "l1GasUsed": "0x85e"
    },
    {
      "status": "0x1",
      "cumulativeGasUsed": "0x35f268",
      "logs": [
        {
          "address": "0x0cb14143e45130996961814f4a2f3cf17586f484",
          "topics": [
            "0x1a2329f37ef34ee1917f3b35f441382c68224401dd616d88ff4e8938f2b1dd3d"
          ],
          "data": "0x000000000000000000000000000000000000000000000000000000000000006000000000000000000000000086e74256bec87d5f542bc9214b708a9de78e399800000000000000000000000000000000000000000000000000000000000027120000000000000000000000000000000000000000000000000000000000000009436f6d70616e7920320000000000000000000000000000000000000000000000",
          "blockHash": "0x4ef943419ed72622a7b250c60523c1ccbb47f723a76df4bc7ae3e8eede037dd6",
          "blockNumber": "0x32e92fe",
          "transactionHash": "0x8c2dfffa40b41d8e89107fc7779868a47c1e936e0b9d1720fef4bcfa6dd7bdd7",
          "transactionIndex": "0xf",
          "logIndex": "0xf3",
          "removed": false
        }
      ],
      "logsBloom": "0x00000000000000400000000000000000000000000200000000000000000000000000000000000000000000000000000000000000000000000000000000000000000000000000000000000000000000000000000000000000000000000000000000000000000000000000000000000000008000000000000000000000000000000000000000000000000000000000000000000000000000000000000000000000000000000000000000000000000000000000000000000000000000000000000001000000200000000000000000000000000000000000000000000000000000004000000000000000000000000000000000000000000000000000000000000000",
      "type": "0x0",
      "transactionHash": "0x8c2dfffa40b41d8e89107fc7779868a47c1e936e0b9d1720fef4bcfa6dd7bdd7",
      "transactionIndex": "0xf",
      "blockHash": "0x4ef943419ed72622a7b250c60523c1ccbb47f723a76df4bc7ae3e8eede037dd6",
      "blockNumber": "0x32e92fe",
      "gasUsed": "0x2ec70",
      "effectiveGasPrice": "0x5d22cfc40",
      "from": "0x86e74256bec87d5f542bc9214b708a9de78e3998",
      "to": "0x0cb14143e45130996961814f4a2f3cf17586f484",
      "contractAddress": null,
      "l1BaseFeeScalar": "0x0",
      "l1BlobBaseFee": "0x1753855",
      "l1BlobBaseFeeScalar": "0x0",
      "l1Fee": "0x0",
      "l1GasPrice": "0xd6c1c99",
      "l1GasUsed": "0x843"
    },
    {
      "status": "0x1",
      "cumulativeGasUsed": "0x38ded8",
      "logs": [
        {
          "address": "0x0cb14143e45130996961814f4a2f3cf17586f484",
          "topics": [
            "0x1a2329f37ef34ee1917f3b35f441382c68224401dd616d88ff4e8938f2b1dd3d"
          ],
          "data": "0x000000000000000000000000000000000000000000000000000000000000006000000000000000000000000086e74256bec87d5f542bc9214b708a9de78e399800000000000000000000000000000000000000000000000000000000000027130000000000000000000000000000000000000000000000000000000000000009436f6d70616e7920330000000000000000000000000000000000000000000000",
          "blockHash": "0x4ef943419ed72622a7b250c60523c1ccbb47f723a76df4bc7ae3e8eede037dd6",
          "blockNumber": "0x32e92fe",
          "transactionHash": "0xbfafaf0a13c777c91ff4ca9c3cee01e22580eb6012a7cf8a78916ae7f49339fb",
          "transactionIndex": "0x10",
          "logIndex": "0xf4",
          "removed": false
        }
      ],
      "logsBloom": "0x00000000000000400000000000000000000000000200000000000000000000000000000000000000000000000000000000000000000000000000000000000000000000000000000000000000000000000000000000000000000000000000000000000000000000000000000000000000008000000000000000000000000000000000000000000000000000000000000000000000000000000000000000000000000000000000000000000000000000000000000000000000000000000000000001000000200000000000000000000000000000000000000000000000000000004000000000000000000000000000000000000000000000000000000000000000",
      "type": "0x0",
      "transactionHash": "0xbfafaf0a13c777c91ff4ca9c3cee01e22580eb6012a7cf8a78916ae7f49339fb",
      "transactionIndex": "0x10",
      "blockHash": "0x4ef943419ed72622a7b250c60523c1ccbb47f723a76df4bc7ae3e8eede037dd6",
      "blockNumber": "0x32e92fe",
      "gasUsed": "0x2ec70",
      "effectiveGasPrice": "0x5d22cfc40",
      "from": "0x86e74256bec87d5f542bc9214b708a9de78e3998",
      "to": "0x0cb14143e45130996961814f4a2f3cf17586f484",
      "contractAddress": null,
      "l1BaseFeeScalar": "0x0",
      "l1BlobBaseFee": "0x1753855",
      "l1BlobBaseFeeScalar": "0x0",
      "l1Fee": "0x0",
      "l1GasPrice": "0xd6c1c99",
      "l1GasUsed": "0x879"
    },
    {
      "status": "0x1",
      "cumulativeGasUsed": "0x3bcb48",
      "logs": [
        {
          "address": "0x0cb14143e45130996961814f4a2f3cf17586f484",
          "topics": [
            "0x1a2329f37ef34ee1917f3b35f441382c68224401dd616d88ff4e8938f2b1dd3d"
          ],
          "data": "0x000000000000000000000000000000000000000000000000000000000000006000000000000000000000000086e74256bec87d5f542bc9214b708a9de78e399800000000000000000000000000000000000000000000000000000000000027140000000000000000000000000000000000000000000000000000000000000009436f6d70616e7920340000000000000000000000000000000000000000000000",
          "blockHash": "0x4ef943419ed72622a7b250c60523c1ccbb47f723a76df4bc7ae3e8eede037dd6",
          "blockNumber": "0x32e92fe",
          "transactionHash": "0xf5b3e0503d0ce225f43f6f62856df48ce7b0d1e92c3627637d23ea7f14d5e684",
          "transactionIndex": "0x11",
          "logIndex": "0xf5",
          "removed": false
        }
      ],
      "logsBloom": "0x00000000000000400000000000000000000000000200000000000000000000000000000000000000000000000000000000000000000000000000000000000000000000000000000000000000000000000000000000000000000000000000000000000000000000000000000000000000008000000000000000000000000000000000000000000000000000000000000000000000000000000000000000000000000000000000000000000000000000000000000000000000000000000000000001000000200000000000000000000000000000000000000000000000000000004000000000000000000000000000000000000000000000000000000000000000",
      "type": "0x0",
      "transactionHash": "0xf5b3e0503d0ce225f43f6f62856df48ce7b0d1e92c3627637d23ea7f14d5e684",
      "transactionIndex": "0x11",
      "blockHash": "0x4ef943419ed72622a7b250c60523c1ccbb47f723a76df4bc7ae3e8eede037dd6",
      "blockNumber": "0x32e92fe",
      "gasUsed": "0x2ec70",
      "effectiveGasPrice": "0x5d22cfc40",
      "from": "0x86e74256bec87d5f542bc9214b708a9de78e3998",
      "to": "0x0cb14143e45130996961814f4a2f3cf17586f484",
      "contractAddress": null,
      "l1BaseFeeScalar": "0x0",
      "l1BlobBaseFee": "0x1753855",
      "l1BlobBaseFeeScalar": "0x0",
      "l1Fee": "0x0",
      "l1GasPrice": "0xd6c1c99",
      "l1GasUsed": "0x879"
    },
    {
      "status": "0x1",
      "cumulativeGasUsed": "0x3eb7b8",
      "logs": [
        {
          "address": "0x0cb14143e45130996961814f4a2f3cf17586f484",
          "topics": [
            "0x1a2329f37ef34ee1917f3b35f441382c68224401dd616d88ff4e8938f2b1dd3d"
          ],
          "data": "0x000000000000000000000000000000000000000000000000000000000000006000000000000000000000000086e74256bec87d5f542bc9214b708a9de78e399800000000000000000000000000000000000000000000000000000000000027150000000000000000000000000000000000000000000000000000000000000009436f6d70616e7920350000000000000000000000000000000000000000000000",
          "blockHash": "0x4ef943419ed72622a7b250c60523c1ccbb47f723a76df4bc7ae3e8eede037dd6",
          "blockNumber": "0x32e92fe",
          "transactionHash": "0xb17ffd6a57b216587ae319ec01d6d98ce8e84d294227aa6ef4caf5c7bdb55f12",
          "transactionIndex": "0x12",
          "logIndex": "0xf6",
          "removed": false
        }
      ],
      "logsBloom": "0x00000000000000400000000000000000000000000200000000000000000000000000000000000000000000000000000000000000000000000000000000000000000000000000000000000000000000000000000000000000000000000000000000000000000000000000000000000000008000000000000000000000000000000000000000000000000000000000000000000000000000000000000000000000000000000000000000000000000000000000000000000000000000000000000001000000200000000000000000000000000000000000000000000000000000004000000000000000000000000000000000000000000000000000000000000000",
      "type": "0x0",
      "transactionHash": "0xb17ffd6a57b216587ae319ec01d6d98ce8e84d294227aa6ef4caf5c7bdb55f12",
      "transactionIndex": "0x12",
      "blockHash": "0x4ef943419ed72622a7b250c60523c1ccbb47f723a76df4bc7ae3e8eede037dd6",
      "blockNumber": "0x32e92fe",
      "gasUsed": "0x2ec70",
      "effectiveGasPrice": "0x5d22cfc40",
      "from": "0x86e74256bec87d5f542bc9214b708a9de78e3998",
      "to": "0x0cb14143e45130996961814f4a2f3cf17586f484",
      "contractAddress": null,
      "l1BaseFeeScalar": "0x0",
      "l1BlobBaseFee": "0x1753855",
      "l1BlobBaseFeeScalar": "0x0",
      "l1Fee": "0x0",
      "l1GasPrice": "0xd6c1c99",
      "l1GasUsed": "0x879"
    },
    {
      "status": "0x1",
      "cumulativeGasUsed": "0x41a428",
      "logs": [
        {
          "address": "0x0cb14143e45130996961814f4a2f3cf17586f484",
          "topics": [
            "0x1a2329f37ef34ee1917f3b35f441382c68224401dd616d88ff4e8938f2b1dd3d"
          ],
          "data": "0x000000000000000000000000000000000000000000000000000000000000006000000000000000000000000086e74256bec87d5f542bc9214b708a9de78e399800000000000000000000000000000000000000000000000000000000000027160000000000000000000000000000000000000000000000000000000000000009436f6d70616e7920360000000000000000000000000000000000000000000000",
          "blockHash": "0x4ef943419ed72622a7b250c60523c1ccbb47f723a76df4bc7ae3e8eede037dd6",
          "blockNumber": "0x32e92fe",
          "transactionHash": "0xa76d4af29c9155a1b82101903106eb30beca0c1a666aee986a83f8bcf112ea1f",
          "transactionIndex": "0x13",
          "logIndex": "0xf7",
          "removed": false
        }
      ],
      "logsBloom": "0x00000000000000400000000000000000000000000200000000000000000000000000000000000000000000000000000000000000000000000000000000000000000000000000000000000000000000000000000000000000000000000000000000000000000000000000000000000000008000000000000000000000000000000000000000000000000000000000000000000000000000000000000000000000000000000000000000000000000000000000000000000000000000000000000001000000200000000000000000000000000000000000000000000000000000004000000000000000000000000000000000000000000000000000000000000000",
      "type": "0x0",
      "transactionHash": "0xa76d4af29c9155a1b82101903106eb30beca0c1a666aee986a83f8bcf112ea1f",
      "transactionIndex": "0x13",
      "blockHash": "0x4ef943419ed72622a7b250c60523c1ccbb47f723a76df4bc7ae3e8eede037dd6",
      "blockNumber": "0x32e92fe",
      "gasUsed": "0x2ec70",
      "effectiveGasPrice": "0x5d22cfc40",
      "from": "0x86e74256bec87d5f542bc9214b708a9de78e3998",
      "to": "0x0cb14143e45130996961814f4a2f3cf17586f484",
      "contractAddress": null,
      "l1BaseFeeScalar": "0x0",
      "l1BlobBaseFee": "0x1753855",
      "l1BlobBaseFeeScalar": "0x0",
      "l1Fee": "0x0",
      "l1GasPrice": "0xd6c1c99",
      "l1GasUsed": "0x879"
    },
    {
      "status": "0x1",
      "cumulativeGasUsed": "0x449098",
      "logs": [
        {
          "address": "0x0cb14143e45130996961814f4a2f3cf17586f484",
          "topics": [
            "0x1a2329f37ef34ee1917f3b35f441382c68224401dd616d88ff4e8938f2b1dd3d"
          ],
          "data": "0x000000000000000000000000000000000000000000000000000000000000006000000000000000000000000086e74256bec87d5f542bc9214b708a9de78e399800000000000000000000000000000000000000000000000000000000000027170000000000000000000000000000000000000000000000000000000000000009436f6d70616e7920370000000000000000000000000000000000000000000000",
          "blockHash": "0x4ef943419ed72622a7b250c60523c1ccbb47f723a76df4bc7ae3e8eede037dd6",
          "blockNumber": "0x32e92fe",
          "transactionHash": "0x2eeebf21d2fec025f56530bffc995372e1e969beadb67211968675c6a5616a41",
          "transactionIndex": "0x14",
          "logIndex": "0xf8",
          "removed": false
        }
      ],
      "logsBloom": "0x00000000000000400000000000000000000000000200000000000000000000000000000000000000000000000000000000000000000000000000000000000000000000000000000000000000000000000000000000000000000000000000000000000000000000000000000000000000008000000000000000000000000000000000000000000000000000000000000000000000000000000000000000000000000000000000000000000000000000000000000000000000000000000000000001000000200000000000000000000000000000000000000000000000000000004000000000000000000000000000000000000000000000000000000000000000",
      "type": "0x0",
      "transactionHash": "0x2eeebf21d2fec025f56530bffc995372e1e969beadb67211968675c6a5616a41",
      "transactionIndex": "0x14",
      "blockHash": "0x4ef943419ed72622a7b250c60523c1ccbb47f723a76df4bc7ae3e8eede037dd6",
      "blockNumber": "0x32e92fe",
      "gasUsed": "0x2ec70",
      "effectiveGasPrice": "0x5d22cfc40",
      "from": "0x86e74256bec87d5f542bc9214b708a9de78e3998",
      "to": "0x0cb14143e45130996961814f4a2f3cf17586f484",
      "contractAddress": null,
      "l1BaseFeeScalar": "0x0",
      "l1BlobBaseFee": "0x1753855",
      "l1BlobBaseFeeScalar": "0x0",
      "l1Fee": "0x0",
      "l1GasPrice": "0xd6c1c99",
      "l1GasUsed": "0x879"
    },
    {
      "status": "0x1",
      "cumulativeGasUsed": "0x143f9f",
      "logs": [
        {
          "address": "0x0cb14143e45130996961814f4a2f3cf17586f484",
          "topics": [
            "0x1a2329f37ef34ee1917f3b35f441382c68224401dd616d88ff4e8938f2b1dd3d"
          ],
          "data": "0x000000000000000000000000000000000000000000000000000000000000006000000000000000000000000086e74256bec87d5f542bc9214b708a9de78e399800000000000000000000000000000000000000000000000000000000000027180000000000000000000000000000000000000000000000000000000000000009436f6d70616e7920380000000000000000000000000000000000000000000000",
          "blockHash": "0xd5db6047a66b48269fc70c44ffa3ae9d3ef4883dffeb9b5472fc2b46ba37f894",
          "blockNumber": "0x32e92ff",
          "transactionHash": "0x4b6a400c2dbcee4967115460afa1253d26c8da498f067f82c5cc2f8e76bb09f6",
          "transactionIndex": "0x8",
          "logIndex": "0x28",
          "removed": false
        }
      ],
      "logsBloom": "0x00000000000000400000000000000000000000000200000000000000000000000000000000000000000000000000000000000000000000000000000000000000000000000000000000000000000000000000000000000000000000000000000000000000000000000000000000000000008000000000000000000000000000000000000000000000000000000000000000000000000000000000000000000000000000000000000000000000000000000000000000000000000000000000000001000000200000000000000000000000000000000000000000000000000000004000000000000000000000000000000000000000000000000000000000000000",
      "type": "0x0",
      "transactionHash": "0x4b6a400c2dbcee4967115460afa1253d26c8da498f067f82c5cc2f8e76bb09f6",
      "transactionIndex": "0x8",
      "blockHash": "0xd5db6047a66b48269fc70c44ffa3ae9d3ef4883dffeb9b5472fc2b46ba37f894",
      "blockNumber": "0x32e92ff",
      "gasUsed": "0x2ec70",
      "effectiveGasPrice": "0x5d22cfc40",
      "from": "0x86e74256bec87d5f542bc9214b708a9de78e3998",
      "to": "0x0cb14143e45130996961814f4a2f3cf17586f484",
      "contractAddress": null,
      "l1BaseFeeScalar": "0x0",
      "l1BlobBaseFee": "0x1753855",
      "l1BlobBaseFeeScalar": "0x0",
      "l1Fee": "0x0",
      "l1GasPrice": "0xd6c1c99",
      "l1GasUsed": "0x86c"
    },
    {
      "status": "0x1",
      "cumulativeGasUsed": "0x172c0f",
      "logs": [
        {
          "address": "0x0cb14143e45130996961814f4a2f3cf17586f484",
          "topics": [
            "0x1a2329f37ef34ee1917f3b35f441382c68224401dd616d88ff4e8938f2b1dd3d"
          ],
          "data": "0x000000000000000000000000000000000000000000000000000000000000006000000000000000000000000086e74256bec87d5f542bc9214b708a9de78e399800000000000000000000000000000000000000000000000000000000000027190000000000000000000000000000000000000000000000000000000000000009436f6d70616e7920390000000000000000000000000000000000000000000000",
          "blockHash": "0xd5db6047a66b48269fc70c44ffa3ae9d3ef4883dffeb9b5472fc2b46ba37f894",
          "blockNumber": "0x32e92ff",
          "transactionHash": "0xd33a2ce77d1d70bee4420df3f28952d72f353255b5945a679adb79b13ea4cb40",
          "transactionIndex": "0x9",
          "logIndex": "0x29",
          "removed": false
        }
      ],
      "logsBloom": "0x00000000000000400000000000000000000000000200000000000000000000000000000000000000000000000000000000000000000000000000000000000000000000000000000000000000000000000000000000000000000000000000000000000000000000000000000000000000008000000000000000000000000000000000000000000000000000000000000000000000000000000000000000000000000000000000000000000000000000000000000000000000000000000000000001000000200000000000000000000000000000000000000000000000000000004000000000000000000000000000000000000000000000000000000000000000",
      "type": "0x0",
      "transactionHash": "0xd33a2ce77d1d70bee4420df3f28952d72f353255b5945a679adb79b13ea4cb40",
      "transactionIndex": "0x9",
      "blockHash": "0xd5db6047a66b48269fc70c44ffa3ae9d3ef4883dffeb9b5472fc2b46ba37f894",
      "blockNumber": "0x32e92ff",
      "gasUsed": "0x2ec70",
      "effectiveGasPrice": "0x5d22cfc40",
      "from": "0x86e74256bec87d5f542bc9214b708a9de78e3998",
      "to": "0x0cb14143e45130996961814f4a2f3cf17586f484",
      "contractAddress": null,
      "l1BaseFeeScalar": "0x0",
      "l1BlobBaseFee": "0x1753855",
      "l1BlobBaseFeeScalar": "0x0",
      "l1Fee": "0x0",
      "l1GasPrice": "0xd6c1c99",
      "l1GasUsed": "0x879"
    },
    {
      "status": "0x1",
      "cumulativeGasUsed": "0x1a1897",
      "logs": [
        {
          "address": "0x0cb14143e45130996961814f4a2f3cf17586f484",
          "topics": [
            "0x1a2329f37ef34ee1917f3b35f441382c68224401dd616d88ff4e8938f2b1dd3d"
          ],
          "data": "0x000000000000000000000000000000000000000000000000000000000000006000000000000000000000000086e74256bec87d5f542bc9214b708a9de78e3998000000000000000000000000000000000000000000000000000000000000271a000000000000000000000000000000000000000000000000000000000000000a436f6d70616e7920313000000000000000000000000000000000000000000000",
          "blockHash": "0xd5db6047a66b48269fc70c44ffa3ae9d3ef4883dffeb9b5472fc2b46ba37f894",
          "blockNumber": "0x32e92ff",
          "transactionHash": "0x5df973ab07173e367a73ef633635daf49b24f8a784554fb4f89e5c36a7937491",
          "transactionIndex": "0xa",
          "logIndex": "0x2a",
          "removed": false
        }
      ],
      "logsBloom": "0x00000000000000400000000000000000000000000200000000000000000000000000000000000000000000000000000000000000000000000000000000000000000000000000000000000000000000000000000000000000000000000000000000000000000000000000000000000000008000000000000000000000000000000000000000000000000000000000000000000000000000000000000000000000000000000000000000000000000000000000000000000000000000000000000001000000200000000000000000000000000000000000000000000000000000004000000000000000000000000000000000000000000000000000000000000000",
      "type": "0x0",
      "transactionHash": "0x5df973ab07173e367a73ef633635daf49b24f8a784554fb4f89e5c36a7937491",
      "transactionIndex": "0xa",
      "blockHash": "0xd5db6047a66b48269fc70c44ffa3ae9d3ef4883dffeb9b5472fc2b46ba37f894",
      "blockNumber": "0x32e92ff",
      "gasUsed": "0x2ec88",
      "effectiveGasPrice": "0x5d22cfc40",
      "from": "0x86e74256bec87d5f542bc9214b708a9de78e3998",
      "to": "0x0cb14143e45130996961814f4a2f3cf17586f484",
      "contractAddress": null,
      "l1BaseFeeScalar": "0x0",
      "l1BlobBaseFee": "0x1753855",
      "l1BlobBaseFeeScalar": "0x0",
      "l1Fee": "0x0",
      "l1GasPrice": "0xd6c1c99",
      "l1GasUsed": "0x886"
    },
    {
      "status": "0x1",
      "cumulativeGasUsed": "0x1be6ea",
      "logs": [
        {
          "address": "0x0cb14143e45130996961814f4a2f3cf17586f484",
          "topics": [
            "0xdd21516e8d64b364bd7a9c1607150492404c8502f6b066727a4e4b1f6b12c963"
          ],
          "data": "0x0000000000000000000000000000000000000000000000000000000000000001000000000000000000000000000000000000000000000000000000000000008000000000000000000000000000000000000000000000000000000000000000c000000000000000000000000086e74256bec87d5f542bc9214b708a9de78e3998000000000000000000000000000000000000000000000000000000000000000b5375626d697474656420310000000000000000000000000000000000000000000000000000000000000000000000000000000000000000000000000000000006516d486173680000000000000000000000000000000000000000000000000000",
          "blockHash": "0xd5db6047a66b48269fc70c44ffa3ae9d3ef4883dffeb9b5472fc2b46ba37f894",
          "blockNumber": "0x32e92ff",
          "transactionHash": "0x8a6d8d0848c8aedf1b8833ca58017de14ffa5523f515a7fa0622524c894ba0a0",
          "transactionIndex": "0xb",
          "logIndex": "0x2b",
          "removed": false
        }
      ],
      "logsBloom": "0x00000000000000000000000000000000000000000200000000000000000000000000000000000000000000000000000000000000000000000000000000000000000000400000001000000000000000000000000000000000000000000000000000000000000000000000000000000000008000000000000000000000000000000000000000000000000000000000000000000000000000000000000000000000000000000000000000000000000000000000000000000000000000000000000000000000200000000000000000000000000000000000000000000000000000000000000000000000000000000004000000000000000000000000000000000000",
      "type": "0x0",
      "transactionHash": "0x8a6d8d0848c8aedf1b8833ca58017de14ffa5523f515a7fa0622524c894ba0a0",
      "transactionIndex": "0xb",
      "blockHash": "0xd5db6047a66b48269fc70c44ffa3ae9d3ef4883dffeb9b5472fc2b46ba37f894",
      "blockNumber": "0x32e92ff",
      "gasUsed": "0x1ce53",
      "effectiveGasPrice": "0x5d22cfc40",
      "from": "0x86e74256bec87d5f542bc9214b708a9de78e3998",
      "to": "0x0cb14143e45130996961814f4a2f3cf17586f484",
      "contractAddress": null,
      "l1BaseFeeScalar": "0x0",
      "l1BlobBaseFee": "0x1753855",
      "l1BlobBaseFeeScalar": "0x0",
      "l1Fee": "0x0",
      "l1GasPrice": "0xd6c1c99",
      "l1GasUsed": "0x647"
    },
    {
      "status": "0x1",
      "cumulativeGasUsed": "0x1d7271",
      "logs": [
        {
          "address": "0x0cb14143e45130996961814f4a2f3cf17586f484",
          "topics": [
            "0xdd21516e8d64b364bd7a9c1607150492404c8502f6b066727a4e4b1f6b12c963"
          ],
          "data": "0x0000000000000000000000000000000000000000000000000000000000000001000000000000000000000000000000000000000000000000000000000000008000000000000000000000000000000000000000000000000000000000000000c000000000000000000000000086e74256bec87d5f542bc9214b708a9de78e3998000000000000000000000000000000000000000000000000000000000000000b5375626d697474656420320000000000000000000000000000000000000000000000000000000000000000000000000000000000000000000000000000000006516d486173680000000000000000000000000000000000000000000000000000",
          "blockHash": "0xd5db6047a66b48269fc70c44ffa3ae9d3ef4883dffeb9b5472fc2b46ba37f894",
          "blockNumber": "0x32e92ff",
          "transactionHash": "0xb35a45a892ca7748b5e8af68bfa7c61ef832478bda626034a1acbfc1c449da73",
          "transactionIndex": "0xc",
          "logIndex": "0x2c",
          "removed": false
        }
      ],
      "logsBloom": "0x00000000000000000000000000000000000000000200000000000000000000000000000000000000000000000000000000000000000000000000000000000000000000400000001000000000000000000000000000000000000000000000000000000000000000000000000000000000008000000000000000000000000000000000000000000000000000000000000000000000000000000000000000000000000000000000000000000000000000000000000000000000000000000000000000000000200000000000000000000000000000000000000000000000000000000000000000000000000000000004000000000000000000000000000000000000",
      "type": "0x0",
      "transactionHash": "0xb35a45a892ca7748b5e8af68bfa7c61ef832478bda626034a1acbfc1c449da73",
      "transactionIndex": "0xc",
      "blockHash": "0xd5db6047a66b48269fc70c44ffa3ae9d3ef4883dffeb9b5472fc2b46ba37f894",
      "blockNumber": "0x32e92ff",
      "gasUsed": "0x18b87",
      "effectiveGasPrice": "0x5d22cfc40",
      "from": "0x86e74256bec87d5f542bc9214b708a9de78e3998",
      "to": "0x0cb14143e45130996961814f4a2f3cf17586f484",
      "contractAddress": null,
      "l1BaseFeeScalar": "0x0",
      "l1BlobBaseFee": "0x1753855",
      "l1BlobBaseFeeScalar": "0x0",
      "l1Fee": "0x0",
      "l1GasPrice": "0xd6c1c99",
      "l1GasUsed": "0x647"
    },
    {
      "status": "0x1",
      "cumulativeGasUsed": "0x23aee6",
      "logs": [
        {
          "address": "0x0cb14143e45130996961814f4a2f3cf17586f484",
          "topics": [
            "0xdd21516e8d64b364bd7a9c1607150492404c8502f6b066727a4e4b1f6b12c963"
          ],
          "data": "0x0000000000000000000000000000000000000000000000000000000000000001000000000000000000000000000000000000000000000000000000000000008000000000000000000000000000000000000000000000000000000000000000c000000000000000000000000086e74256bec87d5f542bc9214b708a9de78e3998000000000000000000000000000000000000000000000000000000000000000b5375626d697474656420330000000000000000000000000000000000000000000000000000000000000000000000000000000000000000000000000000000006516d486173680000000000000000000000000000000000000000000000000000",
          "blockHash": "0xd5db6047a66b48269fc70c44ffa3ae9d3ef4883dffeb9b5472fc2b46ba37f894",
          "blockNumber": "0x32e92ff",
          "transactionHash": "0xf8ffd75b049dd38f6def9f7e8a6a89c27767c3c549f063e8cb42f5ec569e318c",
          "transactionIndex": "0xe",
          "logIndex": "0x30",
          "removed": false
        }
      ],
      "logsBloom": "0x00000000000000000000000000000000000000000200000000000000000000000000000000000000000000000000000000000000000000000000000000000000000000400000001000000000000000000000000000000000000000000000000000000000000000000000000000000000008000000000000000000000000000000000000000000000000000000000000000000000000000000000000000000000000000000000000000000000000000000000000000000000000000000000000000000000200000000000000000000000000000000000000000000000000000000000000000000000000000000004000000000000000000000000000000000000",
      "type": "0x0",
      "transactionHash": "0xf8ffd75b049dd38f6def9f7e8a6a89c27767c3c549f063e8cb42f5ec569e318c",
      "transactionIndex": "0xe",
      "blockHash": "0xd5db6047a66b48269fc70c44ffa3ae9d3ef4883dffeb9b5472fc2b46ba37f894",
      "blockNumber": "0x32e92ff",
      "gasUsed": "0x18b87",
      "effectiveGasPrice": "0x5d22cfc40",
      "from": "0x86e74256bec87d5f542bc9214b708a9de78e3998",
      "to": "0x0cb14143e45130996961814f4a2f3cf17586f484",
      "contractAddress": null,
      "l1BaseFeeScalar": "0x0",
      "l1BlobBaseFee": "0x1753855",
      "l1BlobBaseFeeScalar": "0x0",
      "l1Fee": "0x0",
      "l1GasPrice": "0xd6c1c99",
      "l1GasUsed": "0x647"
    },
    {
      "status": "0x1",
      "cumulativeGasUsed": "0x253a6d",
      "logs": [
        {
          "address": "0x0cb14143e45130996961814f4a2f3cf17586f484",
          "topics": [
            "0xdd21516e8d64b364bd7a9c1607150492404c8502f6b066727a4e4b1f6b12c963"
          ],
          "data": "0x0000000000000000000000000000000000000000000000000000000000000001000000000000000000000000000000000000000000000000000000000000008000000000000000000000000000000000000000000000000000000000000000c000000000000000000000000086e74256bec87d5f542bc9214b708a9de78e3998000000000000000000000000000000000000000000000000000000000000000b5375626d697474656420340000000000000000000000000000000000000000000000000000000000000000000000000000000000000000000000000000000006516d486173680000000000000000000000000000000000000000000000000000",
          "blockHash": "0xd5db6047a66b48269fc70c44ffa3ae9d3ef4883dffeb9b5472fc2b46ba37f894",
          "blockNumber": "0x32e92ff",
          "transactionHash": "0xae7008c6030e620704963b8b2eee90349ab5cb9e162d48e285b4c4561e58d2ad",
          "transactionIndex": "0xf",
          "logIndex": "0x31",
          "removed": false
        }
      ],
      "logsBloom": "0x00000000000000000000000000000000000000000200000000000000000000000000000000000000000000000000000000000000000000000000000000000000000000400000001000000000000000000000000000000000000000000000000000000000000000000000000000000000008000000000000000000000000000000000000000000000000000000000000000000000000000000000000000000000000000000000000000000000000000000000000000000000000000000000000000000000200000000000000000000000000000000000000000000000000000000000000000000000000000000004000000000000000000000000000000000000",
      "type": "0x0",
      "transactionHash": "0xae7008c6030e620704963b8b2eee90349ab5cb9e162d48e285b4c4561e58d2ad",
      "transactionIndex": "0xf",
      "blockHash": "0xd5db6047a66b48269fc70c44ffa3ae9d3ef4883dffeb9b5472fc2b46ba37f894",
      "blockNumber": "0x32e92ff",
      "gasUsed": "0x18b87",
      "effectiveGasPrice": "0x5d22cfc40",
      "from": "0x86e74256bec87d5f542bc9214b708a9de78e3998",
      "to": "0x0cb14143e45130996961814f4a2f3cf17586f484",
      "contractAddress": null,
      "l1BaseFeeScalar": "0x0",
      "l1BlobBaseFee": "0x1753855",
      "l1BlobBaseFeeScalar": "0x0",
      "l1Fee": "0x0",
      "l1GasPrice": "0xd6c1c99",
      "l1GasUsed": "0x647"
    },
    {
      "status": "0x1",
      "cumulativeGasUsed": "0x2952e9",
      "logs": [
        {
          "address": "0x0cb14143e45130996961814f4a2f3cf17586f484",
          "topics": [
            "0xdd21516e8d64b364bd7a9c1607150492404c8502f6b066727a4e4b1f6b12c963"
          ],
          "data": "0x0000000000000000000000000000000000000000000000000000000000000001000000000000000000000000000000000000000000000000000000000000008000000000000000000000000000000000000000000000000000000000000000c000000000000000000000000086e74256bec87d5f542bc9214b708a9de78e3998000000000000000000000000000000000000000000000000000000000000000b5375626d697474656420350000000000000000000000000000000000000000000000000000000000000000000000000000000000000000000000000000000006516d486173680000000000000000000000000000000000000000000000000000",
          "blockHash": "0x94ca11591fea8ecc693775c9a8a392b34a0af51610952d2f0746088e072c3a52",
          "blockNumber": "0x32e9300",
          "transactionHash": "0xf3e4cd3d9db7562d3be6fa7daa466c24dc5acaf2f8631bac7bc48d984d51b7fe",
          "transactionIndex": "0xc",
          "logIndex": "0xf3",
          "removed": false
        }
      ],
      "logsBloom": "0x00000000000000000000000000000000000000000200000000000000000000000000000000000000000000000000000000000000000000000000000000000000000000400000001000000000000000000000000000000000000000000000000000000000000000000000000000000000008000000000000000000000000000000000000000000000000000000000000000000000000000000000000000000000000000000000000000000000000000000000000000000000000000000000000000000000200000000000000000000000000000000000000000000000000000000000000000000000000000000004000000000000000000000000000000000000",
      "type": "0x0",
      "transactionHash": "0xf3e4cd3d9db7562d3be6fa7daa466c24dc5acaf2f8631bac7bc48d984d51b7fe",
      "transactionIndex": "0xc",
      "blockHash": "0x94ca11591fea8ecc693775c9a8a392b34a0af51610952d2f0746088e072c3a52",
      "blockNumber": "0x32e9300",
      "gasUsed": "0x18b87",
      "effectiveGasPrice": "0x5d22cfc40",
      "from": "0x86e74256bec87d5f542bc9214b708a9de78e3998",
      "to": "0x0cb14143e45130996961814f4a2f3cf17586f484",
      "contractAddress": null,
      "l1BaseFeeScalar": "0x0",
      "l1BlobBaseFee": "0x1753855",
      "l1BlobBaseFeeScalar": "0x0",
      "l1Fee": "0x0",
      "l1GasPrice": "0xd6c1c99",
      "l1GasUsed": "0x647"
    },
    {
      "status": "0x1",
      "cumulativeGasUsed": "0x2ade70",
      "logs": [
        {
          "address": "0x0cb14143e45130996961814f4a2f3cf17586f484",
          "topics": [
            "0xdd21516e8d64b364bd7a9c1607150492404c8502f6b066727a4e4b1f6b12c963"
          ],
          "data": "0x0000000000000000000000000000000000000000000000000000000000000001000000000000000000000000000000000000000000000000000000000000008000000000000000000000000000000000000000000000000000000000000000c000000000000000000000000086e74256bec87d5f542bc9214b708a9de78e3998000000000000000000000000000000000000000000000000000000000000000b5375626d697474656420360000000000000000000000000000000000000000000000000000000000000000000000000000000000000000000000000000000006516d486173680000000000000000000000000000000000000000000000000000",
          "blockHash": "0x94ca11591fea8ecc693775c9a8a392b34a0af51610952d2f0746088e072c3a52",
          "blockNumber": "0x32e9300",
          "transactionHash": "0x1763d2358ad22c6113ad27ef734664fc206cfe2e1100ba38f746d629b5d4cbae",
          "transactionIndex": "0xd",
          "logIndex": "0xf4",
          "removed": false
        }
      ],
      "logsBloom": "0x00000000000000000000000000000000000000000200000000000000000000000000000000000000000000000000000000000000000000000000000000000000000000400000001000000000000000000000000000000000000000000000000000000000000000000000000000000000008000000000000000000000000000000000000000000000000000000000000000000000000000000000000000000000000000000000000000000000000000000000000000000000000000000000000000000000200000000000000000000000000000000000000000000000000000000000000000000000000000000004000000000000000000000000000000000000",
      "type": "0x0",
      "transactionHash": "0x1763d2358ad22c6113ad27ef734664fc206cfe2e1100ba38f746d629b5d4cbae",
      "transactionIndex": "0xd",
      "blockHash": "0x94ca11591fea8ecc693775c9a8a392b34a0af51610952d2f0746088e072c3a52",
      "blockNumber": "0x32e9300",
      "gasUsed": "0x18b87",
      "effectiveGasPrice": "0x5d22cfc40",
      "from": "0x86e74256bec87d5f542bc9214b708a9de78e3998",
      "to": "0x0cb14143e45130996961814f4a2f3cf17586f484",
      "contractAddress": null,
      "l1BaseFeeScalar": "0x0",
      "l1BlobBaseFee": "0x1753855",
      "l1BlobBaseFeeScalar": "0x0",
      "l1Fee": "0x0",
      "l1GasPrice": "0xd6c1c99",
      "l1GasUsed": "0x647"
    },
    {
      "status": "0x1",
      "cumulativeGasUsed": "0x2c69f7",
      "logs": [
        {
          "address": "0x0cb14143e45130996961814f4a2f3cf17586f484",
          "topics": [
            "0xdd21516e8d64b364bd7a9c1607150492404c8502f6b066727a4e4b1f6b12c963"
          ],
          "data": "0x0000000000000000000000000000000000000000000000000000000000000001000000000000000000000000000000000000000000000000000000000000008000000000000000000000000000000000000000000000000000000000000000c000000000000000000000000086e74256bec87d5f542bc9214b708a9de78e3998000000000000000000000000000000000000000000000000000000000000000b5375626d697474656420370000000000000000000000000000000000000000000000000000000000000000000000000000000000000000000000000000000006516d486173680000000000000000000000000000000000000000000000000000",
          "blockHash": "0x94ca11591fea8ecc693775c9a8a392b34a0af51610952d2f0746088e072c3a52",
          "blockNumber": "0x32e9300",
          "transactionHash": "0x4db4215bc5f3896741c99d9186b7e4f3889fb572136fb62e9657068d78164a4e",
          "transactionIndex": "0xe",
          "logIndex": "0xf5",
          "removed": false
        }
      ],
      "logsBloom": "0x00000000000000000000000000000000000000000200000000000000000000000000000000000000000000000000000000000000000000000000000000000000000000400000001000000000000000000000000000000000000000000000000000000000000000000000000000000000008000000000000000000000000000000000000000000000000000000000000000000000000000000000000000000000000000000000000000000000000000000000000000000000000000000000000000000000200000000000000000000000000000000000000000000000000000000000000000000000000000000004000000000000000000000000000000000000",
      "type": "0x0",
      "transactionHash": "0x4db4215bc5f3896741c99d9186b7e4f3889fb572136fb62e9657068d78164a4e",
      "transactionIndex": "0xe",
      "blockHash": "0x94ca11591fea8ecc693775c9a8a392b34a0af51610952d2f0746088e072c3a52",
      "blockNumber": "0x32e9300",
      "gasUsed": "0x18b87",
      "effectiveGasPrice": "0x5d22cfc40",
      "from": "0x86e74256bec87d5f542bc9214b708a9de78e3998",
      "to": "0x0cb14143e45130996961814f4a2f3cf17586f484",
      "contractAddress": null,
      "l1BaseFeeScalar": "0x0",
      "l1BlobBaseFee": "0x1753855",
      "l1BlobBaseFeeScalar": "0x0",
      "l1Fee": "0x0",
      "l1GasPrice": "0xd6c1c99",
      "l1GasUsed": "0x647"
    },
    {
      "status": "0x1",
      "cumulativeGasUsed": "0x2df57e",
      "logs": [
        {
          "address": "0x0cb14143e45130996961814f4a2f3cf17586f484",
          "topics": [
            "0xdd21516e8d64b364bd7a9c1607150492404c8502f6b066727a4e4b1f6b12c963"
          ],
          "data": "0x0000000000000000000000000000000000000000000000000000000000000001000000000000000000000000000000000000000000000000000000000000008000000000000000000000000000000000000000000000000000000000000000c000000000000000000000000086e74256bec87d5f542bc9214b708a9de78e3998000000000000000000000000000000000000000000000000000000000000000b5375626d697474656420380000000000000000000000000000000000000000000000000000000000000000000000000000000000000000000000000000000006516d486173680000000000000000000000000000000000000000000000000000",
          "blockHash": "0x94ca11591fea8ecc693775c9a8a392b34a0af51610952d2f0746088e072c3a52",
          "blockNumber": "0x32e9300",
          "transactionHash": "0x127774fb2c3c0a5511c97d28ba69697a71453588c33a2f4b9214ba500750db51",
          "transactionIndex": "0xf",
          "logIndex": "0xf6",
          "removed": false
        }
      ],
      "logsBloom": "0x00000000000000000000000000000000000000000200000000000000000000000000000000000000000000000000000000000000000000000000000000000000000000400000001000000000000000000000000000000000000000000000000000000000000000000000000000000000008000000000000000000000000000000000000000000000000000000000000000000000000000000000000000000000000000000000000000000000000000000000000000000000000000000000000000000000200000000000000000000000000000000000000000000000000000000000000000000000000000000004000000000000000000000000000000000000",
      "type": "0x0",
      "transactionHash": "0x127774fb2c3c0a5511c97d28ba69697a71453588c33a2f4b9214ba500750db51",
      "transactionIndex": "0xf",
      "blockHash": "0x94ca11591fea8ecc693775c9a8a392b34a0af51610952d2f0746088e072c3a52",
      "blockNumber": "0x32e9300",
      "gasUsed": "0x18b87",
      "effectiveGasPrice": "0x5d22cfc40",
      "from": "0x86e74256bec87d5f542bc9214b708a9de78e3998",
      "to": "0x0cb14143e45130996961814f4a2f3cf17586f484",
      "contractAddress": null,
      "l1BaseFeeScalar": "0x0",
      "l1BlobBaseFee": "0x1753855",
      "l1BlobBaseFeeScalar": "0x0",
      "l1Fee": "0x0",
      "l1GasPrice": "0xd6c1c99",
      "l1GasUsed": "0x647"
    },
    {
      "status": "0x1",
      "cumulativeGasUsed": "0x2f8105",
      "logs": [
        {
          "address": "0x0cb14143e45130996961814f4a2f3cf17586f484",
          "topics": [
            "0xdd21516e8d64b364bd7a9c1607150492404c8502f6b066727a4e4b1f6b12c963"
          ],
          "data": "0x0000000000000000000000000000000000000000000000000000000000000001000000000000000000000000000000000000000000000000000000000000008000000000000000000000000000000000000000000000000000000000000000c000000000000000000000000086e74256bec87d5f542bc9214b708a9de78e3998000000000000000000000000000000000000000000000000000000000000000b5375626d697474656420390000000000000000000000000000000000000000000000000000000000000000000000000000000000000000000000000000000006516d486173680000000000000000000000000000000000000000000000000000",
          "blockHash": "0x94ca11591fea8ecc693775c9a8a392b34a0af51610952d2f0746088e072c3a52",
          "blockNumber": "0x32e9300",
          "transactionHash": "0xfc8d1aaaf07ee05ea68bfbcfac88b15ae788cab60155351d846e06d71b74ce1e",
          "transactionIndex": "0x10",
          "logIndex": "0xf7",
          "removed": false
        }
      ],
      "logsBloom": "0x00000000000000000000000000000000000000000200000000000000000000000000000000000000000000000000000000000000000000000000000000000000000000400000001000000000000000000000000000000000000000000000000000000000000000000000000000000000008000000000000000000000000000000000000000000000000000000000000000000000000000000000000000000000000000000000000000000000000000000000000000000000000000000000000000000000200000000000000000000000000000000000000000000000000000000000000000000000000000000004000000000000000000000000000000000000",
      "type": "0x0",
      "transactionHash": "0xfc8d1aaaf07ee05ea68bfbcfac88b15ae788cab60155351d846e06d71b74ce1e",
      "transactionIndex": "0x10",
      "blockHash": "0x94ca11591fea8ecc693775c9a8a392b34a0af51610952d2f0746088e072c3a52",
      "blockNumber": "0x32e9300",
      "gasUsed": "0x18b87",
      "effectiveGasPrice": "0x5d22cfc40",
      "from": "0x86e74256bec87d5f542bc9214b708a9de78e3998",
      "to": "0x0cb14143e45130996961814f4a2f3cf17586f484",
      "contractAddress": null,
      "l1BaseFeeScalar": "0x0",
      "l1BlobBaseFee": "0x1753855",
      "l1BlobBaseFeeScalar": "0x0",
      "l1Fee": "0x0",
      "l1GasPrice": "0xd6c1c99",
      "l1GasUsed": "0x647"
    },
    {
      "status": "0x1",
      "cumulativeGasUsed": "0x310c98",
      "logs": [
        {
          "address": "0x0cb14143e45130996961814f4a2f3cf17586f484",
          "topics": [
            "0xdd21516e8d64b364bd7a9c1607150492404c8502f6b066727a4e4b1f6b12c963"
          ],
          "data": "0x0000000000000000000000000000000000000000000000000000000000000001000000000000000000000000000000000000000000000000000000000000008000000000000000000000000000000000000000000000000000000000000000c000000000000000000000000086e74256bec87d5f542bc9214b708a9de78e3998000000000000000000000000000000000000000000000000000000000000000c5375626d697474656420313000000000000000000000000000000000000000000000000000000000000000000000000000000000000000000000000000000006516d486173680000000000000000000000000000000000000000000000000000",
          "blockHash": "0x94ca11591fea8ecc693775c9a8a392b34a0af51610952d2f0746088e072c3a52",
          "blockNumber": "0x32e9300",
          "transactionHash": "0x02b9f0c38b01815a9e091173012c17e433bc92841a6114a0d4d0f739e2311299",
          "transactionIndex": "0x11",
          "logIndex": "0xf8",
          "removed": false
        }
      ],
      "logsBloom": "0x00000000000000000000000000000000000000000200000000000000000000000000000000000000000000000000000000000000000000000000000000000000000000400000001000000000000000000000000000000000000000000000000000000000000000000000000000000000008000000000000000000000000000000000000000000000000000000000000000000000000000000000000000000000000000000000000000000000000000000000000000000000000000000000000000000000200000000000000000000000000000000000000000000000000000000000000000000000000000000004000000000000000000000000000000000000",
      "type": "0x0",
      "transactionHash": "0x02b9f0c38b01815a9e091173012c17e433bc92841a6114a0d4d0f739e2311299",
      "transactionIndex": "0x11",
      "blockHash": "0x94ca11591fea8ecc693775c9a8a392b34a0af51610952d2f0746088e072c3a52",
      "blockNumber": "0x32e9300",
      "gasUsed": "0x18b93",
      "effectiveGasPrice": "0x5d22cfc40",
      "from": "0x86e74256bec87d5f542bc9214b708a9de78e3998",
      "to": "0x0cb14143e45130996961814f4a2f3cf17586f484",
      "contractAddress": null,
      "l1BaseFeeScalar": "0x0",
      "l1BlobBaseFee": "0x1753855",
      "l1BlobBaseFeeScalar": "0x0",
      "l1Fee": "0x0",
      "l1GasPrice": "0xd6c1c99",
      "l1GasUsed": "0x654"
    }
  ],
  "libraries": [],
  "pending": [],
  "returns": {},
  "timestamp": 1765284695,
  "chain": 42220,
  "commit": "72d095e"
}