{
  "transactions": [
    {
      "hash": "0x4368823cadac3e78867a57b223dc1c5e4fcd55e96a10f701de0c6a917bb03f3c",
      "transactionType": "CALL",
      "contractName": null,
      "contractAddress": "0x34a99057232cc4a7eb21398fd0052474f4b5bcc5",
      "function": "createContractor(string,uint256,uint256,string,string,string)",
      "arguments": [
        "Company 1",
        "10001",
        "20001",
        "Address 1",
        "QmHash1",
        "QmHash2"
      ],
      "transaction": {
        "from": "0x9ed266a53c461a6a69c2cc0a08bda6198e9bfb32",
        "to": "0x34a99057232cc4a7eb21398fd0052474f4b5bcc5",
        "gas": "0x46609",
        "value": "0x0",
        "input": "0x807c032800000000000000000000000000000000000000000000000000000000000000c000000000000000000000000000000000000000000000000000000000000027110000000000000000000000000000000000000000000000000000000000004e210000000000000000000000000000000000000000000000000000000000000100000000000000000000000000000000000000000000000000000000000000014000000000000000000000000000000000000000000000000000000000000001800000000000000000000000000000000000000000000000000000000000000009436f6d70616e7920310000000000000000000000000000000000000000000000000000000000000000000000000000000000000000000000000000000000000941646472657373203100000000000000000000000000000000000000000000000000000000000000000000000000000000000000000000000000000000000007516d4861736831000000000000000000000000000000000000000000000000000000000000000000000000000000000000000000000000000000000000000007516d486173683200000000000000000000000000000000000000000000000000",
        "nonce": "0xa",
        "chainId": "0xa4ec"
      },
      "additionalContracts": [],
      "isFixedGasLimit": false
    },
    {
      "hash": "0xe2efcc0f1260bf99442f4facbcdfec40dd08c709cd2e35fd438b33ca09cf1cfb",
      "transactionType": "CALL",
      "contractName": null,
      "contractAddress": "0x34a99057232cc4a7eb21398fd0052474f4b5bcc5",
      "function": "createContractor(string,uint256,uint256,string,string,string)",
      "arguments": [
        "Company 2",
        "10002",
        "20002",
        "Address 2",
        "QmHash1",
        "QmHash2"
      ],
      "transaction": {
        "from": "0x9ed266a53c461a6a69c2cc0a08bda6198e9bfb32",
        "to": "0x34a99057232cc4a7eb21398fd0052474f4b5bcc5",
        "gas": "0x409c7",
        "value": "0x0",
        "input": "0x807c032800000000000000000000000000000000000000000000000000000000000000c000000000000000000000000000000000000000000000000000000000000027120000000000000000000000000000000000000000000000000000000000004e220000000000000000000000000000000000000000000000000000000000000100000000000000000000000000000000000000000000000000000000000000014000000000000000000000000000000000000000000000000000000000000001800000000000000000000000000000000000000000000000000000000000000009436f6d70616e7920320000000000000000000000000000000000000000000000000000000000000000000000000000000000000000000000000000000000000941646472657373203200000000000000000000000000000000000000000000000000000000000000000000000000000000000000000000000000000000000007516d4861736831000000000000000000000000000000000000000000000000000000000000000000000000000000000000000000000000000000000000000007516d486173683200000000000000000000000000000000000000000000000000",
        "nonce": "0xb",
        "chainId": "0xa4ec"
      },
      "additionalContracts": [],
      "isFixedGasLimit": false
    },
    {
      "hash": "0xe9fe7f32cb9aa8023ebe8812f52db3dc5d981b0e81aec43d16057577f2490000",
      "transactionType": "CALL",
      "contractName": null,
      "contractAddress": "0x34a99057232cc4a7eb21398fd0052474f4b5bcc5",
      "function": "createContractor(string,uint256,uint256,string,string,string)",
      "arguments": [
        "Company 3",
        "10003",
        "20003",
        "Address 3",
        "QmHash1",
        "QmHash2"
      ],
      "transaction": {
        "from": "0x9ed266a53c461a6a69c2cc0a08bda6198e9bfb32",
        "to": "0x34a99057232cc4a7eb21398fd0052474f4b5bcc5",
        "gas": "0x409c7",
        "value": "0x0",
        "input": "0x807c032800000000000000000000000000000000000000000000000000000000000000c000000000000000000000000000000000000000000000000000000000000027130000000000000000000000000000000000000000000000000000000000004e230000000000000000000000000000000000000000000000000000000000000100000000000000000000000000000000000000000000000000000000000000014000000000000000000000000000000000000000000000000000000000000001800000000000000000000000000000000000000000000000000000000000000009436f6d70616e7920330000000000000000000000000000000000000000000000000000000000000000000000000000000000000000000000000000000000000941646472657373203300000000000000000000000000000000000000000000000000000000000000000000000000000000000000000000000000000000000007516d4861736831000000000000000000000000000000000000000000000000000000000000000000000000000000000000000000000000000000000000000007516d486173683200000000000000000000000000000000000000000000000000",
        "nonce": "0xc",
        "chainId": "0xa4ec"
      },
      "additionalContracts": [],
      "isFixedGasLimit": false
    },
    {
      "hash": "0xa599ff2638d1842f59061894c157127d0a41369ab34e861295f3bfa0fe8f6a54",
      "transactionType": "CALL",
      "contractName": null,
      "contractAddress": "0x34a99057232cc4a7eb21398fd0052474f4b5bcc5",
      "function": "createContractor(string,uint256,uint256,string,string,string)",
      "arguments": [
        "Company 4",
        "10004",
        "20004",
        "Address 4",
        "QmHash1",
        "QmHash2"
      ],
      "transaction": {
        "from": "0x9ed266a53c461a6a69c2cc0a08bda6198e9bfb32",
        "to": "0x34a99057232cc4a7eb21398fd0052474f4b5bcc5",
        "gas": "0x409c7",
        "value": "0x0",
        "input": "0x807c032800000000000000000000000000000000000000000000000000000000000000c000000000000000000000000000000000000000000000000000000000000027140000000000000000000000000000000000000000000000000000000000004e240000000000000000000000000000000000000000000000000000000000000100000000000000000000000000000000000000000000000000000000000000014000000000000000000000000000000000000000000000000000000000000001800000000000000000000000000000000000000000000000000000000000000009436f6d70616e7920340000000000000000000000000000000000000000000000000000000000000000000000000000000000000000000000000000000000000941646472657373203400000000000000000000000000000000000000000000000000000000000000000000000000000000000000000000000000000000000007516d4861736831000000000000000000000000000000000000000000000000000000000000000000000000000000000000000000000000000000000000000007516d486173683200000000000000000000000000000000000000000000000000",
        "nonce": "0xd",
        "chainId": "0xa4ec"
      },
      "additionalContracts": [],
      "isFixedGasLimit": false
    },
    {
      "hash": "0x560902eeb348f205b4b3039687db4fb854928f8e1e1ddb55abfa818825dbaac7",
      "transactionType": "CALL",
      "contractName": null,
      "contractAddress": "0x34a99057232cc4a7eb21398fd0052474f4b5bcc5",
      "function": "createContractor(string,uint256,uint256,string,string,string)",
      "arguments": [
        "Company 5",
        "10005",
        "20005",
        "Address 5",
        "QmHash1",
        "QmHash2"
      ],
      "transaction": {
        "from": "0x9ed266a53c461a6a69c2cc0a08bda6198e9bfb32",
        "to": "0x34a99057232cc4a7eb21398fd0052474f4b5bcc5",
        "gas": "0x409c7",
        "value": "0x0",
        "input": "0x807c032800000000000000000000000000000000000000000000000000000000000000c000000000000000000000000000000000000000000000000000000000000027150000000000000000000000000000000000000000000000000000000000004e250000000000000000000000000000000000000000000000000000000000000100000000000000000000000000000000000000000000000000000000000000014000000000000000000000000000000000000000000000000000000000000001800000000000000000000000000000000000000000000000000000000000000009436f6d70616e7920350000000000000000000000000000000000000000000000000000000000000000000000000000000000000000000000000000000000000941646472657373203500000000000000000000000000000000000000000000000000000000000000000000000000000000000000000000000000000000000007516d4861736831000000000000000000000000000000000000000000000000000000000000000000000000000000000000000000000000000000000000000007516d486173683200000000000000000000000000000000000000000000000000",
        "nonce": "0xe",
        "chainId": "0xa4ec"
      },
      "additionalContracts": [],
      "isFixedGasLimit": false
    },
    {
      "hash": "0xc50cc8f0fa62bd9b41f67136e9e01fa8a406afdb7b962a619232e448d234cf2c",
      "transactionType": "CALL",
      "contractName": null,
      "contractAddress": "0x34a99057232cc4a7eb21398fd0052474f4b5bcc5",
      "function": "createContractor(string,uint256,uint256,string,string,string)",
      "arguments": [
        "Company 6",
        "10006",
        "20006",
        "Address 6",
        "QmHash1",
        "QmHash2"
      ],
      "transaction": {
        "from": "0x9ed266a53c461a6a69c2cc0a08bda6198e9bfb32",
        "to": "0x34a99057232cc4a7eb21398fd0052474f4b5bcc5",
        "gas": "0x409c7",
        "value": "0x0",
        "input": "0x807c032800000000000000000000000000000000000000000000000000000000000000c000000000000000000000000000000000000000000000000000000000000027160000000000000000000000000000000000000000000000000000000000004e260000000000000000000000000000000000000000000000000000000000000100000000000000000000000000000000000000000000000000000000000000014000000000000000000000000000000000000000000000000000000000000001800000000000000000000000000000000000000000000000000000000000000009436f6d70616e7920360000000000000000000000000000000000000000000000000000000000000000000000000000000000000000000000000000000000000941646472657373203600000000000000000000000000000000000000000000000000000000000000000000000000000000000000000000000000000000000007516d4861736831000000000000000000000000000000000000000000000000000000000000000000000000000000000000000000000000000000000000000007516d486173683200000000000000000000000000000000000000000000000000",
        "nonce": "0xf",
        "chainId": "0xa4ec"
      },
      "additionalContracts": [],
      "isFixedGasLimit": false
    },
    {
      "hash": "0x13293f65595134b25e84b5ca8a7ab7cea55d7cbc616d971db5b75ba857a4ce12",
      "transactionType": "CALL",
      "contractName": null,
      "contractAddress": "0x34a99057232cc4a7eb21398fd0052474f4b5bcc5",
      "function": "createContractor(string,uint256,uint256,string,string,string)",
      "arguments": [
        "Company 7",
        "10007",
        "20007",
        "Address 7",
        "QmHash1",
        "QmHash2"
      ],
      "transaction": {
        "from": "0x9ed266a53c461a6a69c2cc0a08bda6198e9bfb32",
        "to": "0x34a99057232cc4a7eb21398fd0052474f4b5bcc5",
        "gas": "0x409c7",
        "value": "0x0",
        "input": "0x807c032800000000000000000000000000000000000000000000000000000000000000c000000000000000000000000000000000000000000000000000000000000027170000000000000000000000000000000000000000000000000000000000004e270000000000000000000000000000000000000000000000000000000000000100000000000000000000000000000000000000000000000000000000000000014000000000000000000000000000000000000000000000000000000000000001800000000000000000000000000000000000000000000000000000000000000009436f6d70616e7920370000000000000000000000000000000000000000000000000000000000000000000000000000000000000000000000000000000000000941646472657373203700000000000000000000000000000000000000000000000000000000000000000000000000000000000000000000000000000000000007516d4861736831000000000000000000000000000000000000000000000000000000000000000000000000000000000000000000000000000000000000000007516d486173683200000000000000000000000000000000000000000000000000",
        "nonce": "0x10",
        "chainId": "0xa4ec"
      },
      "additionalContracts": [],
      "isFixedGasLimit": false
    },
    {
      "hash": "0x286778fa805ba1ffc8afbbcdbebdff73a88f5e0c0c5d6537ebc6d8b466ac5732",
      "transactionType": "CALL",
      "contractName": null,
      "contractAddress": "0x34a99057232cc4a7eb21398fd0052474f4b5bcc5",
      "function": "createContractor(string,uint256,uint256,string,string,string)",
      "arguments": [
        "Company 8",
        "10008",
        "20008",
        "Address 8",
        "QmHash1",
        "QmHash2"
      ],
      "transaction": {
        "from": "0x9ed266a53c461a6a69c2cc0a08bda6198e9bfb32",
        "to": "0x34a99057232cc4a7eb21398fd0052474f4b5bcc5",
        "gas": "0x409c7",
        "value": "0x0",
        "input": "0x807c032800000000000000000000000000000000000000000000000000000000000000c000000000000000000000000000000000000000000000000000000000000027180000000000000000000000000000000000000000000000000000000000004e280000000000000000000000000000000000000000000000000000000000000100000000000000000000000000000000000000000000000000000000000000014000000000000000000000000000000000000000000000000000000000000001800000000000000000000000000000000000000000000000000000000000000009436f6d70616e7920380000000000000000000000000000000000000000000000000000000000000000000000000000000000000000000000000000000000000941646472657373203800000000000000000000000000000000000000000000000000000000000000000000000000000000000000000000000000000000000007516d4861736831000000000000000000000000000000000000000000000000000000000000000000000000000000000000000000000000000000000000000007516d486173683200000000000000000000000000000000000000000000000000",
        "nonce": "0x11",
        "chainId": "0xa4ec"
      },
      "additionalContracts": [],
      "isFixedGasLimit": false
    },
    {
      "hash": "0x2575a8544eb298cd65f8b00fb84db54620808e94003969c213ef8603372861a3",
      "transactionType": "CALL",
      "contractName": null,
      "contractAddress": "0x34a99057232cc4a7eb21398fd0052474f4b5bcc5",
      "function": "createContractor(string,uint256,uint256,string,string,string)",
      "arguments": [
        "Company 9",
        "10009",
        "20009",
        "Address 9",
        "QmHash1",
        "QmHash2"
      ],
      "transaction": {
        "from": "0x9ed266a53c461a6a69c2cc0a08bda6198e9bfb32",
        "to": "0x34a99057232cc4a7eb21398fd0052474f4b5bcc5",
        "gas": "0x409c7",
        "value": "0x0",
        "input": "0x807c032800000000000000000000000000000000000000000000000000000000000000c000000000000000000000000000000000000000000000000000000000000027190000000000000000000000000000000000000000000000000000000000004e290000000000000000000000000000000000000000000000000000000000000100000000000000000000000000000000000000000000000000000000000000014000000000000000000000000000000000000000000000000000000000000001800000000000000000000000000000000000000000000000000000000000000009436f6d70616e7920390000000000000000000000000000000000000000000000000000000000000000000000000000000000000000000000000000000000000941646472657373203900000000000000000000000000000000000000000000000000000000000000000000000000000000000000000000000000000000000007516d4861736831000000000000000000000000000000000000000000000000000000000000000000000000000000000000000000000000000000000000000007516d486173683200000000000000000000000000000000000000000000000000",
        "nonce": "0x12",
        "chainId": "0xa4ec"
      },
      "additionalContracts": [],
      "isFixedGasLimit": false
    },
    {
      "hash": "0x49dc7f73911d4825ed6bd623cb29ceda4cb57fe2509babd4a1a6466220f55c3d",
      "transactionType": "CALL",
      "contractName": null,
      "contractAddress": "0x34a99057232cc4a7eb21398fd0052474f4b5bcc5",
      "function": "createContractor(string,uint256,uint256,string,string,string)",
      "arguments": [
        "Company 10",
        "10010",
        "20010",
        "Address 10",
        "QmHash1",
        "QmHash2"
      ],
      "transaction": {
        "from": "0x9ed266a53c461a6a69c2cc0a08bda6198e9bfb32",
        "to": "0x34a99057232cc4a7eb21398fd0052474f4b5bcc5",
        "gas": "0x409e8",
        "value": "0x0",
        "input": "0x807c032800000000000000000000000000000000000000000000000000000000000000c0000000000000000000000000000000000000000000000000000000000000271a0000000000000000000000000000000000000000000000000000000000004e2a000000000000000000000000000000000000000000000000000000000000010000000000000000000000000000000000000000000000000000000000000001400000000000000000000000000000000000000000000000000000000000000180000000000000000000000000000000000000000000000000000000000000000a436f6d70616e7920313000000000000000000000000000000000000000000000000000000000000000000000000000000000000000000000000000000000000a41646472657373203130000000000000000000000000000000000000000000000000000000000000000000000000000000000000000000000000000000000007516d4861736831000000000000000000000000000000000000000000000000000000000000000000000000000000000000000000000000000000000000000007516d486173683200000000000000000000000000000000000000000000000000",
        "nonce": "0x13",
        "chainId": "0xa4ec"
      },
      "additionalContracts": [],
      "isFixedGasLimit": false
    },
    {
      "hash": "0xd2592217d43f7cf0fd729b3b0a89f76da2e4280269d960a6cf1cc31245a4b01d",
      "transactionType": "CALL",
      "contractName": null,
      "contractAddress": "0x34a99057232cc4a7eb21398fd0052474f4b5bcc5",
      "function": "SubmitProject(uint256,string,string)",
      "arguments": [
        "1",
        "Submitted 1",
        "QmHash"
      ],
      "transaction": {
        "from": "0x9ed266a53c461a6a69c2cc0a08bda6198e9bfb32",
        "to": "0x34a99057232cc4a7eb21398fd0052474f4b5bcc5",
        "gas": "0x2a425",
        "value": "0x0",
        "input": "0xe7c701510000000000000000000000000000000000000000000000000000000000000001000000000000000000000000000000000000000000000000000000000000006000000000000000000000000000000000000000000000000000000000000000a0000000000000000000000000000000000000000000000000000000000000000b5375626d697474656420310000000000000000000000000000000000000000000000000000000000000000000000000000000000000000000000000000000006516d486173680000000000000000000000000000000000000000000000000000",
        "nonce": "0x14",
        "chainId": "0xa4ec"
      },
      "additionalContracts": [],
      "isFixedGasLimit": false
    },
    {
      "hash": "0x6c0d525434e3e66e3dd32b7a43161186e589c1cbb2ac00197ddf001f9b2a0ed1",
      "transactionType": "CALL",
      "contractName": null,
      "contractAddress": "0x34a99057232cc4a7eb21398fd0052474f4b5bcc5",
      "function": "SubmitProject(uint256,string,string)",
      "arguments": [
        "2",
        "Submitted 2",
        "QmHash"
      ],
      "transaction": {
        "from": "0x9ed266a53c461a6a69c2cc0a08bda6198e9bfb32",
        "to": "0x34a99057232cc4a7eb21398fd0052474f4b5bcc5",
        "gas": "0x22251",
        "value": "0x0",
        "input": "0xe7c701510000000000000000000000000000000000000000000000000000000000000002000000000000000000000000000000000000000000000000000000000000006000000000000000000000000000000000000000000000000000000000000000a0000000000000000000000000000000000000000000000000000000000000000b5375626d697474656420320000000000000000000000000000000000000000000000000000000000000000000000000000000000000000000000000000000006516d486173680000000000000000000000000000000000000000000000000000",
        "nonce": "0x15",
        "chainId": "0xa4ec"
      },
      "additionalContracts": [],
      "isFixedGasLimit": false
    },
    {
      "hash": "0x7f0bcd53a390e68abc1f85edbfbb40eaa911b31f02ae9b03f592661c5feacbcb",
      "transactionType": "CALL",
      "contractName": null,
      "contractAddress": "0x34a99057232cc4a7eb21398fd0052474f4b5bcc5",
      "function": "SubmitProject(uint256,string,string)",
      "arguments": [
        "3",
        "Submitted 3",
        "QmHash"
      ],
      "transaction": {
        "from": "0x9ed266a53c461a6a69c2cc0a08bda6198e9bfb32",
        "to": "0x34a99057232cc4a7eb21398fd0052474f4b5bcc5",
        "gas": "0x22251",
        "value": "0x0",
        "input": "0xe7c701510000000000000000000000000000000000000000000000000000000000000003000000000000000000000000000000000000000000000000000000000000006000000000000000000000000000000000000000000000000000000000000000a0000000000000000000000000000000000000000000000000000000000000000b5375626d697474656420330000000000000000000000000000000000000000000000000000000000000000000000000000000000000000000000000000000006516d486173680000000000000000000000000000000000000000000000000000",
        "nonce": "0x16",
        "chainId": "0xa4ec"
      },
      "additionalContracts": [],
      "isFixedGasLimit": false
    },
    {
      "hash": "0xf079ef4eceb052ec415599a1e45ca46b879b08e0d37a4926f3035ee7e205ea4e",
      "transactionType": "CALL",
      "contractName": null,
      "contractAddress": "0x34a99057232cc4a7eb21398fd0052474f4b5bcc5",
      "function": "SubmitProject(uint256,string,string)",
      "arguments": [
        "4",
        "Submitted 4",
        "QmHash"
      ],
      "transaction": {
        "from": "0x9ed266a53c461a6a69c2cc0a08bda6198e9bfb32",
        "to": "0x34a99057232cc4a7eb21398fd0052474f4b5bcc5",
        "gas": "0x22251",
        "value": "0x0",
        "input": "0xe7c701510000000000000000000000000000000000000000000000000000000000000004000000000000000000000000000000000000000000000000000000000000006000000000000000000000000000000000000000000000000000000000000000a0000000000000000000000000000000000000000000000000000000000000000b5375626d697474656420340000000000000000000000000000000000000000000000000000000000000000000000000000000000000000000000000000000006516d486173680000000000000000000000000000000000000000000000000000",
        "nonce": "0x17",
        "chainId": "0xa4ec"
      },
      "additionalContracts": [],
      "isFixedGasLimit": false
    },
    {
      "hash": "0xe8f67dc28ff8531b67814321f61297f320667069ac3e86da0a829623354d73f0",
      "transactionType": "CALL",
      "contractName": null,
      "contractAddress": "0x34a99057232cc4a7eb21398fd0052474f4b5bcc5",
      "function": "SubmitProject(uint256,string,string)",
      "arguments": [
        "5",
        "Submitted 5",
        "QmHash"
      ],
      "transaction": {
        "from": "0x9ed266a53c461a6a69c2cc0a08bda6198e9bfb32",
        "to": "0x34a99057232cc4a7eb21398fd0052474f4b5bcc5",
        "gas": "0x22251",
        "value": "0x0",
        "input": "0xe7c701510000000000000000000000000000000000000000000000000000000000000005000000000000000000000000000000000000000000000000000000000000006000000000000000000000000000000000000000000000000000000000000000a0000000000000000000000000000000000000000000000000000000000000000b5375626d697474656420350000000000000000000000000000000000000000000000000000000000000000000000000000000000000000000000000000000006516d486173680000000000000000000000000000000000000000000000000000",
        "nonce": "0x18",
        "chainId": "0xa4ec"
      },
      "additionalContracts": [],
      "isFixedGasLimit": false
    },
    {
      "hash": "0x8c638c03a4aaa2d21bd6b013e82ae4fa28cfb388fbf5dd2419c81d192198f318",
      "transactionType": "CALL",
      "contractName": null,
      "contractAddress": "0x34a99057232cc4a7eb21398fd0052474f4b5bcc5",
      "function": "SubmitProject(uint256,string,string)",
      "arguments": [
        "6",
        "Submitted 6",
        "QmHash"
      ],
      "transaction": {
        "from": "0x9ed266a53c461a6a69c2cc0a08bda6198e9bfb32",
        "to": "0x34a99057232cc4a7eb21398fd0052474f4b5bcc5",
        "gas": "0x22251",
        "value": "0x0",
        "input": "0xe7c701510000000000000000000000000000000000000000000000000000000000000006000000000000000000000000000000000000000000000000000000000000006000000000000000000000000000000000000000000000000000000000000000a0000000000000000000000000000000000000000000000000000000000000000b5375626d697474656420360000000000000000000000000000000000000000000000000000000000000000000000000000000000000000000000000000000006516d486173680000000000000000000000000000000000000000000000000000",
        "nonce": "0x19",
        "chainId": "0xa4ec"
      },
      "additionalContracts": [],
      "isFixedGasLimit": false
    },
    {
      "hash": "0x9b3214ca33ea1377bc92d44f375ec22a3dad774695d47c73a5a29196fd6f085a",
      "transactionType": "CALL",
      "contractName": null,
      "contractAddress": "0x34a99057232cc4a7eb21398fd0052474f4b5bcc5",
      "function": "SubmitProject(uint256,string,string)",
      "arguments": [
        "7",
        "Submitted 7",
        "QmHash"
      ],
      "transaction": {
        "from": "0x9ed266a53c461a6a69c2cc0a08bda6198e9bfb32",
        "to": "0x34a99057232cc4a7eb21398fd0052474f4b5bcc5",
        "gas": "0x22251",
        "value": "0x0",
        "input": "0xe7c701510000000000000000000000000000000000000000000000000000000000000007000000000000000000000000000000000000000000000000000000000000006000000000000000000000000000000000000000000000000000000000000000a0000000000000000000000000000000000000000000000000000000000000000b5375626d697474656420370000000000000000000000000000000000000000000000000000000000000000000000000000000000000000000000000000000006516d486173680000000000000000000000000000000000000000000000000000",
        "nonce": "0x1a",
        "chainId": "0xa4ec"
      },
      "additionalContracts": [],
      "isFixedGasLimit": false
    },
    {
      "hash": "0x4e737708efd8fd37ca6f46063472700990826f099dab2a0d61035fdb769147bb",
      "transactionType": "CALL",
      "contractName": null,
      "contractAddress": "0x34a99057232cc4a7eb21398fd0052474f4b5bcc5",
      "function": "SubmitProject(uint256,string,string)",
      "arguments": [
        "8",
        "Submitted 8",
        "QmHash"
      ],
      "transaction": {
        "from": "0x9ed266a53c461a6a69c2cc0a08bda6198e9bfb32",
        "to": "0x34a99057232cc4a7eb21398fd0052474f4b5bcc5",
        "gas": "0x22251",
        "value": "0x0",
        "input": "0xe7c701510000000000000000000000000000000000000000000000000000000000000008000000000000000000000000000000000000000000000000000000000000006000000000000000000000000000000000000000000000000000000000000000a0000000000000000000000000000000000000000000000000000000000000000b5375626d697474656420380000000000000000000000000000000000000000000000000000000000000000000000000000000000000000000000000000000006516d486173680000000000000000000000000000000000000000000000000000",
        "nonce": "0x1b",
        "chainId": "0xa4ec"
      },
      "additionalContracts": [],
      "isFixedGasLimit": false
    },
    {
      "hash": "0x081f82be39db588248ee01212431b4165b0035263ec01674f9fa783347edf0e9",
      "transactionType": "CALL",
      "contractName": null,
      "contractAddress": "0x34a99057232cc4a7eb21398fd0052474f4b5bcc5",
      "function": "SubmitProject(uint256,string,string)",
      "arguments": [
        "9",
        "Submitted 9",
        "QmHash"
      ],
      "transaction": {
        "from": "0x9ed266a53c461a6a69c2cc0a08bda6198e9bfb32",
        "to": "0x34a99057232cc4a7eb21398fd0052474f4b5bcc5",
        "gas": "0x22251",
        "value": "0x0",
        "input": "0xe7c701510000000000000000000000000000000000000000000000000000000000000009000000000000000000000000000000000000000000000000000000000000006000000000000000000000000000000000000000000000000000000000000000a0000000000000000000000000000000000000000000000000000000000000000b5375626d697474656420390000000000000000000000000000000000000000000000000000000000000000000000000000000000000000000000000000000006516d486173680000000000000000000000000000000000000000000000000000",
        "nonce": "0x1c",
        "chainId": "0xa4ec"
      },
      "additionalContracts": [],
      "isFixedGasLimit": false
    },
    {
      "hash": "0xf82006cc5ed3ee6f40088dac763197dc5d2cfaebfe2daff72632d101bce83e62",
      "transactionType": "CALL",
      "contractName": null,
      "contractAddress": "0x34a99057232cc4a7eb21398fd0052474f4b5bcc5",
      "function": "SubmitProject(uint256,string,string)",
      "arguments": [
        "10",
        "Submitted 10",
        "QmHash"
      ],
      "transaction": {
        "from": "0x9ed266a53c461a6a69c2cc0a08bda6198e9bfb32",
        "to": "0x34a99057232cc4a7eb21398fd0052474f4b5bcc5",
        "gas": "0x24286",
        "value": "0x0",
        "input": "0xe7c70151000000000000000000000000000000000000000000000000000000000000000a000000000000000000000000000000000000000000000000000000000000006000000000000000000000000000000000000000000000000000000000000000a0000000000000000000000000000000000000000000000000000000000000000c5375626d697474656420313000000000000000000000000000000000000000000000000000000000000000000000000000000000000000000000000000000006516d486173680000000000000000000000000000000000000000000000000000",
        "nonce": "0x1d",
        "chainId": "0xa4ec"
      },
      "additionalContracts": [],
      "isFixedGasLimit": false
    }
  ],
  "receipts": [
    {
      "status": "0x1",
      "cumulativeGasUsed": "0xe7d05",
      "logs": [
        {
          "address": "0x34a99057232cc4a7eb21398fd0052474f4b5bcc5",
          "topics": [
            "0x1a2329f37ef34ee1917f3b35f441382c68224401dd616d88ff4e8938f2b1dd3d"
          ],
          "data": "0x00000000000000000000000000000000000000000000000000000000000000600000000000000000000000009ed266a53c461a6a69c2cc0a08bda6198e9bfb3200000000000000000000000000000000000000000000000000000000000027110000000000000000000000000000000000000000000000000000000000000009436f6d70616e7920310000000000000000000000000000000000000000000000",
          "blockHash": "0xe8f37232c241d627c651d7405964bcbea81d571b9c74f4c535bbd9184aea9cd0",
          "blockNumber": "0x3282640",
          "transactionHash": "0x4368823cadac3e78867a57b223dc1c5e4fcd55e96a10f701de0c6a917bb03f3c",
          "transactionIndex": "0x8",
          "logIndex": "0x1e",
          "removed": false
        }
      ],
      "logsBloom": "0x00000000000000404000000000000000000000000000000000000000000000000000000000000000000000000000000000000000000000000000000000000000000000000000000000000000000000000000000000000000000000000000000000000000000000000000000000000000000000000000000000000000000000000000000000000000000000000000000000000000000000000000000000000000000000000000010000000000000000000000000000000000000000000000000001000000000000000000020000000000000000000000000000000000000000004000000000000000000000000000000000000000000000000000000000000000",
      "type": "0x0",
      "transactionHash": "0x4368823cadac3e78867a57b223dc1c5e4fcd55e96a10f701de0c6a917bb03f3c",
      "transactionIndex": "0x8",
      "blockHash": "0xe8f37232c241d627c651d7405964bcbea81d571b9c74f4c535bbd9184aea9cd0",
      "blockNumber": "0x3282640",
      "gasUsed": "0x32f3c",
      "effectiveGasPrice": "0x5d22cfc40",
      "from": "0x9ed266a53c461a6a69c2cc0a08bda6198e9bfb32",
      "to": "0x34a99057232cc4a7eb21398fd0052474f4b5bcc5",
      "contractAddress": null,
      "l1BaseFeeScalar": "0x0",
      "l1BlobBaseFee": "0x651408a",
      "l1BlobBaseFeeScalar": "0x0",
      "l1Fee": "0x0",
      "l1GasPrice": "0x28d978f",
      "l1GasUsed": "0x851"
    },
    {
      "status": "0x1",
      "cumulativeGasUsed": "0x19def4",
      "logs": [
        {
          "address": "0x34a99057232cc4a7eb21398fd0052474f4b5bcc5",
          "topics": [
            "0x1a2329f37ef34ee1917f3b35f441382c68224401dd616d88ff4e8938f2b1dd3d"
          ],
          "data": "0x00000000000000000000000000000000000000000000000000000000000000600000000000000000000000009ed266a53c461a6a69c2cc0a08bda6198e9bfb3200000000000000000000000000000000000000000000000000000000000027120000000000000000000000000000000000000000000000000000000000000009436f6d70616e7920320000000000000000000000000000000000000000000000",
          "blockHash": "0x98e1e673b8a418e3938ac4e827b63eacb19d90e719a79480b6ff7f86cdce4450",
          "blockNumber": "0x3282641",
          "transactionHash": "0xe2efcc0f1260bf99442f4facbcdfec40dd08c709cd2e35fd438b33ca09cf1cfb",
          "transactionIndex": "0xb",
          "logIndex": "0x2d",
          "removed": false
        }
      ],
      "logsBloom": "0x00000000000000404000000000000000000000000000000000000000000000000000000000000000000000000000000000000000000000000000000000000000000000000000000000000000000000000000000000000000000000000000000000000000000000000000000000000000000000000000000000000000000000000000000000000000000000000000000000000000000000000000000000000000000000000000010000000000000000000000000000000000000000000000000001000000000000000000020000000000000000000000000000000000000000004000000000000000000000000000000000000000000000000000000000000000",
      "type": "0x0",
      "transactionHash": "0xe2efcc0f1260bf99442f4facbcdfec40dd08c709cd2e35fd438b33ca09cf1cfb",
      "transactionIndex": "0xb",
      "blockHash": "0x98e1e673b8a418e3938ac4e827b63eacb19d90e719a79480b6ff7f86cdce4450",
      "blockNumber": "0x3282641",
      "gasUsed": "0x2ec70",
      "effectiveGasPrice": "0x5d22cfc40",
      "from": "0x9ed266a53c461a6a69c2cc0a08bda6198e9bfb32",
      "to": "0x34a99057232cc4a7eb21398fd0052474f4b5bcc5",
      "contractAddress": null,
      "l1BaseFeeScalar": "0x0",
      "l1BlobBaseFee": "0x651408a",
      "l1BlobBaseFeeScalar": "0x0",
      "l1Fee": "0x0",
      "l1GasPrice": "0x28d978f",
      "l1GasUsed": "0x836"
    },
    {
      "status": "0x1",
      "cumulativeGasUsed": "0x1ccb64",
      "logs": [
        {
          "address": "0x34a99057232cc4a7eb21398fd0052474f4b5bcc5",
          "topics": [
            "0x1a2329f37ef34ee1917f3b35f441382c68224401dd616d88ff4e8938f2b1dd3d"
          ],
          "data": "0x00000000000000000000000000000000000000000000000000000000000000600000000000000000000000009ed266a53c461a6a69c2cc0a08bda6198e9bfb3200000000000000000000000000000000000000000000000000000000000027130000000000000000000000000000000000000000000000000000000000000009436f6d70616e7920330000000000000000000000000000000000000000000000",
          "blockHash": "0x98e1e673b8a418e3938ac4e827b63eacb19d90e719a79480b6ff7f86cdce4450",
          "blockNumber": "0x3282641",
          "transactionHash": "0xe9fe7f32cb9aa8023ebe8812f52db3dc5d981b0e81aec43d16057577f2490000",
          "transactionIndex": "0xc",
          "logIndex": "0x2e",
          "removed": false
        }
      ],
      "logsBloom": "0x00000000000000404000000000000000000000000000000000000000000000000000000000000000000000000000000000000000000000000000000000000000000000000000000000000000000000000000000000000000000000000000000000000000000000000000000000000000000000000000000000000000000000000000000000000000000000000000000000000000000000000000000000000000000000000000010000000000000000000000000000000000000000000000000001000000000000000000020000000000000000000000000000000000000000004000000000000000000000000000000000000000000000000000000000000000",
      "type": "0x0",
      "transactionHash": "0xe9fe7f32cb9aa8023ebe8812f52db3dc5d981b0e81aec43d16057577f2490000",
      "transactionIndex": "0xc",
      "blockHash": "0x98e1e673b8a418e3938ac4e827b63eacb19d90e719a79480b6ff7f86cdce4450",
      "blockNumber": "0x3282641",
      "gasUsed": "0x2ec70",
      "effectiveGasPrice": "0x5d22cfc40",
      "from": "0x9ed266a53c461a6a69c2cc0a08bda6198e9bfb32",
      "to": "0x34a99057232cc4a7eb21398fd0052474f4b5bcc5",
      "contractAddress": null,
      "l1BaseFeeScalar": "0x0",
      "l1BlobBaseFee": "0x651408a",
      "l1BlobBaseFeeScalar": "0x0",
      "l1Fee": "0x0",
      "l1GasPrice": "0x28d978f",
      "l1GasUsed": "0x86c"
    },
    {
      "status": "0x1",
      "cumulativeGasUsed": "0x1fb7d4",
      "logs": [
        {
          "address": "0x34a99057232cc4a7eb21398fd0052474f4b5bcc5",
          "topics": [
            "0x1a2329f37ef34ee1917f3b35f441382c68224401dd616d88ff4e8938f2b1dd3d"
          ],
          "data": "0x00000000000000000000000000000000000000000000000000000000000000600000000000000000000000009ed266a53c461a6a69c2cc0a08bda6198e9bfb3200000000000000000000000000000000000000000000000000000000000027140000000000000000000000000000000000000000000000000000000000000009436f6d70616e7920340000000000000000000000000000000000000000000000",
          "blockHash": "0x98e1e673b8a418e3938ac4e827b63eacb19d90e719a79480b6ff7f86cdce4450",
          "blockNumber": "0x3282641",
          "transactionHash": "0xa599ff2638d1842f59061894c157127d0a41369ab34e861295f3bfa0fe8f6a54",
          "transactionIndex": "0xd",
          "logIndex": "0x2f",
          "removed": false
        }
      ],
      "logsBloom": "0x00000000000000404000000000000000000000000000000000000000000000000000000000000000000000000000000000000000000000000000000000000000000000000000000000000000000000000000000000000000000000000000000000000000000000000000000000000000000000000000000000000000000000000000000000000000000000000000000000000000000000000000000000000000000000000000010000000000000000000000000000000000000000000000000001000000000000000000020000000000000000000000000000000000000000004000000000000000000000000000000000000000000000000000000000000000",
      "type": "0x0",
      "transactionHash": "0xa599ff2638d1842f59061894c157127d0a41369ab34e861295f3bfa0fe8f6a54",
      "transactionIndex": "0xd",
      "blockHash": "0x98e1e673b8a418e3938ac4e827b63eacb19d90e719a79480b6ff7f86cdce4450",
      "blockNumber": "0x3282641",
      "gasUsed": "0x2ec70",
      "effectiveGasPrice": "0x5d22cfc40",
      "from": "0x9ed266a53c461a6a69c2cc0a08bda6198e9bfb32",
      "to": "0x34a99057232cc4a7eb21398fd0052474f4b5bcc5",
      "contractAddress": null,
      "l1BaseFeeScalar": "0x0",
      "l1BlobBaseFee": "0x651408a",
      "l1BlobBaseFeeScalar": "0x0",
      "l1Fee": "0x0",
      "l1GasPrice": "0x28d978f",
      "l1GasUsed": "0x86c"
    },
    {
      "status": "0x1",
      "cumulativeGasUsed": "0x22a444",
      "logs": [
        {
          "address": "0x34a99057232cc4a7eb21398fd0052474f4b5bcc5",
          "topics": [
            "0x1a2329f37ef34ee1917f3b35f441382c68224401dd616d88ff4e8938f2b1dd3d"
          ],
          "data": "0x00000000000000000000000000000000000000000000000000000000000000600000000000000000000000009ed266a53c461a6a69c2cc0a08bda6198e9bfb3200000000000000000000000000000000000000000000000000000000000027150000000000000000000000000000000000000000000000000000000000000009436f6d70616e7920350000000000000000000000000000000000000000000000",
          "blockHash": "0x98e1e673b8a418e3938ac4e827b63eacb19d90e719a79480b6ff7f86cdce4450",
          "blockNumber": "0x3282641",
          "transactionHash": "0x560902eeb348f205b4b3039687db4fb854928f8e1e1ddb55abfa818825dbaac7",
          "transactionIndex": "0xe",
          "logIndex": "0x30",
          "removed": false
        }
      ],
      "logsBloom": "0x00000000000000404000000000000000000000000000000000000000000000000000000000000000000000000000000000000000000000000000000000000000000000000000000000000000000000000000000000000000000000000000000000000000000000000000000000000000000000000000000000000000000000000000000000000000000000000000000000000000000000000000000000000000000000000000010000000000000000000000000000000000000000000000000001000000000000000000020000000000000000000000000000000000000000004000000000000000000000000000000000000000000000000000000000000000",
      "type": "0x0",
      "transactionHash": "0x560902eeb348f205b4b3039687db4fb854928f8e1e1ddb55abfa818825dbaac7",
      "transactionIndex": "0xe",
      "blockHash": "0x98e1e673b8a418e3938ac4e827b63eacb19d90e719a79480b6ff7f86cdce4450",
      "blockNumber": "0x3282641",
      "gasUsed": "0x2ec70",
      "effectiveGasPrice": "0x5d22cfc40",
      "from": "0x9ed266a53c461a6a69c2cc0a08bda6198e9bfb32",
      "to": "0x34a99057232cc4a7eb21398fd0052474f4b5bcc5",
      "contractAddress": null,
      "l1BaseFeeScalar": "0x0",
      "l1BlobBaseFee": "0x651408a",
      "l1BlobBaseFeeScalar": "0x0",
      "l1Fee": "0x0",
      "l1GasPrice": "0x28d978f",
      "l1GasUsed": "0x86c"
    },
    {
      "status": "0x1",
      "cumulativeGasUsed": "0x2590b4",
      "logs": [
        {
          "address": "0x34a99057232cc4a7eb21398fd0052474f4b5bcc5",
          "topics": [
            "0x1a2329f37ef34ee1917f3b35f441382c68224401dd616d88ff4e8938f2b1dd3d"
          ],
          "data": "0x00000000000000000000000000000000000000000000000000000000000000600000000000000000000000009ed266a53c461a6a69c2cc0a08bda6198e9bfb3200000000000000000000000000000000000000000000000000000000000027160000000000000000000000000000000000000000000000000000000000000009436f6d70616e7920360000000000000000000000000000000000000000000000",
          "blockHash": "0x98e1e673b8a418e3938ac4e827b63eacb19d90e719a79480b6ff7f86cdce4450",
          "blockNumber": "0x3282641",
          "transactionHash": "0xc50cc8f0fa62bd9b41f67136e9e01fa8a406afdb7b962a619232e448d234cf2c",
          "transactionIndex": "0xf",
          "logIndex": "0x31",
          "removed": false
        }
      ],
      "logsBloom": "0x00000000000000404000000000000000000000000000000000000000000000000000000000000000000000000000000000000000000000000000000000000000000000000000000000000000000000000000000000000000000000000000000000000000000000000000000000000000000000000000000000000000000000000000000000000000000000000000000000000000000000000000000000000000000000000000010000000000000000000000000000000000000000000000000001000000000000000000020000000000000000000000000000000000000000004000000000000000000000000000000000000000000000000000000000000000",
      "type": "0x0",
      "transactionHash": "0xc50cc8f0fa62bd9b41f67136e9e01fa8a406afdb7b962a619232e448d234cf2c",
      "transactionIndex": "0xf",
      "blockHash": "0x98e1e673b8a418e3938ac4e827b63eacb19d90e719a79480b6ff7f86cdce4450",
      "blockNumber": "0x3282641",
      "gasUsed": "0x2ec70",
      "effectiveGasPrice": "0x5d22cfc40",
      "from": "0x9ed266a53c461a6a69c2cc0a08bda6198e9bfb32",
      "to": "0x34a99057232cc4a7eb21398fd0052474f4b5bcc5",
      "contractAddress": null,
      "l1BaseFeeScalar": "0x0",
      "l1BlobBaseFee": "0x651408a",
      "l1BlobBaseFeeScalar": "0x0",
      "l1Fee": "0x0",
      "l1GasPrice": "0x28d978f",
      "l1GasUsed": "0x86c"
    },
    {
      "status": "0x1",
      "cumulativeGasUsed": "0x287d24",
      "logs": [
        {
          "address": "0x34a99057232cc4a7eb21398fd0052474f4b5bcc5",
          "topics": [
            "0x1a2329f37ef34ee1917f3b35f441382c68224401dd616d88ff4e8938f2b1dd3d"
          ],
          "data": "0x00000000000000000000000000000000000000000000000000000000000000600000000000000000000000009ed266a53c461a6a69c2cc0a08bda6198e9bfb3200000000000000000000000000000000000000000000000000000000000027170000000000000000000000000000000000000000000000000000000000000009436f6d70616e7920370000000000000000000000000000000000000000000000",
          "blockHash": "0x98e1e673b8a418e3938ac4e827b63eacb19d90e719a79480b6ff7f86cdce4450",
          "blockNumber": "0x3282641",
          "transactionHash": "0x13293f65595134b25e84b5ca8a7ab7cea55d7cbc616d971db5b75ba857a4ce12",
          "transactionIndex": "0x10",
          "logIndex": "0x32",
          "removed": false
        }
      ],
      "logsBloom": "0x00000000000000404000000000000000000000000000000000000000000000000000000000000000000000000000000000000000000000000000000000000000000000000000000000000000000000000000000000000000000000000000000000000000000000000000000000000000000000000000000000000000000000000000000000000000000000000000000000000000000000000000000000000000000000000000010000000000000000000000000000000000000000000000000001000000000000000000020000000000000000000000000000000000000000004000000000000000000000000000000000000000000000000000000000000000",
      "type": "0x0",
      "transactionHash": "0x13293f65595134b25e84b5ca8a7ab7cea55d7cbc616d971db5b75ba857a4ce12",
      "transactionIndex": "0x10",
      "blockHash": "0x98e1e673b8a418e3938ac4e827b63eacb19d90e719a79480b6ff7f86cdce4450",
      "blockNumber": "0x3282641",
      "gasUsed": "0x2ec70",
      "effectiveGasPrice": "0x5d22cfc40",
      "from": "0x9ed266a53c461a6a69c2cc0a08bda6198e9bfb32",
      "to": "0x34a99057232cc4a7eb21398fd0052474f4b5bcc5",
      "contractAddress": null,
      "l1BaseFeeScalar": "0x0",
      "l1BlobBaseFee": "0x651408a",
      "l1BlobBaseFeeScalar": "0x0",
      "l1Fee": "0x0",
      "l1GasPrice": "0x28d978f",
      "l1GasUsed": "0x86c"
    },
    {
      "status": "0x1",
      "cumulativeGasUsed": "0x2b6994",
      "logs": [
        {
          "address": "0x34a99057232cc4a7eb21398fd0052474f4b5bcc5",
          "topics": [
            "0x1a2329f37ef34ee1917f3b35f441382c68224401dd616d88ff4e8938f2b1dd3d"
          ],
          "data": "0x00000000000000000000000000000000000000000000000000000000000000600000000000000000000000009ed266a53c461a6a69c2cc0a08bda6198e9bfb3200000000000000000000000000000000000000000000000000000000000027180000000000000000000000000000000000000000000000000000000000000009436f6d70616e7920380000000000000000000000000000000000000000000000",
          "blockHash": "0x98e1e673b8a418e3938ac4e827b63eacb19d90e719a79480b6ff7f86cdce4450",
          "blockNumber": "0x3282641",
          "transactionHash": "0x286778fa805ba1ffc8afbbcdbebdff73a88f5e0c0c5d6537ebc6d8b466ac5732",
          "transactionIndex": "0x11",
          "logIndex": "0x33",
          "removed": false
        }
      ],
      "logsBloom": "0x00000000000000404000000000000000000000000000000000000000000000000000000000000000000000000000000000000000000000000000000000000000000000000000000000000000000000000000000000000000000000000000000000000000000000000000000000000000000000000000000000000000000000000000000000000000000000000000000000000000000000000000000000000000000000000000010000000000000000000000000000000000000000000000000001000000000000000000020000000000000000000000000000000000000000004000000000000000000000000000000000000000000000000000000000000000",
      "type": "0x0",
      "transactionHash": "0x286778fa805ba1ffc8afbbcdbebdff73a88f5e0c0c5d6537ebc6d8b466ac5732",
      "transactionIndex": "0x11",
      "blockHash": "0x98e1e673b8a418e3938ac4e827b63eacb19d90e719a79480b6ff7f86cdce4450",
      "blockNumber": "0x3282641",
      "gasUsed": "0x2ec70",
      "effectiveGasPrice": "0x5d22cfc40",
      "from": "0x9ed266a53c461a6a69c2cc0a08bda6198e9bfb32",
      "to": "0x34a99057232cc4a7eb21398fd0052474f4b5bcc5",
      "contractAddress": null,
      "l1BaseFeeScalar": "0x0",
      "l1BlobBaseFee": "0x651408a",
      "l1BlobBaseFeeScalar": "0x0",
      "l1Fee": "0x0",
      "l1GasPrice": "0x28d978f",
      "l1GasUsed": "0x85e"
    },
    {
      "status": "0x1",
      "cumulativeGasUsed": "0x31428c",
      "logs": [
        {
          "address": "0x34a99057232cc4a7eb21398fd0052474f4b5bcc5",
          "topics": [
            "0x1a2329f37ef34ee1917f3b35f441382c68224401dd616d88ff4e8938f2b1dd3d"
          ],
          "data": "0x00000000000000000000000000000000000000000000000000000000000000600000000000000000000000009ed266a53c461a6a69c2cc0a08bda6198e9bfb32000000000000000000000000000000000000000000000000000000000000271a000000000000000000000000000000000000000000000000000000000000000a436f6d70616e7920313000000000000000000000000000000000000000000000",
          "blockHash": "0x98e1e673b8a418e3938ac4e827b63eacb19d90e719a79480b6ff7f86cdce4450",
          "blockNumber": "0x3282641",
          "transactionHash": "0x49dc7f73911d4825ed6bd623cb29ceda4cb57fe2509babd4a1a6466220f55c3d",
          "transactionIndex": "0x13",
          "logIndex": "0x35",
          "removed": false
        }
      ],
      "logsBloom": "0x00000000000000404000000000000000000000000000000000000000000000000000000000000000000000000000000000000000000000000000000000000000000000000000000000000000000000000000000000000000000000000000000000000000000000000000000000000000000000000000000000000000000000000000000000000000000000000000000000000000000000000000000000000000000000000000010000000000000000000000000000000000000000000000000001000000000000000000020000000000000000000000000000000000000000004000000000000000000000000000000000000000000000000000000000000000",
      "type": "0x0",
      "transactionHash": "0x49dc7f73911d4825ed6bd623cb29ceda4cb57fe2509babd4a1a6466220f55c3d",
      "transactionIndex": "0x13",
      "blockHash": "0x98e1e673b8a418e3938ac4e827b63eacb19d90e719a79480b6ff7f86cdce4450",
      "blockNumber": "0x3282641",
      "gasUsed": "0x2ec88",
      "effectiveGasPrice": "0x5d22cfc40",
      "from": "0x9ed266a53c461a6a69c2cc0a08bda6198e9bfb32",
      "to": "0x34a99057232cc4a7eb21398fd0052474f4b5bcc5",
      "contractAddress": null,
      "l1BaseFeeScalar": "0x0",
      "l1BlobBaseFee": "0x651408a",
      "l1BlobBaseFeeScalar": "0x0",
      "l1Fee": "0x0",
      "l1GasPrice": "0x28d978f",
      "l1GasUsed": "0x879"
    },
    {
      "status": "0x1",
      "cumulativeGasUsed": "0x3310df",
      "logs": [
        {
          "address": "0x34a99057232cc4a7eb21398fd0052474f4b5bcc5",
          "topics": [
            "0xdd21516e8d64b364bd7a9c1607150492404c8502f6b066727a4e4b1f6b12c963"
          ],
          "data": "0x0000000000000000000000000000000000000000000000000000000000000001000000000000000000000000000000000000000000000000000000000000008000000000000000000000000000000000000000000000000000000000000000c00000000000000000000000009ed266a53c461a6a69c2cc0a08bda6198e9bfb32000000000000000000000000000000000000000000000000000000000000000b5375626d697474656420310000000000000000000000000000000000000000000000000000000000000000000000000000000000000000000000000000000006516d486173680000000000000000000000000000000000000000000000000000",
          "blockHash": "0x98e1e673b8a418e3938ac4e827b63eacb19d90e719a79480b6ff7f86cdce4450",
          "blockNumber": "0x3282641",
          "transactionHash": "0xd2592217d43f7cf0fd729b3b0a89f76da2e4280269d960a6cf1cc31245a4b01d",
          "transactionIndex": "0x14",
          "logIndex": "0x36",
          "removed": false
        }
      ],
      "logsBloom": "0x00000000000000004000000000000000000000000000000000000000000000000000000000000000000000000000000000000000000000000000000000000000000000400000001000000000000000000000000000000000000000000000000000000000000000000000000000000000000000000000000000000000000000000000000000000000000000000000000000000000000000000000000000000000000000000000010000000000000000000000000000000000000000000000000000000000000000000000020000000000000000000000000000000000000000000000000000000000000000000004000000000000000000000000000000000000",
      "type": "0x0",
      "transactionHash": "0xd2592217d43f7cf0fd729b3b0a89f76da2e4280269d960a6cf1cc31245a4b01d",
      "transactionIndex": "0x14",
      "blockHash": "0x98e1e673b8a418e3938ac4e827b63eacb19d90e719a79480b6ff7f86cdce4450",
      "blockNumber": "0x3282641",
      "gasUsed": "0x1ce53",
      "effectiveGasPrice": "0x5d22cfc40",
      "from": "0x9ed266a53c461a6a69c2cc0a08bda6198e9bfb32",
      "to": "0x34a99057232cc4a7eb21398fd0052474f4b5bcc5",
      "contractAddress": null,
      "l1BaseFeeScalar": "0x0",
      "l1BlobBaseFee": "0x651408a",
      "l1BlobBaseFeeScalar": "0x0",
      "l1Fee": "0x0",
      "l1GasPrice": "0x28d978f",
      "l1GasUsed": "0x640"
    },
    {
      "status": "0x1",
      "cumulativeGasUsed": "0x349c66",
      "logs": [
        {
          "address": "0x34a99057232cc4a7eb21398fd0052474f4b5bcc5",
          "topics": [
            "0xdd21516e8d64b364bd7a9c1607150492404c8502f6b066727a4e4b1f6b12c963"
          ],
          "data": "0x0000000000000000000000000000000000000000000000000000000000000001000000000000000000000000000000000000000000000000000000000000008000000000000000000000000000000000000000000000000000000000000000c00000000000000000000000009ed266a53c461a6a69c2cc0a08bda6198e9bfb32000000000000000000000000000000000000000000000000000000000000000b5375626d697474656420320000000000000000000000000000000000000000000000000000000000000000000000000000000000000000000000000000000006516d486173680000000000000000000000000000000000000000000000000000",
          "blockHash": "0x98e1e673b8a418e3938ac4e827b63eacb19d90e719a79480b6ff7f86cdce4450",
          "blockNumber": "0x3282641",
          "transactionHash": "0x6c0d525434e3e66e3dd32b7a43161186e589c1cbb2ac00197ddf001f9b2a0ed1",
          "transactionIndex": "0x15",
          "logIndex": "0x37",
          "removed": false
        }
      ],
      "logsBloom": "0x00000000000000004000000000000000000000000000000000000000000000000000000000000000000000000000000000000000000000000000000000000000000000400000001000000000000000000000000000000000000000000000000000000000000000000000000000000000000000000000000000000000000000000000000000000000000000000000000000000000000000000000000000000000000000000000010000000000000000000000000000000000000000000000000000000000000000000000020000000000000000000000000000000000000000000000000000000000000000000004000000000000000000000000000000000000",
      "type": "0x0",
      "transactionHash": "0x6c0d525434e3e66e3dd32b7a43161186e589c1cbb2ac00197ddf001f9b2a0ed1",
      "transactionIndex": "0x15",
      "blockHash": "0x98e1e673b8a418e3938ac4e827b63eacb19d90e719a79480b6ff7f86cdce4450",
      "blockNumber": "0x3282641",
      "gasUsed": "0x18b87",
      "effectiveGasPrice": "0x5d22cfc40",
      "from": "0x9ed266a53c461a6a69c2cc0a08bda6198e9bfb32",
      "to": "0x34a99057232cc4a7eb21398fd0052474f4b5bcc5",
      "contractAddress": null,
      "l1BaseFeeScalar": "0x0",
      "l1BlobBaseFee": "0x651408a",
      "l1BlobBaseFeeScalar": "0x0",
      "l1Fee": "0x0",
      "l1GasPrice": "0x28d978f",
      "l1GasUsed": "0x640"
    },
    {
      "status": "0x1",
      "cumulativeGasUsed": "0x3627ed",
      "logs": [
        {
          "address": "0x34a99057232cc4a7eb21398fd0052474f4b5bcc5",
          "topics": [
            "0xdd21516e8d64b364bd7a9c1607150492404c8502f6b066727a4e4b1f6b12c963"
          ],
          "data": "0x0000000000000000000000000000000000000000000000000000000000000001000000000000000000000000000000000000000000000000000000000000008000000000000000000000000000000000000000000000000000000000000000c00000000000000000000000009ed266a53c461a6a69c2cc0a08bda6198e9bfb32000000000000000000000000000000000000000000000000000000000000000b5375626d697474656420330000000000000000000000000000000000000000000000000000000000000000000000000000000000000000000000000000000006516d486173680000000000000000000000000000000000000000000000000000",
          "blockHash": "0x98e1e673b8a418e3938ac4e827b63eacb19d90e719a79480b6ff7f86cdce4450",
          "blockNumber": "0x3282641",
          "transactionHash": "0x7f0bcd53a390e68abc1f85edbfbb40eaa911b31f02ae9b03f592661c5feacbcb",
          "transactionIndex": "0x16",
          "logIndex": "0x38",
          "removed": false
        }
      ],
      "logsBloom": "0x00000000000000004000000000000000000000000000000000000000000000000000000000000000000000000000000000000000000000000000000000000000000000400000001000000000000000000000000000000000000000000000000000000000000000000000000000000000000000000000000000000000000000000000000000000000000000000000000000000000000000000000000000000000000000000000010000000000000000000000000000000000000000000000000000000000000000000000020000000000000000000000000000000000000000000000000000000000000000000004000000000000000000000000000000000000",
      "type": "0x0",
      "transactionHash": "0x7f0bcd53a390e68abc1f85edbfbb40eaa911b31f02ae9b03f592661c5feacbcb",
      "transactionIndex": "0x16",
      "blockHash": "0x98e1e673b8a418e3938ac4e827b63eacb19d90e719a79480b6ff7f86cdce4450",
      "blockNumber": "0x3282641",
      "gasUsed": "0x18b87",
      "effectiveGasPrice": "0x5d22cfc40",
      "from": "0x9ed266a53c461a6a69c2cc0a08bda6198e9bfb32",
      "to": "0x34a99057232cc4a7eb21398fd0052474f4b5bcc5",
      "contractAddress": null,
      "l1BaseFeeScalar": "0x0",
      "l1BlobBaseFee": "0x651408a",
      "l1BlobBaseFeeScalar": "0x0",
      "l1Fee": "0x0",
      "l1GasPrice": "0x28d978f",
      "l1GasUsed": "0x640"
    },
    {
      "status": "0x1",
      "cumulativeGasUsed": "0x37b374",
      "logs": [
        {
          "address": "0x34a99057232cc4a7eb21398fd0052474f4b5bcc5",
          "topics": [
            "0xdd21516e8d64b364bd7a9c1607150492404c8502f6b066727a4e4b1f6b12c963"
          ],
          "data": "0x0000000000000000000000000000000000000000000000000000000000000001000000000000000000000000000000000000000000000000000000000000008000000000000000000000000000000000000000000000000000000000000000c00000000000000000000000009ed266a53c461a6a69c2cc0a08bda6198e9bfb32000000000000000000000000000000000000000000000000000000000000000b5375626d697474656420340000000000000000000000000000000000000000000000000000000000000000000000000000000000000000000000000000000006516d486173680000000000000000000000000000000000000000000000000000",
          "blockHash": "0x98e1e673b8a418e3938ac4e827b63eacb19d90e719a79480b6ff7f86cdce4450",
          "blockNumber": "0x3282641",
          "transactionHash": "0xf079ef4eceb052ec415599a1e45ca46b879b08e0d37a4926f3035ee7e205ea4e",
          "transactionIndex": "0x17",
          "logIndex": "0x39",
          "removed": false
        }
      ],
      "logsBloom": "0x00000000000000004000000000000000000000000000000000000000000000000000000000000000000000000000000000000000000000000000000000000000000000400000001000000000000000000000000000000000000000000000000000000000000000000000000000000000000000000000000000000000000000000000000000000000000000000000000000000000000000000000000000000000000000000000010000000000000000000000000000000000000000000000000000000000000000000000020000000000000000000000000000000000000000000000000000000000000000000004000000000000000000000000000000000000",
      "type": "0x0",
      "transactionHash": "0xf079ef4eceb052ec415599a1e45ca46b879b08e0d37a4926f3035ee7e205ea4e",
      "transactionIndex": "0x17",
      "blockHash": "0x98e1e673b8a418e3938ac4e827b63eacb19d90e719a79480b6ff7f86cdce4450",
      "blockNumber": "0x3282641",
      "gasUsed": "0x18b87",
      "effectiveGasPrice": "0x5d22cfc40",
      "from": "0x9ed266a53c461a6a69c2cc0a08bda6198e9bfb32",
      "to": "0x34a99057232cc4a7eb21398fd0052474f4b5bcc5",
      "contractAddress": null,
      "l1BaseFeeScalar": "0x0",
      "l1BlobBaseFee": "0x651408a",
      "l1BlobBaseFeeScalar": "0x0",
      "l1Fee": "0x0",
      "l1GasPrice": "0x28d978f",
      "l1GasUsed": "0x640"
    },
    {
      "status": "0x1",
      "cumulativeGasUsed": "0x1c3fd2",
      "logs": [
        {
          "address": "0x34a99057232cc4a7eb21398fd0052474f4b5bcc5",
          "topics": [
            "0xdd21516e8d64b364bd7a9c1607150492404c8502f6b066727a4e4b1f6b12c963"
          ],
          "data": "0x0000000000000000000000000000000000000000000000000000000000000001000000000000000000000000000000000000000000000000000000000000008000000000000000000000000000000000000000000000000000000000000000c00000000000000000000000009ed266a53c461a6a69c2cc0a08bda6198e9bfb32000000000000000000000000000000000000000000000000000000000000000b5375626d697474656420350000000000000000000000000000000000000000000000000000000000000000000000000000000000000000000000000000000006516d486173680000000000000000000000000000000000000000000000000000",
          "blockHash": "0x26bbc268cfc3ab7ad2f8b3075caf694b43b601d704c4f10bea8b638b84b17070",
          "blockNumber": "0x3282642",
          "transactionHash": "0xe8f67dc28ff8531b67814321f61297f320667069ac3e86da0a829623354d73f0",
          "transactionIndex": "0x10",
          "logIndex": "0x4c",
          "removed": false
        }
      ],
      "logsBloom": "0x00000000000000004000000000000000000000000000000000000000000000000000000000000000000000000000000000000000000000000000000000000000000000400000001000000000000000000000000000000000000000000000000000000000000000000000000000000000000000000000000000000000000000000000000000000000000000000000000000000000000000000000000000000000000000000000010000000000000000000000000000000000000000000000000000000000000000000000020000000000000000000000000000000000000000000000000000000000000000000004000000000000000000000000000000000000",
      "type": "0x0",
      "transactionHash": "0xe8f67dc28ff8531b67814321f61297f320667069ac3e86da0a829623354d73f0",
      "transactionIndex": "0x10",
      "blockHash": "0x26bbc268cfc3ab7ad2f8b3075caf694b43b601d704c4f10bea8b638b84b17070",
      "blockNumber": "0x3282642",
      "gasUsed": "0x18b87",
      "effectiveGasPrice": "0x5d22cfc40",
      "from": "0x9ed266a53c461a6a69c2cc0a08bda6198e9bfb32",
      "to": "0x34a99057232cc4a7eb21398fd0052474f4b5bcc5",
      "contractAddress": null,
      "l1BaseFeeScalar": "0x0",
      "l1BlobBaseFee": "0x651408a",
      "l1BlobBaseFeeScalar": "0x0",
      "l1Fee": "0x0",
      "l1GasPrice": "0x28d978f",
      "l1GasUsed": "0x640"
    },
    {
      "status": "0x1",
      "cumulativeGasUsed": "0x1f56e0",
      "logs": [
        {
          "address": "0x34a99057232cc4a7eb21398fd0052474f4b5bcc5",
          "topics": [
            "0xdd21516e8d64b364bd7a9c1607150492404c8502f6b066727a4e4b1f6b12c963"
          ],
          "data": "0x0000000000000000000000000000000000000000000000000000000000000001000000000000000000000000000000000000000000000000000000000000008000000000000000000000000000000000000000000000000000000000000000c00000000000000000000000009ed266a53c461a6a69c2cc0a08bda6198e9bfb32000000000000000000000000000000000000000000000000000000000000000b5375626d697474656420370000000000000000000000000000000000000000000000000000000000000000000000000000000000000000000000000000000006516d486173680000000000000000000000000000000000000000000000000000",
          "blockHash": "0x26bbc268cfc3ab7ad2f8b3075caf694b43b601d704c4f10bea8b638b84b17070",
          "blockNumber": "0x3282642",
          "transactionHash": "0x9b3214ca33ea1377bc92d44f375ec22a3dad774695d47c73a5a29196fd6f085a",
          "transactionIndex": "0x12",
          "logIndex": "0x4e",
          "removed": false
        }
      ],
      "logsBloom": "0x00000000000000004000000000000000000000000000000000000000000000000000000000000000000000000000000000000000000000000000000000000000000000400000001000000000000000000000000000000000000000000000000000000000000000000000000000000000000000000000000000000000000000000000000000000000000000000000000000000000000000000000000000000000000000000000010000000000000000000000000000000000000000000000000000000000000000000000020000000000000000000000000000000000000000000000000000000000000000000004000000000000000000000000000000000000",
      "type": "0x0",
      "transactionHash": "0x9b3214ca33ea1377bc92d44f375ec22a3dad774695d47c73a5a29196fd6f085a",
      "transactionIndex": "0x12",
      "blockHash": "0x26bbc268cfc3ab7ad2f8b3075caf694b43b601d704c4f10bea8b638b84b17070",
      "blockNumber": "0x3282642",
      "gasUsed": "0x18b87",
      "effectiveGasPrice": "0x5d22cfc40",
      "from": "0x9ed266a53c461a6a69c2cc0a08bda6198e9bfb32",
      "to": "0x34a99057232cc4a7eb21398fd0052474f4b5bcc5",
      "contractAddress": null,
      "l1BaseFeeScalar": "0x0",
      "l1BlobBaseFee": "0x651408a",
      "l1BlobBaseFeeScalar": "0x0",
      "l1Fee": "0x0",
      "l1GasPrice": "0x28d978f",
      "l1GasUsed": "0x640"
    },
    {
      "status": "0x1",
      "cumulativeGasUsed": "0x226dee",
      "logs": [
        {
          "address": "0x34a99057232cc4a7eb21398fd0052474f4b5bcc5",
          "topics": [
            "0xdd21516e8d64b364bd7a9c1607150492404c8502f6b066727a4e4b1f6b12c963"
          ],
          "data": "0x0000000000000000000000000000000000000000000000000000000000000001000000000000000000000000000000000000000000000000000000000000008000000000000000000000000000000000000000000000000000000000000000c00000000000000000000000009ed266a53c461a6a69c2cc0a08bda6198e9bfb32000000000000000000000000000000000000000000000000000000000000000b5375626d697474656420390000000000000000000000000000000000000000000000000000000000000000000000000000000000000000000000000000000006516d486173680000000000000000000000000000000000000000000000000000",
          "blockHash": "0x26bbc268cfc3ab7ad2f8b3075caf694b43b601d704c4f10bea8b638b84b17070",
          "blockNumber": "0x3282642",
          "transactionHash": "0x081f82be39db588248ee01212431b4165b0035263ec01674f9fa783347edf0e9",
          "transactionIndex": "0x14",
          "logIndex": "0x50",
          "removed": false
        }
      ],
      "logsBloom": "0x00000000000000004000000000000000000000000000000000000000000000000000000000000000000000000000000000000000000000000000000000000000000000400000001000000000000000000000000000000000000000000000000000000000000000000000000000000000000000000000000000000000000000000000000000000000000000000000000000000000000000000000000000000000000000000000010000000000000000000000000000000000000000000000000000000000000000000000020000000000000000000000000000000000000000000000000000000000000000000004000000000000000000000000000000000000",
      "type": "0x0",
      "transactionHash": "0x081f82be39db588248ee01212431b4165b0035263ec01674f9fa783347edf0e9",
      "transactionIndex": "0x14",
      "blockHash": "0x26bbc268cfc3ab7ad2f8b3075caf694b43b601d704c4f10bea8b638b84b17070",
      "blockNumber": "0x3282642",
      "gasUsed": "0x18b87",
      "effectiveGasPrice": "0x5d22cfc40",
      "from": "0x9ed266a53c461a6a69c2cc0a08bda6198e9bfb32",
      "to": "0x34a99057232cc4a7eb21398fd0052474f4b5bcc5",
      "contractAddress": null,
      "l1BaseFeeScalar": "0x0",
      "l1BlobBaseFee": "0x651408a",
      "l1BlobBaseFeeScalar": "0x0",
      "l1Fee": "0x0",
      "l1GasPrice": "0x28d978f",
      "l1GasUsed": "0x640"
    },
    {
      "status": "0x1",
      "cumulativeGasUsed": "0x23f981",
      "logs": [
        {
          "address": "0x34a99057232cc4a7eb21398fd0052474f4b5bcc5",
          "topics": [
            "0xdd21516e8d64b364bd7a9c1607150492404c8502f6b066727a4e4b1f6b12c963"
          ],
          "data": "0x0000000000000000000000000000000000000000000000000000000000000001000000000000000000000000000000000000000000000000000000000000008000000000000000000000000000000000000000000000000000000000000000c00000000000000000000000009ed266a53c461a6a69c2cc0a08bda6198e9bfb32000000000000000000000000000000000000000000000000000000000000000c5375626d697474656420313000000000000000000000000000000000000000000000000000000000000000000000000000000000000000000000000000000006516d486173680000000000000000000000000000000000000000000000000000",
          "blockHash": "0x26bbc268cfc3ab7ad2f8b3075caf694b43b601d704c4f10bea8b638b84b17070",
          "blockNumber": "0x3282642",
          "transactionHash": "0xf82006cc5ed3ee6f40088dac763197dc5d2cfaebfe2daff72632d101bce83e62",
          "transactionIndex": "0x15",
          "logIndex": "0x51",
          "removed": false
        }
      ],
      "logsBloom": "0x00000000000000004000000000000000000000000000000000000000000000000000000000000000000000000000000000000000000000000000000000000000000000400000001000000000000000000000000000000000000000000000000000000000000000000000000000000000000000000000000000000000000000000000000000000000000000000000000000000000000000000000000000000000000000000000010000000000000000000000000000000000000000000000000000000000000000000000020000000000000000000000000000000000000000000000000000000000000000000004000000000000000000000000000000000000",
      "type": "0x0",
      "transactionHash": "0xf82006cc5ed3ee6f40088dac763197dc5d2cfaebfe2daff72632d101bce83e62",
      "transactionIndex": "0x15",
      "blockHash": "0x26bbc268cfc3ab7ad2f8b3075caf694b43b601d704c4f10bea8b638b84b17070",
      "blockNumber": "0x3282642",
      "gasUsed": "0x18b93",
      "effectiveGasPrice": "0x5d22cfc40",
      "from": "0x9ed266a53c461a6a69c2cc0a08bda6198e9bfb32",
      "to": "0x34a99057232cc4a7eb21398fd0052474f4b5bcc5",
      "contractAddress": null,
      "l1BaseFeeScalar": "0x0",
      "l1BlobBaseFee": "0x651408a",
      "l1BlobBaseFeeScalar": "0x0",
      "l1Fee": "0x0",
      "l1GasPrice": "0x28d978f",
      "l1GasUsed": "0x647"
    }
  ],
  "libraries": [],
  "pending": [
    "0x2575a8544eb298cd65f8b00fb84db54620808e94003969c213ef8603372861a3",
    "0x8c638c03a4aaa2d21bd6b013e82ae4fa28cfb388fbf5dd2419c81d192198f318",
    "0x4e737708efd8fd37ca6f46063472700990826f099dab2a0d61035fdb769147bb"
  ],
  "returns": {},
  "timestamp": 1764863643,
  "chain": 42220,
  "commit": "59f7136"
}